{
  "_format": "hh-sol-artifact-1",
  "contractName": "EtherNFTPlace",
  "sourceName": "contracts/EtherNFTPlace.sol",
  "abi": [
    {
      "inputs": [],
      "stateMutability": "nonpayable",
      "type": "constructor"
    },
    {
      "anonymous": false,
      "inputs": [
        {
          "indexed": true,
          "internalType": "address",
          "name": "owner",
          "type": "address"
        },
        {
          "indexed": true,
          "internalType": "address",
          "name": "approved",
          "type": "address"
        },
        {
          "indexed": true,
          "internalType": "uint256",
          "name": "tokenId",
          "type": "uint256"
        }
      ],
      "name": "Approval",
      "type": "event"
    },
    {
      "anonymous": false,
      "inputs": [
        {
          "indexed": true,
          "internalType": "address",
          "name": "owner",
          "type": "address"
        },
        {
          "indexed": true,
          "internalType": "address",
          "name": "operator",
          "type": "address"
        },
        {
          "indexed": false,
          "internalType": "bool",
          "name": "approved",
          "type": "bool"
        }
      ],
      "name": "ApprovalForAll",
      "type": "event"
    },
    {
      "anonymous": false,
      "inputs": [
        {
          "indexed": false,
          "internalType": "uint256",
          "name": "_fromTokenId",
          "type": "uint256"
        },
        {
          "indexed": false,
          "internalType": "uint256",
          "name": "_toTokenId",
          "type": "uint256"
        }
      ],
      "name": "BatchMetadataUpdate",
      "type": "event"
    },
    {
      "anonymous": false,
      "inputs": [
        {
          "indexed": true,
          "internalType": "uint256",
          "name": "collectionId",
          "type": "uint256"
        },
        {
          "indexed": false,
          "internalType": "address",
          "name": "owner",
          "type": "address"
        },
        {
          "indexed": false,
          "internalType": "string",
          "name": "collectionURI",
          "type": "string"
        }
      ],
      "name": "CollectionCreated",
      "type": "event"
    },
    {
      "anonymous": false,
      "inputs": [
        {
          "indexed": true,
          "internalType": "uint256",
          "name": "collectionId",
          "type": "uint256"
        },
        {
          "indexed": false,
          "internalType": "address",
          "name": "owner",
          "type": "address"
        },
        {
          "indexed": false,
          "internalType": "string",
          "name": "collectionURI",
          "type": "string"
        }
      ],
      "name": "CollectionMetadataUpdated",
      "type": "event"
    },
    {
      "anonymous": false,
      "inputs": [
        {
          "indexed": true,
          "internalType": "uint256",
          "name": "tokenId",
          "type": "uint256"
        },
        {
          "indexed": false,
          "internalType": "address",
          "name": "seller",
          "type": "address"
        },
        {
          "indexed": false,
          "internalType": "address",
          "name": "owner",
          "type": "address"
        },
        {
          "indexed": false,
          "internalType": "uint256",
          "name": "price",
          "type": "uint256"
        },
        {
          "indexed": false,
          "internalType": "bool",
          "name": "sold",
          "type": "bool"
        }
      ],
      "name": "MarketItemCreated",
      "type": "event"
    },
    {
      "anonymous": false,
      "inputs": [
        {
          "indexed": false,
          "internalType": "uint256",
          "name": "_tokenId",
          "type": "uint256"
        }
      ],
      "name": "MetadataUpdate",
      "type": "event"
    },
    {
      "anonymous": false,
      "inputs": [
        {
          "indexed": true,
          "internalType": "uint256",
          "name": "tokenId",
          "type": "uint256"
        },
        {
          "indexed": false,
          "internalType": "address",
          "name": "owner",
          "type": "address"
        },
        {
          "indexed": false,
          "internalType": "uint256",
          "name": "collectionId",
          "type": "uint256"
        },
        {
          "indexed": false,
          "internalType": "uint256",
          "name": "price",
          "type": "uint256"
        }
      ],
      "name": "NFTCreated",
      "type": "event"
    },
    {
      "anonymous": false,
      "inputs": [
        {
          "indexed": false,
          "internalType": "uint256[]",
          "name": "nftIds",
          "type": "uint256[]"
        },
        {
          "indexed": false,
          "internalType": "address",
          "name": "owner",
          "type": "address"
        },
        {
          "indexed": false,
          "internalType": "uint256",
          "name": "collectionId",
          "type": "uint256"
        }
      ],
      "name": "NFTsCollectionUpdated",
      "type": "event"
    },
    {
      "anonymous": false,
      "inputs": [
        {
          "indexed": true,
          "internalType": "address",
          "name": "from",
          "type": "address"
        },
        {
          "indexed": true,
          "internalType": "address",
          "name": "to",
          "type": "address"
        },
        {
          "indexed": true,
          "internalType": "uint256",
          "name": "tokenId",
          "type": "uint256"
        }
      ],
      "name": "Transfer",
      "type": "event"
    },
    {
      "inputs": [
        {
          "internalType": "address",
          "name": "to",
          "type": "address"
        },
        {
          "internalType": "uint256",
          "name": "tokenId",
          "type": "uint256"
        }
      ],
      "name": "approve",
      "outputs": [],
      "stateMutability": "nonpayable",
      "type": "function"
    },
    {
      "inputs": [
        {
          "internalType": "address",
          "name": "owner",
          "type": "address"
        }
      ],
      "name": "balanceOf",
      "outputs": [
        {
          "internalType": "uint256",
          "name": "",
          "type": "uint256"
        }
      ],
      "stateMutability": "view",
      "type": "function"
    },
    {
      "inputs": [
        {
          "internalType": "string",
          "name": "_collectionURI",
          "type": "string"
        },
        {
          "internalType": "uint256[]",
          "name": "selectedNFTs",
          "type": "uint256[]"
        }
      ],
      "name": "createCollection",
      "outputs": [],
      "stateMutability": "nonpayable",
      "type": "function"
    },
    {
      "inputs": [
        {
          "internalType": "uint256",
          "name": "tokenId",
          "type": "uint256"
        }
      ],
      "name": "createMarketSale",
      "outputs": [],
      "stateMutability": "payable",
      "type": "function"
    },
    {
      "inputs": [
        {
          "internalType": "string",
          "name": "tokenURI",
          "type": "string"
        },
        {
          "internalType": "uint256",
          "name": "collectionId",
          "type": "uint256"
        },
        {
          "internalType": "uint256",
          "name": "price",
          "type": "uint256"
        }
      ],
      "name": "createToken",
      "outputs": [
        {
          "internalType": "uint256",
          "name": "",
          "type": "uint256"
        }
      ],
      "stateMutability": "payable",
      "type": "function"
    },
    {
      "inputs": [
        {
          "internalType": "uint256",
          "name": "_collectionId",
          "type": "uint256"
        }
      ],
      "name": "fetchCollectionById",
      "outputs": [
        {
          "components": [
            {
              "internalType": "uint256",
              "name": "collectionId",
              "type": "uint256"
            },
            {
              "internalType": "address",
              "name": "owner",
              "type": "address"
            },
            {
              "internalType": "string",
              "name": "collectionURI",
              "type": "string"
            }
          ],
          "internalType": "struct EtherNFTPlace.Collection",
          "name": "",
          "type": "tuple"
        }
      ],
      "stateMutability": "view",
      "type": "function"
    },
    {
      "inputs": [],
      "name": "fetchMarketItems",
      "outputs": [
        {
          "components": [
            {
              "internalType": "uint256",
              "name": "tokenId",
              "type": "uint256"
            },
            {
              "internalType": "address payable",
              "name": "seller",
              "type": "address"
            },
            {
              "internalType": "address payable",
              "name": "owner",
              "type": "address"
            },
            {
              "internalType": "uint256",
              "name": "price",
              "type": "uint256"
            },
            {
              "internalType": "bool",
              "name": "sold",
              "type": "bool"
            }
          ],
          "internalType": "struct EtherNFTPlace.MarketItem[]",
          "name": "",
          "type": "tuple[]"
        }
      ],
      "stateMutability": "view",
      "type": "function"
    },
    {
      "inputs": [],
      "name": "fetchMyCollections",
      "outputs": [
        {
          "components": [
            {
              "internalType": "uint256",
              "name": "collectionId",
              "type": "uint256"
            },
            {
              "internalType": "address",
              "name": "owner",
              "type": "address"
            },
            {
              "internalType": "string",
              "name": "collectionURI",
              "type": "string"
            }
          ],
          "internalType": "struct EtherNFTPlace.Collection[]",
          "name": "",
          "type": "tuple[]"
        }
      ],
      "stateMutability": "view",
      "type": "function"
    },
    {
      "inputs": [
        {
          "internalType": "uint256",
          "name": "collectionId",
          "type": "uint256"
        }
      ],
      "name": "fetchMyNFTsByCollection",
      "outputs": [
        {
          "components": [
            {
              "internalType": "uint256",
              "name": "tokenId",
              "type": "uint256"
            },
            {
              "internalType": "address",
              "name": "owner",
              "type": "address"
            },
            {
              "internalType": "uint256",
              "name": "collectionId",
              "type": "uint256"
            },
            {
              "internalType": "uint256",
              "name": "price",
              "type": "uint256"
            }
          ],
          "internalType": "struct EtherNFTPlace.NFT[]",
          "name": "",
          "type": "tuple[]"
        }
      ],
      "stateMutability": "view",
      "type": "function"
    },
    {
      "inputs": [
        {
          "internalType": "uint256",
          "name": "tokenId",
          "type": "uint256"
        }
      ],
      "name": "fetchNFTDetails",
      "outputs": [
        {
          "components": [
            {
              "internalType": "uint256",
              "name": "tokenId",
              "type": "uint256"
            },
            {
              "internalType": "address",
              "name": "owner",
              "type": "address"
            },
            {
              "internalType": "uint256",
              "name": "collectionId",
              "type": "uint256"
            },
            {
              "internalType": "uint256",
              "name": "price",
              "type": "uint256"
            }
          ],
          "internalType": "struct EtherNFTPlace.NFT",
          "name": "",
          "type": "tuple"
        }
      ],
      "stateMutability": "view",
      "type": "function"
    },
    {
      "inputs": [
        {
          "internalType": "uint256",
          "name": "tokenId",
          "type": "uint256"
        }
      ],
      "name": "getApproved",
      "outputs": [
        {
          "internalType": "address",
          "name": "",
          "type": "address"
        }
      ],
      "stateMutability": "view",
      "type": "function"
    },
    {
      "inputs": [],
      "name": "getListingPrice",
      "outputs": [
        {
          "internalType": "uint256",
          "name": "",
          "type": "uint256"
        }
      ],
      "stateMutability": "view",
      "type": "function"
    },
    {
      "inputs": [
        {
          "internalType": "address",
          "name": "owner",
          "type": "address"
        },
        {
          "internalType": "address",
          "name": "operator",
          "type": "address"
        }
      ],
      "name": "isApprovedForAll",
      "outputs": [
        {
          "internalType": "bool",
          "name": "",
          "type": "bool"
        }
      ],
      "stateMutability": "view",
      "type": "function"
    },
    {
      "inputs": [],
      "name": "name",
      "outputs": [
        {
          "internalType": "string",
          "name": "",
          "type": "string"
        }
      ],
      "stateMutability": "view",
      "type": "function"
    },
    {
      "inputs": [
        {
          "internalType": "uint256",
          "name": "tokenId",
          "type": "uint256"
        }
      ],
      "name": "ownerOf",
      "outputs": [
        {
          "internalType": "address",
          "name": "",
          "type": "address"
        }
      ],
      "stateMutability": "view",
      "type": "function"
    },
    {
      "inputs": [
        {
          "internalType": "uint256",
          "name": "tokenId",
          "type": "uint256"
        },
        {
          "internalType": "uint256",
          "name": "price",
          "type": "uint256"
        }
      ],
      "name": "resellNFT",
      "outputs": [],
      "stateMutability": "payable",
      "type": "function"
    },
    {
      "inputs": [
        {
          "internalType": "address",
          "name": "from",
          "type": "address"
        },
        {
          "internalType": "address",
          "name": "to",
          "type": "address"
        },
        {
          "internalType": "uint256",
          "name": "tokenId",
          "type": "uint256"
        }
      ],
      "name": "safeTransferFrom",
      "outputs": [],
      "stateMutability": "nonpayable",
      "type": "function"
    },
    {
      "inputs": [
        {
          "internalType": "address",
          "name": "from",
          "type": "address"
        },
        {
          "internalType": "address",
          "name": "to",
          "type": "address"
        },
        {
          "internalType": "uint256",
          "name": "tokenId",
          "type": "uint256"
        },
        {
          "internalType": "bytes",
          "name": "data",
          "type": "bytes"
        }
      ],
      "name": "safeTransferFrom",
      "outputs": [],
      "stateMutability": "nonpayable",
      "type": "function"
    },
    {
      "inputs": [
        {
          "internalType": "address",
          "name": "operator",
          "type": "address"
        },
        {
          "internalType": "bool",
          "name": "approved",
          "type": "bool"
        }
      ],
      "name": "setApprovalForAll",
      "outputs": [],
      "stateMutability": "nonpayable",
      "type": "function"
    },
    {
      "inputs": [
        {
          "internalType": "bytes4",
          "name": "interfaceId",
          "type": "bytes4"
        }
      ],
      "name": "supportsInterface",
      "outputs": [
        {
          "internalType": "bool",
          "name": "",
          "type": "bool"
        }
      ],
      "stateMutability": "view",
      "type": "function"
    },
    {
      "inputs": [],
      "name": "symbol",
      "outputs": [
        {
          "internalType": "string",
          "name": "",
          "type": "string"
        }
      ],
      "stateMutability": "view",
      "type": "function"
    },
    {
      "inputs": [
        {
          "internalType": "uint256",
          "name": "tokenId",
          "type": "uint256"
        }
      ],
      "name": "tokenURI",
      "outputs": [
        {
          "internalType": "string",
          "name": "",
          "type": "string"
        }
      ],
      "stateMutability": "view",
      "type": "function"
    },
    {
      "inputs": [
        {
          "internalType": "address",
          "name": "from",
          "type": "address"
        },
        {
          "internalType": "address",
          "name": "to",
          "type": "address"
        },
        {
          "internalType": "uint256",
          "name": "tokenId",
          "type": "uint256"
        }
      ],
      "name": "transferFrom",
      "outputs": [],
      "stateMutability": "nonpayable",
      "type": "function"
    },
    {
      "inputs": [
        {
          "internalType": "uint256",
          "name": "collectionId",
          "type": "uint256"
        },
        {
          "internalType": "uint256[]",
          "name": "selectedNFTs",
          "type": "uint256[]"
        },
        {
          "internalType": "string",
          "name": "_newCollectionURI",
          "type": "string"
        }
      ],
      "name": "updateCollection",
      "outputs": [],
      "stateMutability": "nonpayable",
      "type": "function"
    },
    {
      "inputs": [
        {
          "internalType": "uint256",
          "name": "_listingPrice",
          "type": "uint256"
        }
      ],
      "name": "updateListingPrice",
      "outputs": [],
      "stateMutability": "payable",
      "type": "function"
    }
  ],
  "bytecode": "0x60806040526658d15e17628000600a553480156200001c57600080fd5b506040518060400160405280601081526020017f4d657461766572736520546f6b656e73000000000000000000000000000000008152506040518060400160405280600481526020017f4d4554540000000000000000000000000000000000000000000000000000000081525081600090816200009a919062000370565b508060019081620000ac919062000370565b50505033600b60006101000a81548173ffffffffffffffffffffffffffffffffffffffff021916908373ffffffffffffffffffffffffffffffffffffffff16021790555062000457565b600081519050919050565b7f4e487b7100000000000000000000000000000000000000000000000000000000600052604160045260246000fd5b7f4e487b7100000000000000000000000000000000000000000000000000000000600052602260045260246000fd5b600060028204905060018216806200017857607f821691505b6020821081036200018e576200018d62000130565b5b50919050565b60008190508160005260206000209050919050565b60006020601f8301049050919050565b600082821b905092915050565b600060088302620001f87fffffffffffffffffffffffffffffffffffffffffffffffffffffffffffffffff82620001b9565b620002048683620001b9565b95508019841693508086168417925050509392505050565b6000819050919050565b6000819050919050565b6000620002516200024b62000245846200021c565b62000226565b6200021c565b9050919050565b6000819050919050565b6200026d8362000230565b620002856200027c8262000258565b848454620001c6565b825550505050565b600090565b6200029c6200028d565b620002a981848462000262565b505050565b5b81811015620002d157620002c560008262000292565b600181019050620002af565b5050565b601f8211156200032057620002ea8162000194565b620002f584620001a9565b8101602085101562000305578190505b6200031d6200031485620001a9565b830182620002ae565b50505b505050565b600082821c905092915050565b6000620003456000198460080262000325565b1980831691505092915050565b600062000360838362000332565b9150826002028217905092915050565b6200037b82620000f6565b67ffffffffffffffff81111562000397576200039662000101565b5b620003a382546200015f565b620003b0828285620002d5565b600060209050601f831160018114620003e85760008415620003d3578287015190505b620003df858262000352565b8655506200044f565b601f198416620003f88662000194565b60005b828110156200042257848901518255600182019150602085019450602081019050620003fb565b868310156200044257848901516200043e601f89168262000332565b8355505b6001600288020188555050505b505050505050565b61546a80620004676000396000f3fe6080604052600436106101665760003560e01c80636a3bf9dd116100d1578063ae677aa31161008a578063bec2a7c511610064578063bec2a7c514610537578063c87b56dd14610567578063e985e9c5146105a4578063ed634358146105e157610166565b8063ae677aa3146104d6578063b88d4fde146104f2578063be9af5361461051b57610166565b80636a3bf9dd146103c157806370a08231146103fe57806395d89b411461043b578063a22cb46514610466578063a280d6c81461048f578063ac3dfc73146104ba57610166565b806323b872dd1161012357806323b872dd1461028f5780632af505e2146102b85780632b22a509146102f55780633eb2a2051461031e57806342842e0e1461035b5780636352211e1461038457610166565b806301ffc9a71461016b57806306fdde03146101a8578063081812fc146101d3578063095ea7b3146102105780630f08efe01461023957806312e8558514610264575b600080fd5b34801561017757600080fd5b50610192600480360381019061018d9190613542565b61060a565b60405161019f919061358a565b60405180910390f35b3480156101b457600080fd5b506101bd61066b565b6040516101ca9190613635565b60405180910390f35b3480156101df57600080fd5b506101fa60048036038101906101f5919061368d565b6106fd565b60405161020791906136fb565b60405180910390f35b34801561021c57600080fd5b5061023760048036038101906102329190613742565b610743565b005b34801561024557600080fd5b5061024e61085a565b60405161025b91906138d8565b60405180910390f35b34801561027057600080fd5b50610279610ac6565b6040516102869190613909565b60405180910390f35b34801561029b57600080fd5b506102b660048036038101906102b19190613924565b610ad0565b005b3480156102c457600080fd5b506102df60048036038101906102da919061368d565b610b30565b6040516102ec9190613a20565b60405180910390f35b34801561030157600080fd5b5061031c60048036038101906103179190613c3f565b610c4f565b005b34801561032a57600080fd5b506103456004803603810190610340919061368d565b610ee1565b6040516103529190613dbb565b60405180910390f35b34801561036757600080fd5b50610382600480360381019061037d9190613924565b611182565b005b34801561039057600080fd5b506103ab60048036038101906103a6919061368d565b6111a2565b6040516103b891906136fb565b60405180910390f35b3480156103cd57600080fd5b506103e860048036038101906103e3919061368d565b611228565b6040516103f59190613e32565b60405180910390f35b34801561040a57600080fd5b5061042560048036038101906104209190613e4d565b611317565b6040516104329190613909565b60405180910390f35b34801561044757600080fd5b506104506113ce565b60405161045d9190613635565b60405180910390f35b34801561047257600080fd5b5061048d60048036038101906104889190613ea6565b611460565b005b34801561049b57600080fd5b506104a4611476565b6040516104b19190613ff8565b60405180910390f35b6104d460048036038101906104cf919061401a565b611779565b005b6104f060048036038101906104eb919061368d565b611a82565b005b3480156104fe57600080fd5b50610519600480360381019061051491906140fb565b611b1c565b005b6105356004803603810190610530919061368d565b611b7e565b005b610551600480360381019061054c919061417e565b611e0b565b60405161055e9190613909565b60405180910390f35b34801561057357600080fd5b5061058e6004803603810190610589919061368d565b611f32565b60405161059b9190613635565b60405180910390f35b3480156105b057600080fd5b506105cb60048036038101906105c691906141ed565b612044565b6040516105d8919061358a565b60405180910390f35b3480156105ed57600080fd5b506106086004803603810190610603919061422d565b6120d8565b005b6000634906490660e01b7bffffffffffffffffffffffffffffffffffffffffffffffffffffffff1916827bffffffffffffffffffffffffffffffffffffffffffffffffffffffff19161480610664575061066382612441565b5b9050919050565b60606000805461067a906142e7565b80601f01602080910402602001604051908101604052809291908181526020018280546106a6906142e7565b80156106f35780601f106106c8576101008083540402835291602001916106f3565b820191906000526020600020905b8154815290600101906020018083116106d657829003601f168201915b5050505050905090565b600061070882612523565b6004600083815260200190815260200160002060009054906101000a900473ffffffffffffffffffffffffffffffffffffffff169050919050565b600061074e826111a2565b90508073ffffffffffffffffffffffffffffffffffffffff168373ffffffffffffffffffffffffffffffffffffffff16036107be576040517f08c379a00000000000000000000000000000000000000000000000000000000081526004016107b59061438a565b60405180910390fd5b8073ffffffffffffffffffffffffffffffffffffffff166107dd61256e565b73ffffffffffffffffffffffffffffffffffffffff16148061080c575061080b8161080661256e565b612044565b5b61084b576040517f08c379a00000000000000000000000000000000000000000000000000000000081526004016108429061441c565b60405180910390fd5b6108558383612576565b505050565b60606000610868600761262f565b90506000610876600961262f565b610880600761262f565b61088a919061446b565b90506000808267ffffffffffffffff8111156108a9576108a8613a4c565b5b6040519080825280602002602001820160405280156108e257816020015b6108cf613404565b8152602001906001900390816108c75790505b5090506000600190505b84811015610abb573073ffffffffffffffffffffffffffffffffffffffff16600e600060018461091c919061449f565b815260200190815260200160002060020160009054906101000a900473ffffffffffffffffffffffffffffffffffffffff1673ffffffffffffffffffffffffffffffffffffffff1603610aa8576000600182610978919061449f565b90506000600e60008381526020019081526020016000209050806040518060a0016040529081600082015481526020016001820160009054906101000a900473ffffffffffffffffffffffffffffffffffffffff1673ffffffffffffffffffffffffffffffffffffffff1673ffffffffffffffffffffffffffffffffffffffff1681526020016002820160009054906101000a900473ffffffffffffffffffffffffffffffffffffffff1673ffffffffffffffffffffffffffffffffffffffff1673ffffffffffffffffffffffffffffffffffffffff168152602001600382015481526020016004820160009054906101000a900460ff161515151581525050848681518110610a8b57610a8a6144d3565b5b6020026020010181905250600185610aa3919061449f565b945050505b8080610ab390614502565b9150506108ec565b508094505050505090565b6000600a54905090565b610ae1610adb61256e565b8261263d565b610b20576040517f08c379a0000000000000000000000000000000000000000000000000000000008152600401610b17906145bc565b60405180910390fd5b610b2b8383836126d2565b505050565b610b38613461565b600c6000838152602001908152602001600020604051806060016040529081600082015481526020016001820160009054906101000a900473ffffffffffffffffffffffffffffffffffffffff1673ffffffffffffffffffffffffffffffffffffffff1673ffffffffffffffffffffffffffffffffffffffff168152602001600282018054610bc6906142e7565b80601f0160208091040260200160405190810160405280929190818152602001828054610bf2906142e7565b8015610c3f5780601f10610c1457610100808354040283529160200191610c3f565b820191906000526020600020905b815481529060010190602001808311610c2257829003601f168201915b5050505050815250509050919050565b610c5960086129cb565b6000610c65600861262f565b905060405180606001604052808281526020013373ffffffffffffffffffffffffffffffffffffffff16815260200184815250600c60008381526020019081526020016000206000820151816000015560208201518160010160006101000a81548173ffffffffffffffffffffffffffffffffffffffff021916908373ffffffffffffffffffffffffffffffffffffffff1602179055506040820151816002019081610d119190614788565b50905050807fb0b7b214963f2e16da9cf6ed5851757dfed306875edf1d59e030881102ef24ef3385604051610d4792919061485a565b60405180910390a2600082511115610edc5760005b8251811015610e9f576000838281518110610d7a57610d796144d3565b5b60200260200101519050610d8d816129e1565b610dcc576040517f08c379a0000000000000000000000000000000000000000000000000000000008152600401610dc3906148d6565b60405180910390fd5b3373ffffffffffffffffffffffffffffffffffffffff16600d600083815260200190815260200160002060010160009054906101000a900473ffffffffffffffffffffffffffffffffffffffff1673ffffffffffffffffffffffffffffffffffffffff1614610e70576040517f08c379a0000000000000000000000000000000000000000000000000000000008152600401610e6790614942565b60405180910390fd5b82600d600083815260200190815260200160002060020181905550508080610e9790614502565b915050610d5c565b507fe40078c1a0c35f7a31b6bc2fffcb1efa8c74af25b8868f94619a0afa890b031b823383604051610ed393929190614a11565b60405180910390a15b505050565b60606000610eef600761262f565b905060008060005b838111610fab5785600d600083815260200190815260200160002060020154148015610f8457503373ffffffffffffffffffffffffffffffffffffffff16600d600083815260200190815260200160002060010160009054906101000a900473ffffffffffffffffffffffffffffffffffffffff1673ffffffffffffffffffffffffffffffffffffffff16145b15610f98578280610f9490614502565b9350505b8080610fa390614502565b915050610ef7565b5060008267ffffffffffffffff811115610fc857610fc7613a4c565b5b60405190808252806020026020018201604052801561100157816020015b610fee613498565b815260200190600190039081610fe65790505b5090506000600190505b8481116111755786600d60008381526020019081526020016000206002015414801561109857503373ffffffffffffffffffffffffffffffffffffffff16600d600083815260200190815260200160002060010160009054906101000a900473ffffffffffffffffffffffffffffffffffffffff1673ffffffffffffffffffffffffffffffffffffffff16145b15611162576000600d6000838152602001908152602001600020905080604051806080016040529081600082015481526020016001820160009054906101000a900473ffffffffffffffffffffffffffffffffffffffff1673ffffffffffffffffffffffffffffffffffffffff1673ffffffffffffffffffffffffffffffffffffffff16815260200160028201548152602001600382015481525050838581518110611147576111466144d3565b5b6020026020010181905250838061115d90614502565b945050505b808061116d90614502565b91505061100b565b5080945050505050919050565b61119d83838360405180602001604052806000815250611b1c565b505050565b6000806111ae83612a22565b9050600073ffffffffffffffffffffffffffffffffffffffff168173ffffffffffffffffffffffffffffffffffffffff160361121f576040517f08c379a000000000000000000000000000000000000000000000000000000000815260040161121690614a9b565b60405180910390fd5b80915050919050565b611230613498565b611239826129e1565b611278576040517f08c379a000000000000000000000000000000000000000000000000000000000815260040161126f906148d6565b60405180910390fd5b6000600d6000848152602001908152602001600020604051806080016040529081600082015481526020016001820160009054906101000a900473ffffffffffffffffffffffffffffffffffffffff1673ffffffffffffffffffffffffffffffffffffffff1673ffffffffffffffffffffffffffffffffffffffff16815260200160028201548152602001600382015481525050905080915050919050565b60008073ffffffffffffffffffffffffffffffffffffffff168273ffffffffffffffffffffffffffffffffffffffff1603611387576040517f08c379a000000000000000000000000000000000000000000000000000000000815260040161137e90614b2d565b60405180910390fd5b600360008373ffffffffffffffffffffffffffffffffffffffff1673ffffffffffffffffffffffffffffffffffffffff168152602001908152602001600020549050919050565b6060600180546113dd906142e7565b80601f0160208091040260200160405190810160405280929190818152602001828054611409906142e7565b80156114565780601f1061142b57610100808354040283529160200191611456565b820191906000526020600020905b81548152906001019060200180831161143957829003601f168201915b5050505050905090565b61147261146b61256e565b8383612a5f565b5050565b60606000611484600861262f565b905060008060005b8381101561152c573373ffffffffffffffffffffffffffffffffffffffff16600c60006001846114bc919061449f565b815260200190815260200160002060010160009054906101000a900473ffffffffffffffffffffffffffffffffffffffff1673ffffffffffffffffffffffffffffffffffffffff160361151957600183611516919061449f565b92505b808061152490614502565b91505061148c565b5060008267ffffffffffffffff81111561154957611548613a4c565b5b60405190808252806020026020018201604052801561158257816020015b61156f613461565b8152602001906001900390816115675790505b50905060005b8481101561176e573373ffffffffffffffffffffffffffffffffffffffff16600c60006001846115b8919061449f565b815260200190815260200160002060010160009054906101000a900473ffffffffffffffffffffffffffffffffffffffff1673ffffffffffffffffffffffffffffffffffffffff160361175b576000600182611614919061449f565b90506000600c6000838152602001908152602001600020604051806060016040529081600082015481526020016001820160009054906101000a900473ffffffffffffffffffffffffffffffffffffffff1673ffffffffffffffffffffffffffffffffffffffff1673ffffffffffffffffffffffffffffffffffffffff1681526020016002820180546116a6906142e7565b80601f01602080910402602001604051908101604052809291908181526020018280546116d2906142e7565b801561171f5780601f106116f45761010080835404028352916020019161171f565b820191906000526020600020905b81548152906001019060200180831161170257829003601f168201915b50505050508152505090508084868151811061173e5761173d6144d3565b5b6020026020010181905250600185611756919061449f565b945050505b808061176690614502565b915050611588565b508094505050505090565b3373ffffffffffffffffffffffffffffffffffffffff16600e600084815260200190815260200160002060020160009054906101000a900473ffffffffffffffffffffffffffffffffffffffff1673ffffffffffffffffffffffffffffffffffffffff161461181d576040517f08c379a000000000000000000000000000000000000000000000000000000000815260040161181490614bbf565b60405180910390fd5b3373ffffffffffffffffffffffffffffffffffffffff16600d600084815260200190815260200160002060010160009054906101000a900473ffffffffffffffffffffffffffffffffffffffff1673ffffffffffffffffffffffffffffffffffffffff16146118c1576040517f08c379a00000000000000000000000000000000000000000000000000000000081526004016118b890614bbf565b60405180910390fd5b600a543414611905576040517f08c379a00000000000000000000000000000000000000000000000000000000081526004016118fc90614c51565b60405180910390fd5b30600d600084815260200190815260200160002060010160006101000a81548173ffffffffffffffffffffffffffffffffffffffff021916908373ffffffffffffffffffffffffffffffffffffffff16021790555080600d6000848152602001908152602001600020600301819055506000600e600084815260200190815260200160002060040160006101000a81548160ff02191690831515021790555080600e60008481526020019081526020016000206003018190555033600e600084815260200190815260200160002060010160006101000a81548173ffffffffffffffffffffffffffffffffffffffff021916908373ffffffffffffffffffffffffffffffffffffffff16021790555030600e600084815260200190815260200160002060020160006101000a81548173ffffffffffffffffffffffffffffffffffffffff021916908373ffffffffffffffffffffffffffffffffffffffff160217905550611a736009612bcb565b611a7e3330846126d2565b5050565b3373ffffffffffffffffffffffffffffffffffffffff16600b60009054906101000a900473ffffffffffffffffffffffffffffffffffffffff1673ffffffffffffffffffffffffffffffffffffffff1614611b12576040517f08c379a0000000000000000000000000000000000000000000000000000000008152600401611b0990614ce3565b60405180910390fd5b80600a8190555050565b611b2d611b2761256e565b8361263d565b611b6c576040517f08c379a0000000000000000000000000000000000000000000000000000000008152600401611b63906145bc565b60405180910390fd5b611b7884848484612c27565b50505050565b6000600e6000838152602001908152602001600020600301549050803414611bdb576040517f08c379a0000000000000000000000000000000000000000000000000000000008152600401611bd290614d75565b60405180910390fd5b33600d600084815260200190815260200160002060010160006101000a81548173ffffffffffffffffffffffffffffffffffffffff021916908373ffffffffffffffffffffffffffffffffffffffff16021790555033600e600084815260200190815260200160002060020160006101000a81548173ffffffffffffffffffffffffffffffffffffffff021916908373ffffffffffffffffffffffffffffffffffffffff1602179055506001600e600084815260200190815260200160002060040160006101000a81548160ff0219169083151502179055506000600e600084815260200190815260200160002060010160006101000a81548173ffffffffffffffffffffffffffffffffffffffff021916908373ffffffffffffffffffffffffffffffffffffffff160217905550611d1460096129cb565b611d1f3033846126d2565b600b60009054906101000a900473ffffffffffffffffffffffffffffffffffffffff1673ffffffffffffffffffffffffffffffffffffffff166108fc600a549081150290604051600060405180830381858888f19350505050158015611d89573d6000803e3d6000fd5b50600e600083815260200190815260200160002060010160009054906101000a900473ffffffffffffffffffffffffffffffffffffffff1673ffffffffffffffffffffffffffffffffffffffff166108fc349081150290604051600060405180830381858888f19350505050158015611e06573d6000803e3d6000fd5b505050565b6000611e1760076129cb565b6000611e23600761262f565b9050611e2f3382612c83565b611e398186612ea0565b60405180608001604052808281526020013373ffffffffffffffffffffffffffffffffffffffff16815260200185815260200184815250600d60008381526020019081526020016000206000820151816000015560208201518160010160006101000a81548173ffffffffffffffffffffffffffffffffffffffff021916908373ffffffffffffffffffffffffffffffffffffffff1602179055506040820151816002015560608201518160030155905050807f23cbb18bfb096672f2fc538a6d637483d9db0f85666ae980eba20ae2874da1a4338686604051611f1f93929190614d95565b60405180910390a2809150509392505050565b6060611f3d82612523565b6000600660008481526020019081526020016000208054611f5d906142e7565b80601f0160208091040260200160405190810160405280929190818152602001828054611f89906142e7565b8015611fd65780601f10611fab57610100808354040283529160200191611fd6565b820191906000526020600020905b815481529060010190602001808311611fb957829003601f168201915b505050505090506000611fe7612f44565b90506000815103611ffc57819250505061203f565b600082511115612031578082604051602001612019929190614e08565b6040516020818303038152906040529250505061203f565b61203a84612f5b565b925050505b919050565b6000600560008473ffffffffffffffffffffffffffffffffffffffff1673ffffffffffffffffffffffffffffffffffffffff16815260200190815260200160002060008373ffffffffffffffffffffffffffffffffffffffff1673ffffffffffffffffffffffffffffffffffffffff16815260200190815260200160002060009054906101000a900460ff16905092915050565b3373ffffffffffffffffffffffffffffffffffffffff16600c600085815260200190815260200160002060010160009054906101000a900473ffffffffffffffffffffffffffffffffffffffff1673ffffffffffffffffffffffffffffffffffffffff161461217c576040517f08c379a000000000000000000000000000000000000000000000000000000000815260040161217390614e78565b60405180910390fd5b6000600f6000858152602001908152602001600020905081600c600086815260200190815260200160002060020190816121b69190614788565b50837fc96b737485b93f5411fcc8444621944a2e03644f957e268c6affb0a2bd3b84bf33846040516121e992919061485a565b60405180910390a260008351111561243b5760005b83518110156123fe57600084828151811061221c5761221b6144d3565b5b6020026020010151905061222f816129e1565b61226e576040517f08c379a0000000000000000000000000000000000000000000000000000000008152600401612265906148d6565b60405180910390fd5b3373ffffffffffffffffffffffffffffffffffffffff16600d600083815260200190815260200160002060010160009054906101000a900473ffffffffffffffffffffffffffffffffffffffff1673ffffffffffffffffffffffffffffffffffffffff1614612312576040517f08c379a000000000000000000000000000000000000000000000000000000000815260040161230990614942565b60405180910390fd5b85600d6000838152602001908152602001600020600201541461236a576040517f08c379a000000000000000000000000000000000000000000000000000000000815260040161236190614f0a565b60405180910390fd5b6000805b84805490508110156123ba578285828154811061238e5761238d6144d3565b5b9060005260206000200154036123a757600191506123ba565b80806123b290614502565b91505061236e565b50806123e957838290806001815401808255809150506001900390600052602060002001600090919091909150555b505080806123f690614502565b9150506121fe565b507fe40078c1a0c35f7a31b6bc2fffcb1efa8c74af25b8868f94619a0afa890b031b83338660405161243293929190614a11565b60405180910390a15b50505050565b60007f80ac58cd000000000000000000000000000000000000000000000000000000007bffffffffffffffffffffffffffffffffffffffffffffffffffffffff1916827bffffffffffffffffffffffffffffffffffffffffffffffffffffffff1916148061250c57507f5b5e139f000000000000000000000000000000000000000000000000000000007bffffffffffffffffffffffffffffffffffffffffffffffffffffffff1916827bffffffffffffffffffffffffffffffffffffffffffffffffffffffff1916145b8061251c575061251b82612fc3565b5b9050919050565b61252c816129e1565b61256b576040517f08c379a000000000000000000000000000000000000000000000000000000000815260040161256290614a9b565b60405180910390fd5b50565b600033905090565b816004600083815260200190815260200160002060006101000a81548173ffffffffffffffffffffffffffffffffffffffff021916908373ffffffffffffffffffffffffffffffffffffffff160217905550808273ffffffffffffffffffffffffffffffffffffffff166125e9836111a2565b73ffffffffffffffffffffffffffffffffffffffff167f8c5be1e5ebec7d5bd14f71427d1e84f3dd0314c0f7b2291e5b200ac8c7c3b92560405160405180910390a45050565b600081600001549050919050565b600080612649836111a2565b90508073ffffffffffffffffffffffffffffffffffffffff168473ffffffffffffffffffffffffffffffffffffffff16148061268b575061268a8185612044565b5b806126c957508373ffffffffffffffffffffffffffffffffffffffff166126b1846106fd565b73ffffffffffffffffffffffffffffffffffffffff16145b91505092915050565b8273ffffffffffffffffffffffffffffffffffffffff166126f2826111a2565b73ffffffffffffffffffffffffffffffffffffffff1614612748576040517f08c379a000000000000000000000000000000000000000000000000000000000815260040161273f90614f9c565b60405180910390fd5b600073ffffffffffffffffffffffffffffffffffffffff168273ffffffffffffffffffffffffffffffffffffffff16036127b7576040517f08c379a00000000000000000000000000000000000000000000000000000000081526004016127ae9061502e565b60405180910390fd5b6127c4838383600161302d565b8273ffffffffffffffffffffffffffffffffffffffff166127e4826111a2565b73ffffffffffffffffffffffffffffffffffffffff161461283a576040517f08c379a000000000000000000000000000000000000000000000000000000000815260040161283190614f9c565b60405180910390fd5b6004600082815260200190815260200160002060006101000a81549073ffffffffffffffffffffffffffffffffffffffff02191690556001600360008573ffffffffffffffffffffffffffffffffffffffff1673ffffffffffffffffffffffffffffffffffffffff168152602001908152602001600020600082825403925050819055506001600360008473ffffffffffffffffffffffffffffffffffffffff1673ffffffffffffffffffffffffffffffffffffffff16815260200190815260200160002060008282540192505081905550816002600083815260200190815260200160002060006101000a81548173ffffffffffffffffffffffffffffffffffffffff021916908373ffffffffffffffffffffffffffffffffffffffff160217905550808273ffffffffffffffffffffffffffffffffffffffff168473ffffffffffffffffffffffffffffffffffffffff167fddf252ad1be2c89b69c2b068fc378daa952ba7f163c4a11628f55a4df523b3ef60405160405180910390a46129c68383836001613033565b505050565b6001816000016000828254019250508190555050565b60008073ffffffffffffffffffffffffffffffffffffffff16612a0383612a22565b73ffffffffffffffffffffffffffffffffffffffff1614159050919050565b60006002600083815260200190815260200160002060009054906101000a900473ffffffffffffffffffffffffffffffffffffffff169050919050565b8173ffffffffffffffffffffffffffffffffffffffff168373ffffffffffffffffffffffffffffffffffffffff1603612acd576040517f08c379a0000000000000000000000000000000000000000000000000000000008152600401612ac49061509a565b60405180910390fd5b80600560008573ffffffffffffffffffffffffffffffffffffffff1673ffffffffffffffffffffffffffffffffffffffff16815260200190815260200160002060008473ffffffffffffffffffffffffffffffffffffffff1673ffffffffffffffffffffffffffffffffffffffff16815260200190815260200160002060006101000a81548160ff0219169083151502179055508173ffffffffffffffffffffffffffffffffffffffff168373ffffffffffffffffffffffffffffffffffffffff167f17307eab39ab6107e8899845ad3d59bd9653f200f220920489ca2b5937696c3183604051612bbe919061358a565b60405180910390a3505050565b60008160000154905060008111612c17576040517f08c379a0000000000000000000000000000000000000000000000000000000008152600401612c0e90615106565b60405180910390fd5b6001810382600001819055505050565b612c328484846126d2565b612c3e84848484613039565b612c7d576040517f08c379a0000000000000000000000000000000000000000000000000000000008152600401612c7490615198565b60405180910390fd5b50505050565b600073ffffffffffffffffffffffffffffffffffffffff168273ffffffffffffffffffffffffffffffffffffffff1603612cf2576040517f08c379a0000000000000000000000000000000000000000000000000000000008152600401612ce990615204565b60405180910390fd5b612cfb816129e1565b15612d3b576040517f08c379a0000000000000000000000000000000000000000000000000000000008152600401612d3290615270565b60405180910390fd5b612d4960008383600161302d565b612d52816129e1565b15612d92576040517f08c379a0000000000000000000000000000000000000000000000000000000008152600401612d8990615270565b60405180910390fd5b6001600360008473ffffffffffffffffffffffffffffffffffffffff1673ffffffffffffffffffffffffffffffffffffffff16815260200190815260200160002060008282540192505081905550816002600083815260200190815260200160002060006101000a81548173ffffffffffffffffffffffffffffffffffffffff021916908373ffffffffffffffffffffffffffffffffffffffff160217905550808273ffffffffffffffffffffffffffffffffffffffff16600073ffffffffffffffffffffffffffffffffffffffff167fddf252ad1be2c89b69c2b068fc378daa952ba7f163c4a11628f55a4df523b3ef60405160405180910390a4612e9c600083836001613033565b5050565b612ea9826129e1565b612ee8576040517f08c379a0000000000000000000000000000000000000000000000000000000008152600401612edf90615302565b60405180910390fd5b80600660008481526020019081526020016000209081612f089190614788565b507ff8e1a15aba9398e019f0b49df1a4fde98ee17ae345cb5f6b5e2c27f5033e8ce782604051612f389190613909565b60405180910390a15050565b606060405180602001604052806000815250905090565b6060612f6682612523565b6000612f70612f44565b90506000815111612f905760405180602001604052806000815250612fbb565b80612f9a846131c0565b604051602001612fab929190614e08565b6040516020818303038152906040525b915050919050565b60007f01ffc9a7000000000000000000000000000000000000000000000000000000007bffffffffffffffffffffffffffffffffffffffffffffffffffffffff1916827bffffffffffffffffffffffffffffffffffffffffffffffffffffffff1916149050919050565b50505050565b50505050565b600061305a8473ffffffffffffffffffffffffffffffffffffffff1661328e565b156131b3578373ffffffffffffffffffffffffffffffffffffffff1663150b7a0261308361256e565b8786866040518563ffffffff1660e01b81526004016130a59493929190615377565b6020604051808303816000875af19250505080156130e157506040513d601f19601f820116820180604052508101906130de91906153d8565b60015b613163573d8060008114613111576040519150601f19603f3d011682016040523d82523d6000602084013e613116565b606091505b50600081510361315b576040517f08c379a000000000000000000000000000000000000000000000000000000000815260040161315290615198565b60405180910390fd5b805181602001fd5b63150b7a0260e01b7bffffffffffffffffffffffffffffffffffffffffffffffffffffffff1916817bffffffffffffffffffffffffffffffffffffffffffffffffffffffff1916149150506131b8565b600190505b949350505050565b6060600060016131cf846132b1565b01905060008167ffffffffffffffff8111156131ee576131ed613a4c565b5b6040519080825280601f01601f1916602001820160405280156132205781602001600182028036833780820191505090505b509050600082602001820190505b600115613283578080600190039150507f3031323334353637383961626364656600000000000000000000000000000000600a86061a8153600a858161327757613276615405565b5b0494506000850361322e575b819350505050919050565b6000808273ffffffffffffffffffffffffffffffffffffffff163b119050919050565b600080600090507a184f03e93ff9f4daa797ed6e38ed64bf6a1f010000000000000000831061330f577a184f03e93ff9f4daa797ed6e38ed64bf6a1f010000000000000000838161330557613304615405565b5b0492506040810190505b6d04ee2d6d415b85acef8100000000831061334c576d04ee2d6d415b85acef8100000000838161334257613341615405565b5b0492506020810190505b662386f26fc10000831061337b57662386f26fc10000838161337157613370615405565b5b0492506010810190505b6305f5e10083106133a4576305f5e100838161339a57613399615405565b5b0492506008810190505b61271083106133c95761271083816133bf576133be615405565b5b0492506004810190505b606483106133ec57606483816133e2576133e1615405565b5b0492506002810190505b600a83106133fb576001810190505b80915050919050565b6040518060a0016040528060008152602001600073ffffffffffffffffffffffffffffffffffffffff168152602001600073ffffffffffffffffffffffffffffffffffffffff168152602001600081526020016000151581525090565b604051806060016040528060008152602001600073ffffffffffffffffffffffffffffffffffffffff168152602001606081525090565b604051806080016040528060008152602001600073ffffffffffffffffffffffffffffffffffffffff16815260200160008152602001600081525090565b6000604051905090565b600080fd5b600080fd5b60007fffffffff0000000000000000000000000000000000000000000000000000000082169050919050565b61351f816134ea565b811461352a57600080fd5b50565b60008135905061353c81613516565b92915050565b600060208284031215613558576135576134e0565b5b60006135668482850161352d565b91505092915050565b60008115159050919050565b6135848161356f565b82525050565b600060208201905061359f600083018461357b565b92915050565b600081519050919050565b600082825260208201905092915050565b60005b838110156135df5780820151818401526020810190506135c4565b60008484015250505050565b6000601f19601f8301169050919050565b6000613607826135a5565b61361181856135b0565b93506136218185602086016135c1565b61362a816135eb565b840191505092915050565b6000602082019050818103600083015261364f81846135fc565b905092915050565b6000819050919050565b61366a81613657565b811461367557600080fd5b50565b60008135905061368781613661565b92915050565b6000602082840312156136a3576136a26134e0565b5b60006136b184828501613678565b91505092915050565b600073ffffffffffffffffffffffffffffffffffffffff82169050919050565b60006136e5826136ba565b9050919050565b6136f5816136da565b82525050565b600060208201905061371060008301846136ec565b92915050565b61371f816136da565b811461372a57600080fd5b50565b60008135905061373c81613716565b92915050565b60008060408385031215613759576137586134e0565b5b60006137678582860161372d565b925050602061377885828601613678565b9150509250929050565b600081519050919050565b600082825260208201905092915050565b6000819050602082019050919050565b6137b781613657565b82525050565b60006137c8826136ba565b9050919050565b6137d8816137bd565b82525050565b6137e78161356f565b82525050565b60a08201600082015161380360008501826137ae565b50602082015161381660208501826137cf565b50604082015161382960408501826137cf565b50606082015161383c60608501826137ae565b50608082015161384f60808501826137de565b50505050565b600061386183836137ed565b60a08301905092915050565b6000602082019050919050565b600061388582613782565b61388f818561378d565b935061389a8361379e565b8060005b838110156138cb5781516138b28882613855565b97506138bd8361386d565b92505060018101905061389e565b5085935050505092915050565b600060208201905081810360008301526138f2818461387a565b905092915050565b61390381613657565b82525050565b600060208201905061391e60008301846138fa565b92915050565b60008060006060848603121561393d5761393c6134e0565b5b600061394b8682870161372d565b935050602061395c8682870161372d565b925050604061396d86828701613678565b9150509250925092565b613980816136da565b82525050565b600082825260208201905092915050565b60006139a2826135a5565b6139ac8185613986565b93506139bc8185602086016135c1565b6139c5816135eb565b840191505092915050565b60006060830160008301516139e860008601826137ae565b5060208301516139fb6020860182613977565b5060408301518482036040860152613a138282613997565b9150508091505092915050565b60006020820190508181036000830152613a3a81846139d0565b905092915050565b600080fd5b600080fd5b7f4e487b7100000000000000000000000000000000000000000000000000000000600052604160045260246000fd5b613a84826135eb565b810181811067ffffffffffffffff82111715613aa357613aa2613a4c565b5b80604052505050565b6000613ab66134d6565b9050613ac28282613a7b565b919050565b600067ffffffffffffffff821115613ae257613ae1613a4c565b5b613aeb826135eb565b9050602081019050919050565b82818337600083830152505050565b6000613b1a613b1584613ac7565b613aac565b905082815260208101848484011115613b3657613b35613a47565b5b613b41848285613af8565b509392505050565b600082601f830112613b5e57613b5d613a42565b5b8135613b6e848260208601613b07565b91505092915050565b600067ffffffffffffffff821115613b9257613b91613a4c565b5b602082029050602081019050919050565b600080fd5b6000613bbb613bb684613b77565b613aac565b90508083825260208201905060208402830185811115613bde57613bdd613ba3565b5b835b81811015613c075780613bf38882613678565b845260208401935050602081019050613be0565b5050509392505050565b600082601f830112613c2657613c25613a42565b5b8135613c36848260208601613ba8565b91505092915050565b60008060408385031215613c5657613c556134e0565b5b600083013567ffffffffffffffff811115613c7457613c736134e5565b5b613c8085828601613b49565b925050602083013567ffffffffffffffff811115613ca157613ca06134e5565b5b613cad85828601613c11565b9150509250929050565b600081519050919050565b600082825260208201905092915050565b6000819050602082019050919050565b608082016000820151613cf960008501826137ae565b506020820151613d0c6020850182613977565b506040820151613d1f60408501826137ae565b506060820151613d3260608501826137ae565b50505050565b6000613d448383613ce3565b60808301905092915050565b6000602082019050919050565b6000613d6882613cb7565b613d728185613cc2565b9350613d7d83613cd3565b8060005b83811015613dae578151613d958882613d38565b9750613da083613d50565b925050600181019050613d81565b5085935050505092915050565b60006020820190508181036000830152613dd58184613d5d565b905092915050565b608082016000820151613df360008501826137ae565b506020820151613e066020850182613977565b506040820151613e1960408501826137ae565b506060820151613e2c60608501826137ae565b50505050565b6000608082019050613e476000830184613ddd565b92915050565b600060208284031215613e6357613e626134e0565b5b6000613e718482850161372d565b91505092915050565b613e838161356f565b8114613e8e57600080fd5b50565b600081359050613ea081613e7a565b92915050565b60008060408385031215613ebd57613ebc6134e0565b5b6000613ecb8582860161372d565b9250506020613edc85828601613e91565b9150509250929050565b600081519050919050565b600082825260208201905092915050565b6000819050602082019050919050565b6000606083016000830151613f2a60008601826137ae565b506020830151613f3d6020860182613977565b5060408301518482036040860152613f558282613997565b9150508091505092915050565b6000613f6e8383613f12565b905092915050565b6000602082019050919050565b6000613f8e82613ee6565b613f988185613ef1565b935083602082028501613faa85613f02565b8060005b85811015613fe65784840389528151613fc78582613f62565b9450613fd283613f76565b925060208a01995050600181019050613fae565b50829750879550505050505092915050565b600060208201905081810360008301526140128184613f83565b905092915050565b60008060408385031215614031576140306134e0565b5b600061403f85828601613678565b925050602061405085828601613678565b9150509250929050565b600067ffffffffffffffff82111561407557614074613a4c565b5b61407e826135eb565b9050602081019050919050565b600061409e6140998461405a565b613aac565b9050828152602081018484840111156140ba576140b9613a47565b5b6140c5848285613af8565b509392505050565b600082601f8301126140e2576140e1613a42565b5b81356140f284826020860161408b565b91505092915050565b60008060008060808587031215614115576141146134e0565b5b60006141238782880161372d565b94505060206141348782880161372d565b935050604061414587828801613678565b925050606085013567ffffffffffffffff811115614166576141656134e5565b5b614172878288016140cd565b91505092959194509250565b600080600060608486031215614197576141966134e0565b5b600084013567ffffffffffffffff8111156141b5576141b46134e5565b5b6141c186828701613b49565b93505060206141d286828701613678565b92505060406141e386828701613678565b9150509250925092565b60008060408385031215614204576142036134e0565b5b60006142128582860161372d565b92505060206142238582860161372d565b9150509250929050565b600080600060608486031215614246576142456134e0565b5b600061425486828701613678565b935050602084013567ffffffffffffffff811115614275576142746134e5565b5b61428186828701613c11565b925050604084013567ffffffffffffffff8111156142a2576142a16134e5565b5b6142ae86828701613b49565b9150509250925092565b7f4e487b7100000000000000000000000000000000000000000000000000000000600052602260045260246000fd5b600060028204905060018216806142ff57607f821691505b602082108103614312576143116142b8565b5b50919050565b7f4552433732313a20617070726f76616c20746f2063757272656e74206f776e6560008201527f7200000000000000000000000000000000000000000000000000000000000000602082015250565b60006143746021836135b0565b915061437f82614318565b604082019050919050565b600060208201905081810360008301526143a381614367565b9050919050565b7f4552433732313a20617070726f76652063616c6c6572206973206e6f7420746f60008201527f6b656e206f776e6572206f7220617070726f76656420666f7220616c6c000000602082015250565b6000614406603d836135b0565b9150614411826143aa565b604082019050919050565b60006020820190508181036000830152614435816143f9565b9050919050565b7f4e487b7100000000000000000000000000000000000000000000000000000000600052601160045260246000fd5b600061447682613657565b915061448183613657565b92508282039050818111156144995761449861443c565b5b92915050565b60006144aa82613657565b91506144b583613657565b92508282019050808211156144cd576144cc61443c565b5b92915050565b7f4e487b7100000000000000000000000000000000000000000000000000000000600052603260045260246000fd5b600061450d82613657565b91507fffffffffffffffffffffffffffffffffffffffffffffffffffffffffffffffff820361453f5761453e61443c565b5b600182019050919050565b7f4552433732313a2063616c6c6572206973206e6f7420746f6b656e206f776e6560008201527f72206f7220617070726f76656400000000000000000000000000000000000000602082015250565b60006145a6602d836135b0565b91506145b18261454a565b604082019050919050565b600060208201905081810360008301526145d581614599565b9050919050565b60008190508160005260206000209050919050565b60006020601f8301049050919050565b600082821b905092915050565b60006008830261463e7fffffffffffffffffffffffffffffffffffffffffffffffffffffffffffffffff82614601565b6146488683614601565b95508019841693508086168417925050509392505050565b6000819050919050565b600061468561468061467b84613657565b614660565b613657565b9050919050565b6000819050919050565b61469f8361466a565b6146b36146ab8261468c565b84845461460e565b825550505050565b600090565b6146c86146bb565b6146d3818484614696565b505050565b5b818110156146f7576146ec6000826146c0565b6001810190506146d9565b5050565b601f82111561473c5761470d816145dc565b614716846145f1565b81016020851015614725578190505b614739614731856145f1565b8301826146d8565b50505b505050565b600082821c905092915050565b600061475f60001984600802614741565b1980831691505092915050565b6000614778838361474e565b9150826002028217905092915050565b614791826135a5565b67ffffffffffffffff8111156147aa576147a9613a4c565b5b6147b482546142e7565b6147bf8282856146fb565b600060209050601f8311600181146147f257600084156147e0578287015190505b6147ea858261476c565b865550614852565b601f198416614800866145dc565b60005b8281101561482857848901518255600182019150602085019450602081019050614803565b868310156148455784890151614841601f89168261474e565b8355505b6001600288020188555050505b505050505050565b600060408201905061486f60008301856136ec565b818103602083015261488181846135fc565b90509392505050565b7f4e465420646f6573206e6f742065786973740000000000000000000000000000600082015250565b60006148c06012836135b0565b91506148cb8261488a565b602082019050919050565b600060208201905081810360008301526148ef816148b3565b9050919050565b7f4e6f7420746865206f776e6572206f6620746865204e46540000000000000000600082015250565b600061492c6018836135b0565b9150614937826148f6565b602082019050919050565b6000602082019050818103600083015261495b8161491f565b9050919050565b600081519050919050565b600082825260208201905092915050565b6000819050602082019050919050565b600061499a83836137ae565b60208301905092915050565b6000602082019050919050565b60006149be82614962565b6149c8818561496d565b93506149d38361497e565b8060005b83811015614a045781516149eb888261498e565b97506149f6836149a6565b9250506001810190506149d7565b5085935050505092915050565b60006060820190508181036000830152614a2b81866149b3565b9050614a3a60208301856136ec565b614a4760408301846138fa565b949350505050565b7f4552433732313a20696e76616c696420746f6b656e2049440000000000000000600082015250565b6000614a856018836135b0565b9150614a9082614a4f565b602082019050919050565b60006020820190508181036000830152614ab481614a78565b9050919050565b7f4552433732313a2061646472657373207a65726f206973206e6f74206120766160008201527f6c6964206f776e65720000000000000000000000000000000000000000000000602082015250565b6000614b176029836135b0565b9150614b2282614abb565b604082019050919050565b60006020820190508181036000830152614b4681614b0a565b9050919050565b7f4f6e6c79206974656d206f776e65722063616e20706572666f726d207468697360008201527f206f7065726174696f6e00000000000000000000000000000000000000000000602082015250565b6000614ba9602a836135b0565b9150614bb482614b4d565b604082019050919050565b60006020820190508181036000830152614bd881614b9c565b9050919050565b7f5072696365206d757374206265207175616c20746f206c697374696e6720707260008201527f6963650000000000000000000000000000000000000000000000000000000000602082015250565b6000614c3b6023836135b0565b9150614c4682614bdf565b604082019050919050565b60006020820190508181036000830152614c6a81614c2e565b9050919050565b7f4f6e6c79206d61726b6574706c616365206f776e65722063616e20757064617460008201527f6520746865206c697374696e6720707269636500000000000000000000000000602082015250565b6000614ccd6033836135b0565b9150614cd882614c71565b604082019050919050565b60006020820190508181036000830152614cfc81614cc0565b9050919050565b7f506c65617365207375626d6974207468652061736b696e67207072696365206960008201527f6e206f7264657220746f20636f6d706c65746520746865207075726368617365602082015250565b6000614d5f6040836135b0565b9150614d6a82614d03565b604082019050919050565b60006020820190508181036000830152614d8e81614d52565b9050919050565b6000606082019050614daa60008301866136ec565b614db760208301856138fa565b614dc460408301846138fa565b949350505050565b600081905092915050565b6000614de2826135a5565b614dec8185614dcc565b9350614dfc8185602086016135c1565b80840191505092915050565b6000614e148285614dd7565b9150614e208284614dd7565b91508190509392505050565b7f4e6f7420746865206f776e6572206f662074686520636f6c6c656374696f6e00600082015250565b6000614e62601f836135b0565b9150614e6d82614e2c565b602082019050919050565b60006020820190508181036000830152614e9181614e55565b9050919050565b7f4e465420646f6573206e6f742062656c6f6e6720746f2074686520636f6c6c6560008201527f6374696f6e000000000000000000000000000000000000000000000000000000602082015250565b6000614ef46025836135b0565b9150614eff82614e98565b604082019050919050565b60006020820190508181036000830152614f2381614ee7565b9050919050565b7f4552433732313a207472616e736665722066726f6d20696e636f72726563742060008201527f6f776e6572000000000000000000000000000000000000000000000000000000602082015250565b6000614f866025836135b0565b9150614f9182614f2a565b604082019050919050565b60006020820190508181036000830152614fb581614f79565b9050919050565b7f4552433732313a207472616e7366657220746f20746865207a65726f2061646460008201527f7265737300000000000000000000000000000000000000000000000000000000602082015250565b60006150186024836135b0565b915061502382614fbc565b604082019050919050565b600060208201905081810360008301526150478161500b565b9050919050565b7f4552433732313a20617070726f766520746f2063616c6c657200000000000000600082015250565b60006150846019836135b0565b915061508f8261504e565b602082019050919050565b600060208201905081810360008301526150b381615077565b9050919050565b7f436f756e7465723a2064656372656d656e74206f766572666c6f770000000000600082015250565b60006150f0601b836135b0565b91506150fb826150ba565b602082019050919050565b6000602082019050818103600083015261511f816150e3565b9050919050565b7f4552433732313a207472616e7366657220746f206e6f6e20455243373231526560008201527f63656976657220696d706c656d656e7465720000000000000000000000000000602082015250565b60006151826032836135b0565b915061518d82615126565b604082019050919050565b600060208201905081810360008301526151b181615175565b9050919050565b7f4552433732313a206d696e7420746f20746865207a65726f2061646472657373600082015250565b60006151ee6020836135b0565b91506151f9826151b8565b602082019050919050565b6000602082019050818103600083015261521d816151e1565b9050919050565b7f4552433732313a20746f6b656e20616c7265616479206d696e74656400000000600082015250565b600061525a601c836135b0565b915061526582615224565b602082019050919050565b600060208201905081810360008301526152898161524d565b9050919050565b7f45524337323155524953746f726167653a2055524920736574206f66206e6f6e60008201527f6578697374656e7420746f6b656e000000000000000000000000000000000000602082015250565b60006152ec602e836135b0565b91506152f782615290565b604082019050919050565b6000602082019050818103600083015261531b816152df565b9050919050565b600081519050919050565b600082825260208201905092915050565b600061534982615322565b615353818561532d565b93506153638185602086016135c1565b61536c816135eb565b840191505092915050565b600060808201905061538c60008301876136ec565b61539960208301866136ec565b6153a660408301856138fa565b81810360608301526153b8818461533e565b905095945050505050565b6000815190506153d281613516565b92915050565b6000602082840312156153ee576153ed6134e0565b5b60006153fc848285016153c3565b91505092915050565b7f4e487b7100000000000000000000000000000000000000000000000000000000600052601260045260246000fdfea26469706673582212204ac9e249ffc192a7981527a521fe9e63f1b8ed75053a9f1665a7e536893b069c64736f6c63430008130033",
  "linkReferences": {},
  "deployedLinkReferences": {}
}