{
  "_format": "hh-sol-artifact-1",
  "contractName": "EtherNFTPlace",
  "sourceName": "contracts/EtherNFTPlace.sol",
  "abi": [
    {
      "inputs": [],
      "stateMutability": "nonpayable",
      "type": "constructor"
    },
    {
      "anonymous": false,
      "inputs": [
        {
          "indexed": true,
          "internalType": "address",
          "name": "owner",
          "type": "address"
        },
        {
          "indexed": true,
          "internalType": "address",
          "name": "approved",
          "type": "address"
        },
        {
          "indexed": true,
          "internalType": "uint256",
          "name": "tokenId",
          "type": "uint256"
        }
      ],
      "name": "Approval",
      "type": "event"
    },
    {
      "anonymous": false,
      "inputs": [
        {
          "indexed": true,
          "internalType": "address",
          "name": "owner",
          "type": "address"
        },
        {
          "indexed": true,
          "internalType": "address",
          "name": "operator",
          "type": "address"
        },
        {
          "indexed": false,
          "internalType": "bool",
          "name": "approved",
          "type": "bool"
        }
      ],
      "name": "ApprovalForAll",
      "type": "event"
    },
    {
      "anonymous": false,
      "inputs": [
        {
          "indexed": false,
          "internalType": "uint256",
          "name": "_fromTokenId",
          "type": "uint256"
        },
        {
          "indexed": false,
          "internalType": "uint256",
          "name": "_toTokenId",
          "type": "uint256"
        }
      ],
      "name": "BatchMetadataUpdate",
      "type": "event"
    },
    {
      "anonymous": false,
      "inputs": [
        {
          "indexed": true,
          "internalType": "uint256",
          "name": "collectionId",
          "type": "uint256"
        },
        {
          "indexed": false,
          "internalType": "address",
          "name": "owner",
          "type": "address"
        },
        {
          "indexed": false,
          "internalType": "string",
          "name": "collectionURI",
          "type": "string"
        }
      ],
      "name": "CollectionCreated",
      "type": "event"
    },
    {
      "anonymous": false,
      "inputs": [
        {
          "indexed": false,
          "internalType": "uint256",
          "name": "_tokenId",
          "type": "uint256"
        }
      ],
      "name": "MetadataUpdate",
      "type": "event"
    },
    {
      "anonymous": false,
      "inputs": [
        {
          "indexed": true,
          "internalType": "uint256",
          "name": "tokenId",
          "type": "uint256"
        },
        {
          "indexed": false,
          "internalType": "address",
          "name": "owner",
          "type": "address"
        },
        {
          "indexed": false,
          "internalType": "uint256",
          "name": "collectionId",
          "type": "uint256"
        }
      ],
      "name": "NFTCreated",
      "type": "event"
    },
    {
      "anonymous": false,
      "inputs": [
        {
          "indexed": true,
          "internalType": "address",
          "name": "from",
          "type": "address"
        },
        {
          "indexed": true,
          "internalType": "address",
          "name": "to",
          "type": "address"
        },
        {
          "indexed": true,
          "internalType": "uint256",
          "name": "tokenId",
          "type": "uint256"
        }
      ],
      "name": "Transfer",
      "type": "event"
    },
    {
      "inputs": [
        {
          "internalType": "address",
          "name": "to",
          "type": "address"
        },
        {
          "internalType": "uint256",
          "name": "tokenId",
          "type": "uint256"
        }
      ],
      "name": "approve",
      "outputs": [],
      "stateMutability": "nonpayable",
      "type": "function"
    },
    {
      "inputs": [
        {
          "internalType": "address",
          "name": "owner",
          "type": "address"
        }
      ],
      "name": "balanceOf",
      "outputs": [
        {
          "internalType": "uint256",
          "name": "",
          "type": "uint256"
        }
      ],
      "stateMutability": "view",
      "type": "function"
    },
    {
      "inputs": [
        {
          "internalType": "string",
          "name": "_collectionURI",
          "type": "string"
        }
      ],
      "name": "createCollection",
      "outputs": [],
      "stateMutability": "nonpayable",
      "type": "function"
    },
    {
      "inputs": [
        {
          "internalType": "string",
          "name": "tokenURI",
          "type": "string"
        },
        {
          "internalType": "uint256",
          "name": "collectionId",
          "type": "uint256"
        }
      ],
      "name": "createToken",
      "outputs": [
        {
          "internalType": "uint256",
          "name": "",
          "type": "uint256"
        }
      ],
      "stateMutability": "payable",
      "type": "function"
    },
    {
      "inputs": [],
      "name": "fetchMyCollections",
      "outputs": [
        {
          "components": [
            {
              "internalType": "uint256",
              "name": "collectionId",
              "type": "uint256"
            },
            {
              "internalType": "address",
              "name": "owner",
              "type": "address"
            },
            {
              "internalType": "string",
              "name": "collectionURI",
              "type": "string"
            },
            {
              "internalType": "uint256[]",
              "name": "nfts",
              "type": "uint256[]"
            }
          ],
          "internalType": "struct EtherNFTPlace.Collection[]",
          "name": "",
          "type": "tuple[]"
        }
      ],
      "stateMutability": "view",
      "type": "function"
    },
    {
      "inputs": [
        {
          "internalType": "uint256",
          "name": "collectionId",
          "type": "uint256"
        }
      ],
      "name": "fetchMyNFTsByCollection",
      "outputs": [
        {
          "components": [
            {
              "internalType": "uint256",
              "name": "tokenId",
              "type": "uint256"
            },
            {
              "internalType": "address",
              "name": "owner",
              "type": "address"
            },
            {
              "internalType": "uint256",
              "name": "collectionId",
              "type": "uint256"
            }
          ],
          "internalType": "struct EtherNFTPlace.NFT[]",
          "name": "",
          "type": "tuple[]"
        }
      ],
      "stateMutability": "view",
      "type": "function"
    },
    {
      "inputs": [
        {
          "internalType": "uint256",
          "name": "tokenId",
          "type": "uint256"
        }
      ],
      "name": "getApproved",
      "outputs": [
        {
          "internalType": "address",
          "name": "",
          "type": "address"
        }
      ],
      "stateMutability": "view",
      "type": "function"
    },
    {
      "inputs": [
        {
          "internalType": "address",
          "name": "owner",
          "type": "address"
        },
        {
          "internalType": "address",
          "name": "operator",
          "type": "address"
        }
      ],
      "name": "isApprovedForAll",
      "outputs": [
        {
          "internalType": "bool",
          "name": "",
          "type": "bool"
        }
      ],
      "stateMutability": "view",
      "type": "function"
    },
    {
      "inputs": [],
      "name": "name",
      "outputs": [
        {
          "internalType": "string",
          "name": "",
          "type": "string"
        }
      ],
      "stateMutability": "view",
      "type": "function"
    },
    {
      "inputs": [
        {
          "internalType": "uint256",
          "name": "tokenId",
          "type": "uint256"
        }
      ],
      "name": "ownerOf",
      "outputs": [
        {
          "internalType": "address",
          "name": "",
          "type": "address"
        }
      ],
      "stateMutability": "view",
      "type": "function"
    },
    {
      "inputs": [
        {
          "internalType": "address",
          "name": "from",
          "type": "address"
        },
        {
          "internalType": "address",
          "name": "to",
          "type": "address"
        },
        {
          "internalType": "uint256",
          "name": "tokenId",
          "type": "uint256"
        }
      ],
      "name": "safeTransferFrom",
      "outputs": [],
      "stateMutability": "nonpayable",
      "type": "function"
    },
    {
      "inputs": [
        {
          "internalType": "address",
          "name": "from",
          "type": "address"
        },
        {
          "internalType": "address",
          "name": "to",
          "type": "address"
        },
        {
          "internalType": "uint256",
          "name": "tokenId",
          "type": "uint256"
        },
        {
          "internalType": "bytes",
          "name": "data",
          "type": "bytes"
        }
      ],
      "name": "safeTransferFrom",
      "outputs": [],
      "stateMutability": "nonpayable",
      "type": "function"
    },
    {
      "inputs": [
        {
          "internalType": "address",
          "name": "operator",
          "type": "address"
        },
        {
          "internalType": "bool",
          "name": "approved",
          "type": "bool"
        }
      ],
      "name": "setApprovalForAll",
      "outputs": [],
      "stateMutability": "nonpayable",
      "type": "function"
    },
    {
      "inputs": [
        {
          "internalType": "bytes4",
          "name": "interfaceId",
          "type": "bytes4"
        }
      ],
      "name": "supportsInterface",
      "outputs": [
        {
          "internalType": "bool",
          "name": "",
          "type": "bool"
        }
      ],
      "stateMutability": "view",
      "type": "function"
    },
    {
      "inputs": [],
      "name": "symbol",
      "outputs": [
        {
          "internalType": "string",
          "name": "",
          "type": "string"
        }
      ],
      "stateMutability": "view",
      "type": "function"
    },
    {
      "inputs": [
        {
          "internalType": "uint256",
          "name": "tokenId",
          "type": "uint256"
        }
      ],
      "name": "tokenURI",
      "outputs": [
        {
          "internalType": "string",
          "name": "",
          "type": "string"
        }
      ],
      "stateMutability": "view",
      "type": "function"
    },
    {
      "inputs": [
        {
          "internalType": "address",
          "name": "from",
          "type": "address"
        },
        {
          "internalType": "address",
          "name": "to",
          "type": "address"
        },
        {
          "internalType": "uint256",
          "name": "tokenId",
          "type": "uint256"
        }
      ],
      "name": "transferFrom",
      "outputs": [],
      "stateMutability": "nonpayable",
      "type": "function"
    }
  ],
  "bytecode": "0x60806040523480156200001157600080fd5b506040518060400160405280601081526020017f4d657461766572736520546f6b656e73000000000000000000000000000000008152506040518060400160405280600481526020017f4d4554540000000000000000000000000000000000000000000000000000000081525081600090816200008f919062000365565b508060019081620000a1919062000365565b50505033600960006101000a81548173ffffffffffffffffffffffffffffffffffffffff021916908373ffffffffffffffffffffffffffffffffffffffff1602179055506200044c565b600081519050919050565b7f4e487b7100000000000000000000000000000000000000000000000000000000600052604160045260246000fd5b7f4e487b7100000000000000000000000000000000000000000000000000000000600052602260045260246000fd5b600060028204905060018216806200016d57607f821691505b60208210810362000183576200018262000125565b5b50919050565b60008190508160005260206000209050919050565b60006020601f8301049050919050565b600082821b905092915050565b600060088302620001ed7fffffffffffffffffffffffffffffffffffffffffffffffffffffffffffffffff82620001ae565b620001f98683620001ae565b95508019841693508086168417925050509392505050565b6000819050919050565b6000819050919050565b600062000246620002406200023a8462000211565b6200021b565b62000211565b9050919050565b6000819050919050565b620002628362000225565b6200027a62000271826200024d565b848454620001bb565b825550505050565b600090565b6200029162000282565b6200029e81848462000257565b505050565b5b81811015620002c657620002ba60008262000287565b600181019050620002a4565b5050565b601f8211156200031557620002df8162000189565b620002ea846200019e565b81016020851015620002fa578190505b6200031262000309856200019e565b830182620002a3565b50505b505050565b600082821c905092915050565b60006200033a600019846008026200031a565b1980831691505092915050565b600062000355838362000327565b9150826002028217905092915050565b6200037082620000eb565b67ffffffffffffffff8111156200038c576200038b620000f6565b5b62000398825462000154565b620003a5828285620002ca565b600060209050601f831160018114620003dd5760008415620003c8578287015190505b620003d4858262000347565b86555062000444565b601f198416620003ed8662000189565b60005b828110156200041757848901518255600182019150602085019450602081019050620003f0565b8683101562000437578489015162000433601f89168262000327565b8355505b6001600288020188555050505b505050505050565b613a3f806200045c6000396000f3fe6080604052600436106100fe5760003560e01c80636352211e11610095578063a22cb46511610064578063a22cb4651461035e578063a280d6c814610387578063b88d4fde146103b2578063c87b56dd146103db578063e985e9c514610418576100fe565b80636352211e1461028957806370a08231146102c657806372b3b6201461030357806395d89b4114610333576100fe565b8063095ea7b3116100d1578063095ea7b3146101d157806323b872dd146101fa5780633eb2a2051461022357806342842e0e14610260576100fe565b806301ffc9a714610103578063059dfe131461014057806306fdde0314610169578063081812fc14610194575b600080fd5b34801561010f57600080fd5b5061012a6004803603810190610125919061243a565b610455565b6040516101379190612482565b60405180910390f35b34801561014c57600080fd5b50610167600480360381019061016291906125e3565b6104b6565b005b34801561017557600080fd5b5061017e610626565b60405161018b91906126ab565b60405180910390f35b3480156101a057600080fd5b506101bb60048036038101906101b69190612703565b6106b8565b6040516101c89190612771565b60405180910390f35b3480156101dd57600080fd5b506101f860048036038101906101f391906127b8565b6106fe565b005b34801561020657600080fd5b50610221600480360381019061021c91906127f8565b610815565b005b34801561022f57600080fd5b5061024a60048036038101906102459190612703565b610875565b604051610257919061295a565b60405180910390f35b34801561026c57600080fd5b50610287600480360381019061028291906127f8565b610b0c565b005b34801561029557600080fd5b506102b060048036038101906102ab9190612703565b610b2c565b6040516102bd9190612771565b60405180910390f35b3480156102d257600080fd5b506102ed60048036038101906102e8919061297c565b610bb2565b6040516102fa91906129b8565b60405180910390f35b61031d600480360381019061031891906129d3565b610c69565b60405161032a91906129b8565b60405180910390f35b34801561033f57600080fd5b50610348610d7d565b60405161035591906126ab565b60405180910390f35b34801561036a57600080fd5b5061038560048036038101906103809190612a5b565b610e0f565b005b34801561039357600080fd5b5061039c610e25565b6040516103a99190612cc0565b60405180910390f35b3480156103be57600080fd5b506103d960048036038101906103d49190612d83565b611180565b005b3480156103e757600080fd5b5061040260048036038101906103fd9190612703565b6111e2565b60405161040f91906126ab565b60405180910390f35b34801561042457600080fd5b5061043f600480360381019061043a9190612e06565b6112f4565b60405161044c9190612482565b60405180910390f35b6000634906490660e01b7bffffffffffffffffffffffffffffffffffffffffffffffffffffffff1916827bffffffffffffffffffffffffffffffffffffffffffffffffffffffff191614806104af57506104ae82611388565b5b9050919050565b6104c0600861146a565b60006104cc6008611480565b905060405180608001604052808281526020013373ffffffffffffffffffffffffffffffffffffffff168152602001838152602001600067ffffffffffffffff81111561051c5761051b6124b8565b5b60405190808252806020026020018201604052801561054a5781602001602082028036833780820191505090505b50815250600a60008381526020019081526020016000206000820151816000015560208201518160010160006101000a81548173ffffffffffffffffffffffffffffffffffffffff021916908373ffffffffffffffffffffffffffffffffffffffff16021790555060408201518160020190816105c79190613052565b5060608201518160030190805190602001906105e49291906122ef565b50905050807fb0b7b214963f2e16da9cf6ed5851757dfed306875edf1d59e030881102ef24ef338460405161061a929190613124565b60405180910390a25050565b60606000805461063590612e75565b80601f016020809104026020016040519081016040528092919081815260200182805461066190612e75565b80156106ae5780601f10610683576101008083540402835291602001916106ae565b820191906000526020600020905b81548152906001019060200180831161069157829003601f168201915b5050505050905090565b60006106c38261148e565b6004600083815260200190815260200160002060009054906101000a900473ffffffffffffffffffffffffffffffffffffffff169050919050565b600061070982610b2c565b90508073ffffffffffffffffffffffffffffffffffffffff168373ffffffffffffffffffffffffffffffffffffffff1603610779576040517f08c379a0000000000000000000000000000000000000000000000000000000008152600401610770906131c6565b60405180910390fd5b8073ffffffffffffffffffffffffffffffffffffffff166107986114d9565b73ffffffffffffffffffffffffffffffffffffffff1614806107c757506107c6816107c16114d9565b6112f4565b5b610806576040517f08c379a00000000000000000000000000000000000000000000000000000000081526004016107fd90613258565b60405180910390fd5b61081083836114e1565b505050565b6108266108206114d9565b8261159a565b610865576040517f08c379a000000000000000000000000000000000000000000000000000000000815260040161085c906132ea565b60405180910390fd5b61087083838361162f565b505050565b606060006108836007611480565b905060008060005b83811161093f5785600b60008381526020019081526020016000206002015414801561091857503373ffffffffffffffffffffffffffffffffffffffff16600b600083815260200190815260200160002060010160009054906101000a900473ffffffffffffffffffffffffffffffffffffffff1673ffffffffffffffffffffffffffffffffffffffff16145b1561092c57828061092890613339565b9350505b808061093790613339565b91505061088b565b5060008267ffffffffffffffff81111561095c5761095b6124b8565b5b60405190808252806020026020018201604052801561099557816020015b61098261233c565b81526020019060019003908161097a5790505b5090506000600190505b848111610aff5786600b600083815260200190815260200160002060020154148015610a2c57503373ffffffffffffffffffffffffffffffffffffffff16600b600083815260200190815260200160002060010160009054906101000a900473ffffffffffffffffffffffffffffffffffffffff1673ffffffffffffffffffffffffffffffffffffffff16145b15610aec576000600b6000838152602001908152602001600020905080604051806060016040529081600082015481526020016001820160009054906101000a900473ffffffffffffffffffffffffffffffffffffffff1673ffffffffffffffffffffffffffffffffffffffff1673ffffffffffffffffffffffffffffffffffffffff168152602001600282015481525050838581518110610ad157610ad0613381565b5b60200260200101819052508380610ae790613339565b945050505b8080610af790613339565b91505061099f565b5080945050505050919050565b610b2783838360405180602001604052806000815250611180565b505050565b600080610b3883611928565b9050600073ffffffffffffffffffffffffffffffffffffffff168173ffffffffffffffffffffffffffffffffffffffff1603610ba9576040517f08c379a0000000000000000000000000000000000000000000000000000000008152600401610ba0906133fc565b60405180910390fd5b80915050919050565b60008073ffffffffffffffffffffffffffffffffffffffff168273ffffffffffffffffffffffffffffffffffffffff1603610c22576040517f08c379a0000000000000000000000000000000000000000000000000000000008152600401610c199061348e565b60405180910390fd5b600360008373ffffffffffffffffffffffffffffffffffffffff1673ffffffffffffffffffffffffffffffffffffffff168152602001908152602001600020549050919050565b6000610c75600761146a565b6000610c816007611480565b9050610c8d3382611965565b610c978185611b82565b60405180606001604052808281526020013373ffffffffffffffffffffffffffffffffffffffff16815260200184815250600b60008381526020019081526020016000206000820151816000015560208201518160010160006101000a81548173ffffffffffffffffffffffffffffffffffffffff021916908373ffffffffffffffffffffffffffffffffffffffff16021790555060408201518160020155905050807f94619d2447a6efc7f1095856ea5af24ffa395982057fcd550cb7909aea537bbd3385604051610d6b9291906134ae565b60405180910390a28091505092915050565b606060018054610d8c90612e75565b80601f0160208091040260200160405190810160405280929190818152602001828054610db890612e75565b8015610e055780601f10610dda57610100808354040283529160200191610e05565b820191906000526020600020905b815481529060010190602001808311610de857829003601f168201915b5050505050905090565b610e21610e1a6114d9565b8383611c26565b5050565b60606000610e336008611480565b905060008060005b83811015610edb573373ffffffffffffffffffffffffffffffffffffffff16600a6000600184610e6b91906134d7565b815260200190815260200160002060010160009054906101000a900473ffffffffffffffffffffffffffffffffffffffff1673ffffffffffffffffffffffffffffffffffffffff1603610ec857600183610ec591906134d7565b92505b8080610ed390613339565b915050610e3b565b5060008267ffffffffffffffff811115610ef857610ef76124b8565b5b604051908082528060200260200182016040528015610f3157816020015b610f1e612373565b815260200190600190039081610f165790505b50905060005b84811015611175573373ffffffffffffffffffffffffffffffffffffffff16600a6000600184610f6791906134d7565b815260200190815260200160002060010160009054906101000a900473ffffffffffffffffffffffffffffffffffffffff1673ffffffffffffffffffffffffffffffffffffffff1603611162576000600182610fc391906134d7565b90506000600a6000838152602001908152602001600020905080604051806080016040529081600082015481526020016001820160009054906101000a900473ffffffffffffffffffffffffffffffffffffffff1673ffffffffffffffffffffffffffffffffffffffff1673ffffffffffffffffffffffffffffffffffffffff16815260200160028201805461105890612e75565b80601f016020809104026020016040519081016040528092919081815260200182805461108490612e75565b80156110d15780601f106110a6576101008083540402835291602001916110d1565b820191906000526020600020905b8154815290600101906020018083116110b457829003601f168201915b505050505081526020016003820180548060200260200160405190810160405280929190818152602001828054801561112957602002820191906000526020600020905b815481526020019060010190808311611115575b50505050508152505084868151811061114557611144613381565b5b602002602001018190525060018561115d91906134d7565b945050505b808061116d90613339565b915050610f37565b508094505050505090565b61119161118b6114d9565b8361159a565b6111d0576040517f08c379a00000000000000000000000000000000000000000000000000000000081526004016111c7906132ea565b60405180910390fd5b6111dc84848484611d92565b50505050565b60606111ed8261148e565b600060066000848152602001908152602001600020805461120d90612e75565b80601f016020809104026020016040519081016040528092919081815260200182805461123990612e75565b80156112865780601f1061125b57610100808354040283529160200191611286565b820191906000526020600020905b81548152906001019060200180831161126957829003601f168201915b505050505090506000611297611dee565b905060008151036112ac5781925050506112ef565b6000825111156112e15780826040516020016112c9929190613547565b604051602081830303815290604052925050506112ef565b6112ea84611e05565b925050505b919050565b6000600560008473ffffffffffffffffffffffffffffffffffffffff1673ffffffffffffffffffffffffffffffffffffffff16815260200190815260200160002060008373ffffffffffffffffffffffffffffffffffffffff1673ffffffffffffffffffffffffffffffffffffffff16815260200190815260200160002060009054906101000a900460ff16905092915050565b60007f80ac58cd000000000000000000000000000000000000000000000000000000007bffffffffffffffffffffffffffffffffffffffffffffffffffffffff1916827bffffffffffffffffffffffffffffffffffffffffffffffffffffffff1916148061145357507f5b5e139f000000000000000000000000000000000000000000000000000000007bffffffffffffffffffffffffffffffffffffffffffffffffffffffff1916827bffffffffffffffffffffffffffffffffffffffffffffffffffffffff1916145b80611463575061146282611e6d565b5b9050919050565b6001816000016000828254019250508190555050565b600081600001549050919050565b61149781611ed7565b6114d6576040517f08c379a00000000000000000000000000000000000000000000000000000000081526004016114cd906133fc565b60405180910390fd5b50565b600033905090565b816004600083815260200190815260200160002060006101000a81548173ffffffffffffffffffffffffffffffffffffffff021916908373ffffffffffffffffffffffffffffffffffffffff160217905550808273ffffffffffffffffffffffffffffffffffffffff1661155483610b2c565b73ffffffffffffffffffffffffffffffffffffffff167f8c5be1e5ebec7d5bd14f71427d1e84f3dd0314c0f7b2291e5b200ac8c7c3b92560405160405180910390a45050565b6000806115a683610b2c565b90508073ffffffffffffffffffffffffffffffffffffffff168473ffffffffffffffffffffffffffffffffffffffff1614806115e857506115e781856112f4565b5b8061162657508373ffffffffffffffffffffffffffffffffffffffff1661160e846106b8565b73ffffffffffffffffffffffffffffffffffffffff16145b91505092915050565b8273ffffffffffffffffffffffffffffffffffffffff1661164f82610b2c565b73ffffffffffffffffffffffffffffffffffffffff16146116a5576040517f08c379a000000000000000000000000000000000000000000000000000000000815260040161169c906135dd565b60405180910390fd5b600073ffffffffffffffffffffffffffffffffffffffff168273ffffffffffffffffffffffffffffffffffffffff1603611714576040517f08c379a000000000000000000000000000000000000000000000000000000000815260040161170b9061366f565b60405180910390fd5b6117218383836001611f18565b8273ffffffffffffffffffffffffffffffffffffffff1661174182610b2c565b73ffffffffffffffffffffffffffffffffffffffff1614611797576040517f08c379a000000000000000000000000000000000000000000000000000000000815260040161178e906135dd565b60405180910390fd5b6004600082815260200190815260200160002060006101000a81549073ffffffffffffffffffffffffffffffffffffffff02191690556001600360008573ffffffffffffffffffffffffffffffffffffffff1673ffffffffffffffffffffffffffffffffffffffff168152602001908152602001600020600082825403925050819055506001600360008473ffffffffffffffffffffffffffffffffffffffff1673ffffffffffffffffffffffffffffffffffffffff16815260200190815260200160002060008282540192505081905550816002600083815260200190815260200160002060006101000a81548173ffffffffffffffffffffffffffffffffffffffff021916908373ffffffffffffffffffffffffffffffffffffffff160217905550808273ffffffffffffffffffffffffffffffffffffffff168473ffffffffffffffffffffffffffffffffffffffff167fddf252ad1be2c89b69c2b068fc378daa952ba7f163c4a11628f55a4df523b3ef60405160405180910390a46119238383836001611f1e565b505050565b60006002600083815260200190815260200160002060009054906101000a900473ffffffffffffffffffffffffffffffffffffffff169050919050565b600073ffffffffffffffffffffffffffffffffffffffff168273ffffffffffffffffffffffffffffffffffffffff16036119d4576040517f08c379a00000000000000000000000000000000000000000000000000000000081526004016119cb906136db565b60405180910390fd5b6119dd81611ed7565b15611a1d576040517f08c379a0000000000000000000000000000000000000000000000000000000008152600401611a1490613747565b60405180910390fd5b611a2b600083836001611f18565b611a3481611ed7565b15611a74576040517f08c379a0000000000000000000000000000000000000000000000000000000008152600401611a6b90613747565b60405180910390fd5b6001600360008473ffffffffffffffffffffffffffffffffffffffff1673ffffffffffffffffffffffffffffffffffffffff16815260200190815260200160002060008282540192505081905550816002600083815260200190815260200160002060006101000a81548173ffffffffffffffffffffffffffffffffffffffff021916908373ffffffffffffffffffffffffffffffffffffffff160217905550808273ffffffffffffffffffffffffffffffffffffffff16600073ffffffffffffffffffffffffffffffffffffffff167fddf252ad1be2c89b69c2b068fc378daa952ba7f163c4a11628f55a4df523b3ef60405160405180910390a4611b7e600083836001611f1e565b5050565b611b8b82611ed7565b611bca576040517f08c379a0000000000000000000000000000000000000000000000000000000008152600401611bc1906137d9565b60405180910390fd5b80600660008481526020019081526020016000209081611bea9190613052565b507ff8e1a15aba9398e019f0b49df1a4fde98ee17ae345cb5f6b5e2c27f5033e8ce782604051611c1a91906129b8565b60405180910390a15050565b8173ffffffffffffffffffffffffffffffffffffffff168373ffffffffffffffffffffffffffffffffffffffff1603611c94576040517f08c379a0000000000000000000000000000000000000000000000000000000008152600401611c8b90613845565b60405180910390fd5b80600560008573ffffffffffffffffffffffffffffffffffffffff1673ffffffffffffffffffffffffffffffffffffffff16815260200190815260200160002060008473ffffffffffffffffffffffffffffffffffffffff1673ffffffffffffffffffffffffffffffffffffffff16815260200190815260200160002060006101000a81548160ff0219169083151502179055508173ffffffffffffffffffffffffffffffffffffffff168373ffffffffffffffffffffffffffffffffffffffff167f17307eab39ab6107e8899845ad3d59bd9653f200f220920489ca2b5937696c3183604051611d859190612482565b60405180910390a3505050565b611d9d84848461162f565b611da984848484611f24565b611de8576040517f08c379a0000000000000000000000000000000000000000000000000000000008152600401611ddf906138d7565b60405180910390fd5b50505050565b606060405180602001604052806000815250905090565b6060611e108261148e565b6000611e1a611dee565b90506000815111611e3a5760405180602001604052806000815250611e65565b80611e44846120ab565b604051602001611e55929190613547565b6040516020818303038152906040525b915050919050565b60007f01ffc9a7000000000000000000000000000000000000000000000000000000007bffffffffffffffffffffffffffffffffffffffffffffffffffffffff1916827bffffffffffffffffffffffffffffffffffffffffffffffffffffffff1916149050919050565b60008073ffffffffffffffffffffffffffffffffffffffff16611ef983611928565b73ffffffffffffffffffffffffffffffffffffffff1614159050919050565b50505050565b50505050565b6000611f458473ffffffffffffffffffffffffffffffffffffffff16612179565b1561209e578373ffffffffffffffffffffffffffffffffffffffff1663150b7a02611f6e6114d9565b8786866040518563ffffffff1660e01b8152600401611f90949392919061394c565b6020604051808303816000875af1925050508015611fcc57506040513d601f19601f82011682018060405250810190611fc991906139ad565b60015b61204e573d8060008114611ffc576040519150601f19603f3d011682016040523d82523d6000602084013e612001565b606091505b506000815103612046576040517f08c379a000000000000000000000000000000000000000000000000000000000815260040161203d906138d7565b60405180910390fd5b805181602001fd5b63150b7a0260e01b7bffffffffffffffffffffffffffffffffffffffffffffffffffffffff1916817bffffffffffffffffffffffffffffffffffffffffffffffffffffffff1916149150506120a3565b600190505b949350505050565b6060600060016120ba8461219c565b01905060008167ffffffffffffffff8111156120d9576120d86124b8565b5b6040519080825280601f01601f19166020018201604052801561210b5781602001600182028036833780820191505090505b509050600082602001820190505b60011561216e578080600190039150507f3031323334353637383961626364656600000000000000000000000000000000600a86061a8153600a8581612162576121616139da565b5b04945060008503612119575b819350505050919050565b6000808273ffffffffffffffffffffffffffffffffffffffff163b119050919050565b600080600090507a184f03e93ff9f4daa797ed6e38ed64bf6a1f01000000000000000083106121fa577a184f03e93ff9f4daa797ed6e38ed64bf6a1f01000000000000000083816121f0576121ef6139da565b5b0492506040810190505b6d04ee2d6d415b85acef81000000008310612237576d04ee2d6d415b85acef8100000000838161222d5761222c6139da565b5b0492506020810190505b662386f26fc10000831061226657662386f26fc10000838161225c5761225b6139da565b5b0492506010810190505b6305f5e100831061228f576305f5e1008381612285576122846139da565b5b0492506008810190505b61271083106122b45761271083816122aa576122a96139da565b5b0492506004810190505b606483106122d757606483816122cd576122cc6139da565b5b0492506002810190505b600a83106122e6576001810190505b80915050919050565b82805482825590600052602060002090810192821561232b579160200282015b8281111561232a57825182559160200191906001019061230f565b5b50905061233891906123b1565b5090565b604051806060016040528060008152602001600073ffffffffffffffffffffffffffffffffffffffff168152602001600081525090565b604051806080016040528060008152602001600073ffffffffffffffffffffffffffffffffffffffff16815260200160608152602001606081525090565b5b808211156123ca5760008160009055506001016123b2565b5090565b6000604051905090565b600080fd5b600080fd5b60007fffffffff0000000000000000000000000000000000000000000000000000000082169050919050565b612417816123e2565b811461242257600080fd5b50565b6000813590506124348161240e565b92915050565b6000602082840312156124505761244f6123d8565b5b600061245e84828501612425565b91505092915050565b60008115159050919050565b61247c81612467565b82525050565b60006020820190506124976000830184612473565b92915050565b600080fd5b600080fd5b6000601f19601f8301169050919050565b7f4e487b7100000000000000000000000000000000000000000000000000000000600052604160045260246000fd5b6124f0826124a7565b810181811067ffffffffffffffff8211171561250f5761250e6124b8565b5b80604052505050565b60006125226123ce565b905061252e82826124e7565b919050565b600067ffffffffffffffff82111561254e5761254d6124b8565b5b612557826124a7565b9050602081019050919050565b82818337600083830152505050565b600061258661258184612533565b612518565b9050828152602081018484840111156125a2576125a16124a2565b5b6125ad848285612564565b509392505050565b600082601f8301126125ca576125c961249d565b5b81356125da848260208601612573565b91505092915050565b6000602082840312156125f9576125f86123d8565b5b600082013567ffffffffffffffff811115612617576126166123dd565b5b612623848285016125b5565b91505092915050565b600081519050919050565b600082825260208201905092915050565b60005b8381101561266657808201518184015260208101905061264b565b60008484015250505050565b600061267d8261262c565b6126878185612637565b9350612697818560208601612648565b6126a0816124a7565b840191505092915050565b600060208201905081810360008301526126c58184612672565b905092915050565b6000819050919050565b6126e0816126cd565b81146126eb57600080fd5b50565b6000813590506126fd816126d7565b92915050565b600060208284031215612719576127186123d8565b5b6000612727848285016126ee565b91505092915050565b600073ffffffffffffffffffffffffffffffffffffffff82169050919050565b600061275b82612730565b9050919050565b61276b81612750565b82525050565b60006020820190506127866000830184612762565b92915050565b61279581612750565b81146127a057600080fd5b50565b6000813590506127b28161278c565b92915050565b600080604083850312156127cf576127ce6123d8565b5b60006127dd858286016127a3565b92505060206127ee858286016126ee565b9150509250929050565b600080600060608486031215612811576128106123d8565b5b600061281f868287016127a3565b9350506020612830868287016127a3565b9250506040612841868287016126ee565b9150509250925092565b600081519050919050565b600082825260208201905092915050565b6000819050602082019050919050565b612880816126cd565b82525050565b61288f81612750565b82525050565b6060820160008201516128ab6000850182612877565b5060208201516128be6020850182612886565b5060408201516128d16040850182612877565b50505050565b60006128e38383612895565b60608301905092915050565b6000602082019050919050565b60006129078261284b565b6129118185612856565b935061291c83612867565b8060005b8381101561294d57815161293488826128d7565b975061293f836128ef565b925050600181019050612920565b5085935050505092915050565b6000602082019050818103600083015261297481846128fc565b905092915050565b600060208284031215612992576129916123d8565b5b60006129a0848285016127a3565b91505092915050565b6129b2816126cd565b82525050565b60006020820190506129cd60008301846129a9565b92915050565b600080604083850312156129ea576129e96123d8565b5b600083013567ffffffffffffffff811115612a0857612a076123dd565b5b612a14858286016125b5565b9250506020612a25858286016126ee565b9150509250929050565b612a3881612467565b8114612a4357600080fd5b50565b600081359050612a5581612a2f565b92915050565b60008060408385031215612a7257612a716123d8565b5b6000612a80858286016127a3565b9250506020612a9185828601612a46565b9150509250929050565b600081519050919050565b600082825260208201905092915050565b6000819050602082019050919050565b600082825260208201905092915050565b6000612ae38261262c565b612aed8185612ac7565b9350612afd818560208601612648565b612b06816124a7565b840191505092915050565b600081519050919050565b600082825260208201905092915050565b6000819050602082019050919050565b6000612b498383612877565b60208301905092915050565b6000602082019050919050565b6000612b6d82612b11565b612b778185612b1c565b9350612b8283612b2d565b8060005b83811015612bb3578151612b9a8882612b3d565b9750612ba583612b55565b925050600181019050612b86565b5085935050505092915050565b6000608083016000830151612bd86000860182612877565b506020830151612beb6020860182612886565b5060408301518482036040860152612c038282612ad8565b91505060608301518482036060860152612c1d8282612b62565b9150508091505092915050565b6000612c368383612bc0565b905092915050565b6000602082019050919050565b6000612c5682612a9b565b612c608185612aa6565b935083602082028501612c7285612ab7565b8060005b85811015612cae5784840389528151612c8f8582612c2a565b9450612c9a83612c3e565b925060208a01995050600181019050612c76565b50829750879550505050505092915050565b60006020820190508181036000830152612cda8184612c4b565b905092915050565b600067ffffffffffffffff821115612cfd57612cfc6124b8565b5b612d06826124a7565b9050602081019050919050565b6000612d26612d2184612ce2565b612518565b905082815260208101848484011115612d4257612d416124a2565b5b612d4d848285612564565b509392505050565b600082601f830112612d6a57612d6961249d565b5b8135612d7a848260208601612d13565b91505092915050565b60008060008060808587031215612d9d57612d9c6123d8565b5b6000612dab878288016127a3565b9450506020612dbc878288016127a3565b9350506040612dcd878288016126ee565b925050606085013567ffffffffffffffff811115612dee57612ded6123dd565b5b612dfa87828801612d55565b91505092959194509250565b60008060408385031215612e1d57612e1c6123d8565b5b6000612e2b858286016127a3565b9250506020612e3c858286016127a3565b9150509250929050565b7f4e487b7100000000000000000000000000000000000000000000000000000000600052602260045260246000fd5b60006002820490506001821680612e8d57607f821691505b602082108103612ea057612e9f612e46565b5b50919050565b60008190508160005260206000209050919050565b60006020601f8301049050919050565b600082821b905092915050565b600060088302612f087fffffffffffffffffffffffffffffffffffffffffffffffffffffffffffffffff82612ecb565b612f128683612ecb565b95508019841693508086168417925050509392505050565b6000819050919050565b6000612f4f612f4a612f45846126cd565b612f2a565b6126cd565b9050919050565b6000819050919050565b612f6983612f34565b612f7d612f7582612f56565b848454612ed8565b825550505050565b600090565b612f92612f85565b612f9d818484612f60565b505050565b5b81811015612fc157612fb6600082612f8a565b600181019050612fa3565b5050565b601f82111561300657612fd781612ea6565b612fe084612ebb565b81016020851015612fef578190505b613003612ffb85612ebb565b830182612fa2565b50505b505050565b600082821c905092915050565b60006130296000198460080261300b565b1980831691505092915050565b60006130428383613018565b9150826002028217905092915050565b61305b8261262c565b67ffffffffffffffff811115613074576130736124b8565b5b61307e8254612e75565b613089828285612fc5565b600060209050601f8311600181146130bc57600084156130aa578287015190505b6130b48582613036565b86555061311c565b601f1984166130ca86612ea6565b60005b828110156130f2578489015182556001820191506020850194506020810190506130cd565b8683101561310f578489015161310b601f891682613018565b8355505b6001600288020188555050505b505050505050565b60006040820190506131396000830185612762565b818103602083015261314b8184612672565b90509392505050565b7f4552433732313a20617070726f76616c20746f2063757272656e74206f776e6560008201527f7200000000000000000000000000000000000000000000000000000000000000602082015250565b60006131b0602183612637565b91506131bb82613154565b604082019050919050565b600060208201905081810360008301526131df816131a3565b9050919050565b7f4552433732313a20617070726f76652063616c6c6572206973206e6f7420746f60008201527f6b656e206f776e6572206f7220617070726f76656420666f7220616c6c000000602082015250565b6000613242603d83612637565b915061324d826131e6565b604082019050919050565b6000602082019050818103600083015261327181613235565b9050919050565b7f4552433732313a2063616c6c6572206973206e6f7420746f6b656e206f776e6560008201527f72206f7220617070726f76656400000000000000000000000000000000000000602082015250565b60006132d4602d83612637565b91506132df82613278565b604082019050919050565b60006020820190508181036000830152613303816132c7565b9050919050565b7f4e487b7100000000000000000000000000000000000000000000000000000000600052601160045260246000fd5b6000613344826126cd565b91507fffffffffffffffffffffffffffffffffffffffffffffffffffffffffffffffff82036133765761337561330a565b5b600182019050919050565b7f4e487b7100000000000000000000000000000000000000000000000000000000600052603260045260246000fd5b7f4552433732313a20696e76616c696420746f6b656e2049440000000000000000600082015250565b60006133e6601883612637565b91506133f1826133b0565b602082019050919050565b60006020820190508181036000830152613415816133d9565b9050919050565b7f4552433732313a2061646472657373207a65726f206973206e6f74206120766160008201527f6c6964206f776e65720000000000000000000000000000000000000000000000602082015250565b6000613478602983612637565b91506134838261341c565b604082019050919050565b600060208201905081810360008301526134a78161346b565b9050919050565b60006040820190506134c36000830185612762565b6134d060208301846129a9565b9392505050565b60006134e2826126cd565b91506134ed836126cd565b92508282019050808211156135055761350461330a565b5b92915050565b600081905092915050565b60006135218261262c565b61352b818561350b565b935061353b818560208601612648565b80840191505092915050565b60006135538285613516565b915061355f8284613516565b91508190509392505050565b7f4552433732313a207472616e736665722066726f6d20696e636f72726563742060008201527f6f776e6572000000000000000000000000000000000000000000000000000000602082015250565b60006135c7602583612637565b91506135d28261356b565b604082019050919050565b600060208201905081810360008301526135f6816135ba565b9050919050565b7f4552433732313a207472616e7366657220746f20746865207a65726f2061646460008201527f7265737300000000000000000000000000000000000000000000000000000000602082015250565b6000613659602483612637565b9150613664826135fd565b604082019050919050565b600060208201905081810360008301526136888161364c565b9050919050565b7f4552433732313a206d696e7420746f20746865207a65726f2061646472657373600082015250565b60006136c5602083612637565b91506136d08261368f565b602082019050919050565b600060208201905081810360008301526136f4816136b8565b9050919050565b7f4552433732313a20746f6b656e20616c7265616479206d696e74656400000000600082015250565b6000613731601c83612637565b915061373c826136fb565b602082019050919050565b6000602082019050818103600083015261376081613724565b9050919050565b7f45524337323155524953746f726167653a2055524920736574206f66206e6f6e60008201527f6578697374656e7420746f6b656e000000000000000000000000000000000000602082015250565b60006137c3602e83612637565b91506137ce82613767565b604082019050919050565b600060208201905081810360008301526137f2816137b6565b9050919050565b7f4552433732313a20617070726f766520746f2063616c6c657200000000000000600082015250565b600061382f601983612637565b915061383a826137f9565b602082019050919050565b6000602082019050818103600083015261385e81613822565b9050919050565b7f4552433732313a207472616e7366657220746f206e6f6e20455243373231526560008201527f63656976657220696d706c656d656e7465720000000000000000000000000000602082015250565b60006138c1603283612637565b91506138cc82613865565b604082019050919050565b600060208201905081810360008301526138f0816138b4565b9050919050565b600081519050919050565b600082825260208201905092915050565b600061391e826138f7565b6139288185613902565b9350613938818560208601612648565b613941816124a7565b840191505092915050565b60006080820190506139616000830187612762565b61396e6020830186612762565b61397b60408301856129a9565b818103606083015261398d8184613913565b905095945050505050565b6000815190506139a78161240e565b92915050565b6000602082840312156139c3576139c26123d8565b5b60006139d184828501613998565b91505092915050565b7f4e487b7100000000000000000000000000000000000000000000000000000000600052601260045260246000fdfea26469706673582212206ebb7c5a25014d7b9457d9287de235ce89119d38aaf8fba1a13285629dc9cf3864736f6c63430008130033",
  "linkReferences": {},
  "deployedLinkReferences": {}
}