{
  "_format": "hh-sol-artifact-1",
  "contractName": "EtherNFTPlace",
  "sourceName": "contracts/EtherNFTPlace.sol",
  "abi": [
    {
      "inputs": [],
      "stateMutability": "nonpayable",
      "type": "constructor"
    },
    {
      "anonymous": false,
      "inputs": [
        {
          "indexed": true,
          "internalType": "address",
          "name": "owner",
          "type": "address"
        },
        {
          "indexed": true,
          "internalType": "address",
          "name": "approved",
          "type": "address"
        },
        {
          "indexed": true,
          "internalType": "uint256",
          "name": "tokenId",
          "type": "uint256"
        }
      ],
      "name": "Approval",
      "type": "event"
    },
    {
      "anonymous": false,
      "inputs": [
        {
          "indexed": true,
          "internalType": "address",
          "name": "owner",
          "type": "address"
        },
        {
          "indexed": true,
          "internalType": "address",
          "name": "operator",
          "type": "address"
        },
        {
          "indexed": false,
          "internalType": "bool",
          "name": "approved",
          "type": "bool"
        }
      ],
      "name": "ApprovalForAll",
      "type": "event"
    },
    {
      "anonymous": false,
      "inputs": [
        {
          "indexed": false,
          "internalType": "uint256",
          "name": "_fromTokenId",
          "type": "uint256"
        },
        {
          "indexed": false,
          "internalType": "uint256",
          "name": "_toTokenId",
          "type": "uint256"
        }
      ],
      "name": "BatchMetadataUpdate",
      "type": "event"
    },
    {
      "anonymous": false,
      "inputs": [
        {
          "indexed": true,
          "internalType": "uint256",
          "name": "collectionId",
          "type": "uint256"
        },
        {
          "indexed": false,
          "internalType": "address",
          "name": "owner",
          "type": "address"
        },
        {
          "indexed": false,
          "internalType": "string",
          "name": "collectionURI",
          "type": "string"
        }
      ],
      "name": "CollectionCreated",
      "type": "event"
    },
    {
      "anonymous": false,
      "inputs": [
        {
          "indexed": true,
          "internalType": "uint256",
          "name": "collectionId",
          "type": "uint256"
        },
        {
          "indexed": false,
          "internalType": "address",
          "name": "owner",
          "type": "address"
        },
        {
          "indexed": false,
          "internalType": "string",
          "name": "collectionURI",
          "type": "string"
        }
      ],
      "name": "CollectionMetadataUpdated",
      "type": "event"
    },
    {
      "anonymous": false,
      "inputs": [
        {
          "indexed": true,
          "internalType": "uint256",
          "name": "tokenId",
          "type": "uint256"
        },
        {
          "indexed": false,
          "internalType": "address",
          "name": "seller",
          "type": "address"
        },
        {
          "indexed": false,
          "internalType": "address",
          "name": "owner",
          "type": "address"
        },
        {
          "indexed": false,
          "internalType": "uint256",
          "name": "price",
          "type": "uint256"
        },
        {
          "indexed": false,
          "internalType": "bool",
          "name": "sold",
          "type": "bool"
        }
      ],
      "name": "MarketItemCreated",
      "type": "event"
    },
    {
      "anonymous": false,
      "inputs": [
        {
          "indexed": false,
          "internalType": "uint256",
          "name": "_tokenId",
          "type": "uint256"
        }
      ],
      "name": "MetadataUpdate",
      "type": "event"
    },
    {
      "anonymous": false,
      "inputs": [
        {
          "indexed": true,
          "internalType": "uint256",
          "name": "tokenId",
          "type": "uint256"
        },
        {
          "indexed": false,
          "internalType": "address",
          "name": "owner",
          "type": "address"
        },
        {
          "indexed": false,
          "internalType": "uint256",
          "name": "collectionId",
          "type": "uint256"
        },
        {
          "indexed": false,
          "internalType": "uint256",
          "name": "price",
          "type": "uint256"
        }
      ],
      "name": "NFTCreated",
      "type": "event"
    },
    {
      "anonymous": false,
      "inputs": [
        {
          "indexed": false,
          "internalType": "uint256[]",
          "name": "nftIds",
          "type": "uint256[]"
        },
        {
          "indexed": false,
          "internalType": "address",
          "name": "owner",
          "type": "address"
        },
        {
          "indexed": false,
          "internalType": "uint256",
          "name": "collectionId",
          "type": "uint256"
        }
      ],
      "name": "NFTsCollectionUpdated",
      "type": "event"
    },
    {
      "anonymous": false,
      "inputs": [
        {
          "indexed": true,
          "internalType": "uint256",
          "name": "tokenId",
          "type": "uint256"
        },
        {
          "indexed": true,
          "internalType": "address",
          "name": "bidder",
          "type": "address"
        },
        {
          "indexed": false,
          "internalType": "uint256",
          "name": "amount",
          "type": "uint256"
        },
        {
          "indexed": false,
          "internalType": "uint256",
          "name": "expirationTimestamp",
          "type": "uint256"
        }
      ],
      "name": "OfferCreated",
      "type": "event"
    },
    {
      "anonymous": false,
      "inputs": [
        {
          "indexed": true,
          "internalType": "uint256",
          "name": "tokenId",
          "type": "uint256"
        },
        {
          "indexed": true,
          "internalType": "address",
          "name": "bidder",
          "type": "address"
        }
      ],
      "name": "OfferRemoved",
      "type": "event"
    },
    {
      "anonymous": false,
      "inputs": [
        {
          "indexed": true,
          "internalType": "address",
          "name": "from",
          "type": "address"
        },
        {
          "indexed": true,
          "internalType": "address",
          "name": "to",
          "type": "address"
        },
        {
          "indexed": true,
          "internalType": "uint256",
          "name": "tokenId",
          "type": "uint256"
        }
      ],
      "name": "Transfer",
      "type": "event"
    },
    {
      "inputs": [
        {
          "internalType": "address",
          "name": "to",
          "type": "address"
        },
        {
          "internalType": "uint256",
          "name": "tokenId",
          "type": "uint256"
        }
      ],
      "name": "approve",
      "outputs": [],
      "stateMutability": "nonpayable",
      "type": "function"
    },
    {
      "inputs": [
        {
          "internalType": "address",
          "name": "owner",
          "type": "address"
        }
      ],
      "name": "balanceOf",
      "outputs": [
        {
          "internalType": "uint256",
          "name": "",
          "type": "uint256"
        }
      ],
      "stateMutability": "view",
      "type": "function"
    },
    {
      "inputs": [
        {
          "internalType": "string",
          "name": "_collectionURI",
          "type": "string"
        },
        {
          "internalType": "uint256[]",
          "name": "selectedNFTs",
          "type": "uint256[]"
        }
      ],
      "name": "createCollection",
      "outputs": [],
      "stateMutability": "nonpayable",
      "type": "function"
    },
    {
      "inputs": [
        {
          "internalType": "uint256",
          "name": "tokenId",
          "type": "uint256"
        }
      ],
      "name": "createMarketSale",
      "outputs": [],
      "stateMutability": "payable",
      "type": "function"
    },
    {
      "inputs": [
        {
          "internalType": "string",
          "name": "tokenURI",
          "type": "string"
        },
        {
          "internalType": "uint256",
          "name": "collectionId",
          "type": "uint256"
        },
        {
          "internalType": "uint256",
          "name": "price",
          "type": "uint256"
        }
      ],
      "name": "createToken",
      "outputs": [
        {
          "internalType": "uint256",
          "name": "",
          "type": "uint256"
        }
      ],
      "stateMutability": "payable",
      "type": "function"
    },
    {
      "inputs": [
        {
          "internalType": "uint256",
          "name": "_collectionId",
          "type": "uint256"
        }
      ],
      "name": "fetchCollectionById",
      "outputs": [
        {
          "components": [
            {
              "internalType": "uint256",
              "name": "collectionId",
              "type": "uint256"
            },
            {
              "internalType": "address",
              "name": "owner",
              "type": "address"
            },
            {
              "internalType": "string",
              "name": "collectionURI",
              "type": "string"
            }
          ],
          "internalType": "struct EtherNFTPlace.Collection",
          "name": "",
          "type": "tuple"
        }
      ],
      "stateMutability": "view",
      "type": "function"
    },
    {
      "inputs": [],
      "name": "fetchMarketItems",
      "outputs": [
        {
          "components": [
            {
              "internalType": "uint256",
              "name": "tokenId",
              "type": "uint256"
            },
            {
              "internalType": "address payable",
              "name": "seller",
              "type": "address"
            },
            {
              "internalType": "address payable",
              "name": "owner",
              "type": "address"
            },
            {
              "internalType": "uint256",
              "name": "price",
              "type": "uint256"
            },
            {
              "internalType": "bool",
              "name": "sold",
              "type": "bool"
            }
          ],
          "internalType": "struct EtherNFTPlace.MarketItem[]",
          "name": "",
          "type": "tuple[]"
        }
      ],
      "stateMutability": "view",
      "type": "function"
    },
    {
      "inputs": [],
      "name": "fetchMyCollections",
      "outputs": [
        {
          "components": [
            {
              "internalType": "uint256",
              "name": "collectionId",
              "type": "uint256"
            },
            {
              "internalType": "address",
              "name": "owner",
              "type": "address"
            },
            {
              "internalType": "string",
              "name": "collectionURI",
              "type": "string"
            }
          ],
          "internalType": "struct EtherNFTPlace.Collection[]",
          "name": "",
          "type": "tuple[]"
        }
      ],
      "stateMutability": "view",
      "type": "function"
    },
    {
      "inputs": [
        {
          "internalType": "uint256",
          "name": "collectionId",
          "type": "uint256"
        }
      ],
      "name": "fetchMyNFTsByCollection",
      "outputs": [
        {
          "components": [
            {
              "internalType": "uint256",
              "name": "tokenId",
              "type": "uint256"
            },
            {
              "internalType": "address",
              "name": "owner",
              "type": "address"
            },
            {
              "internalType": "uint256",
              "name": "collectionId",
              "type": "uint256"
            },
            {
              "internalType": "uint256",
              "name": "price",
              "type": "uint256"
            }
          ],
          "internalType": "struct EtherNFTPlace.NFT[]",
          "name": "",
          "type": "tuple[]"
        }
      ],
      "stateMutability": "view",
      "type": "function"
    },
    {
      "inputs": [
        {
          "internalType": "uint256",
          "name": "tokenId",
          "type": "uint256"
        }
      ],
      "name": "fetchNFTDetails",
      "outputs": [
        {
          "components": [
            {
              "internalType": "uint256",
              "name": "tokenId",
              "type": "uint256"
            },
            {
              "internalType": "address",
              "name": "owner",
              "type": "address"
            },
            {
              "internalType": "uint256",
              "name": "collectionId",
              "type": "uint256"
            },
            {
              "internalType": "uint256",
              "name": "price",
              "type": "uint256"
            }
          ],
          "internalType": "struct EtherNFTPlace.NFT",
          "name": "",
          "type": "tuple"
        }
      ],
      "stateMutability": "view",
      "type": "function"
    },
    {
      "inputs": [
        {
          "internalType": "uint256",
          "name": "tokenId",
          "type": "uint256"
        }
      ],
      "name": "getApproved",
      "outputs": [
        {
          "internalType": "address",
          "name": "",
          "type": "address"
        }
      ],
      "stateMutability": "view",
      "type": "function"
    },
    {
      "inputs": [],
      "name": "getListingPrice",
      "outputs": [
        {
          "internalType": "uint256",
          "name": "",
          "type": "uint256"
        }
      ],
      "stateMutability": "view",
      "type": "function"
    },
    {
      "inputs": [
        {
          "internalType": "address",
          "name": "bidderAddress",
          "type": "address"
        }
      ],
      "name": "getOffersByAddress",
      "outputs": [
        {
          "components": [
            {
              "internalType": "address",
              "name": "bidder",
              "type": "address"
            },
            {
              "internalType": "uint256",
              "name": "amount",
              "type": "uint256"
            },
            {
              "internalType": "uint256",
              "name": "expirationTimestamp",
              "type": "uint256"
            }
          ],
          "internalType": "struct EtherNFTPlace.Offer[]",
          "name": "",
          "type": "tuple[]"
        }
      ],
      "stateMutability": "view",
      "type": "function"
    },
    {
      "inputs": [
        {
          "internalType": "uint256",
          "name": "tokenId",
          "type": "uint256"
        }
      ],
      "name": "getOffersByTokenId",
      "outputs": [
        {
          "components": [
            {
              "internalType": "address",
              "name": "bidder",
              "type": "address"
            },
            {
              "internalType": "uint256",
              "name": "amount",
              "type": "uint256"
            },
            {
              "internalType": "uint256",
              "name": "expirationTimestamp",
              "type": "uint256"
            }
          ],
          "internalType": "struct EtherNFTPlace.Offer[]",
          "name": "",
          "type": "tuple[]"
        }
      ],
      "stateMutability": "view",
      "type": "function"
    },
    {
      "inputs": [
        {
          "internalType": "address",
          "name": "owner",
          "type": "address"
        },
        {
          "internalType": "address",
          "name": "operator",
          "type": "address"
        }
      ],
      "name": "isApprovedForAll",
      "outputs": [
        {
          "internalType": "bool",
          "name": "",
          "type": "bool"
        }
      ],
      "stateMutability": "view",
      "type": "function"
    },
    {
      "inputs": [
        {
          "internalType": "uint256",
          "name": "tokenId",
          "type": "uint256"
        },
        {
          "internalType": "uint256",
          "name": "expirationDays",
          "type": "uint256"
        }
      ],
      "name": "makeOffer",
      "outputs": [],
      "stateMutability": "payable",
      "type": "function"
    },
    {
      "inputs": [],
      "name": "name",
      "outputs": [
        {
          "internalType": "string",
          "name": "",
          "type": "string"
        }
      ],
      "stateMutability": "view",
      "type": "function"
    },
    {
      "inputs": [
        {
          "internalType": "uint256",
          "name": "tokenId",
          "type": "uint256"
        }
      ],
      "name": "ownerOf",
      "outputs": [
        {
          "internalType": "address",
          "name": "",
          "type": "address"
        }
      ],
      "stateMutability": "view",
      "type": "function"
    },
    {
      "inputs": [
        {
          "internalType": "uint256",
          "name": "tokenId",
          "type": "uint256"
        },
        {
          "internalType": "uint256",
          "name": "price",
          "type": "uint256"
        }
      ],
      "name": "resellNFT",
      "outputs": [],
      "stateMutability": "payable",
      "type": "function"
    },
    {
      "inputs": [
        {
          "internalType": "address",
          "name": "from",
          "type": "address"
        },
        {
          "internalType": "address",
          "name": "to",
          "type": "address"
        },
        {
          "internalType": "uint256",
          "name": "tokenId",
          "type": "uint256"
        }
      ],
      "name": "safeTransferFrom",
      "outputs": [],
      "stateMutability": "nonpayable",
      "type": "function"
    },
    {
      "inputs": [
        {
          "internalType": "address",
          "name": "from",
          "type": "address"
        },
        {
          "internalType": "address",
          "name": "to",
          "type": "address"
        },
        {
          "internalType": "uint256",
          "name": "tokenId",
          "type": "uint256"
        },
        {
          "internalType": "bytes",
          "name": "data",
          "type": "bytes"
        }
      ],
      "name": "safeTransferFrom",
      "outputs": [],
      "stateMutability": "nonpayable",
      "type": "function"
    },
    {
      "inputs": [
        {
          "internalType": "address",
          "name": "operator",
          "type": "address"
        },
        {
          "internalType": "bool",
          "name": "approved",
          "type": "bool"
        }
      ],
      "name": "setApprovalForAll",
      "outputs": [],
      "stateMutability": "nonpayable",
      "type": "function"
    },
    {
      "inputs": [
        {
          "internalType": "bytes4",
          "name": "interfaceId",
          "type": "bytes4"
        }
      ],
      "name": "supportsInterface",
      "outputs": [
        {
          "internalType": "bool",
          "name": "",
          "type": "bool"
        }
      ],
      "stateMutability": "view",
      "type": "function"
    },
    {
      "inputs": [],
      "name": "symbol",
      "outputs": [
        {
          "internalType": "string",
          "name": "",
          "type": "string"
        }
      ],
      "stateMutability": "view",
      "type": "function"
    },
    {
      "inputs": [
        {
          "internalType": "uint256",
          "name": "tokenId",
          "type": "uint256"
        }
      ],
      "name": "tokenURI",
      "outputs": [
        {
          "internalType": "string",
          "name": "",
          "type": "string"
        }
      ],
      "stateMutability": "view",
      "type": "function"
    },
    {
      "inputs": [
        {
          "internalType": "address",
          "name": "from",
          "type": "address"
        },
        {
          "internalType": "address",
          "name": "to",
          "type": "address"
        },
        {
          "internalType": "uint256",
          "name": "tokenId",
          "type": "uint256"
        }
      ],
      "name": "transferFrom",
      "outputs": [],
      "stateMutability": "nonpayable",
      "type": "function"
    },
    {
      "inputs": [
        {
          "internalType": "uint256",
          "name": "collectionId",
          "type": "uint256"
        },
        {
          "internalType": "uint256[]",
          "name": "selectedNFTs",
          "type": "uint256[]"
        },
        {
          "internalType": "string",
          "name": "_newCollectionURI",
          "type": "string"
        }
      ],
      "name": "updateCollection",
      "outputs": [],
      "stateMutability": "nonpayable",
      "type": "function"
    },
    {
      "inputs": [
        {
          "internalType": "uint256",
          "name": "_listingPrice",
          "type": "uint256"
        }
      ],
      "name": "updateListingPrice",
      "outputs": [],
      "stateMutability": "payable",
      "type": "function"
    }
  ],
  "bytecode": "0x60806040526658d15e17628000600a553480156200001c57600080fd5b506040518060400160405280601081526020017f4d657461766572736520546f6b656e73000000000000000000000000000000008152506040518060400160405280600481526020017f4d4554540000000000000000000000000000000000000000000000000000000081525081600090816200009a919062000370565b508060019081620000ac919062000370565b50505033600b60006101000a81548173ffffffffffffffffffffffffffffffffffffffff021916908373ffffffffffffffffffffffffffffffffffffffff16021790555062000457565b600081519050919050565b7f4e487b7100000000000000000000000000000000000000000000000000000000600052604160045260246000fd5b7f4e487b7100000000000000000000000000000000000000000000000000000000600052602260045260246000fd5b600060028204905060018216806200017857607f821691505b6020821081036200018e576200018d62000130565b5b50919050565b60008190508160005260206000209050919050565b60006020601f8301049050919050565b600082821b905092915050565b600060088302620001f87fffffffffffffffffffffffffffffffffffffffffffffffffffffffffffffffff82620001b9565b620002048683620001b9565b95508019841693508086168417925050509392505050565b6000819050919050565b6000819050919050565b6000620002516200024b62000245846200021c565b62000226565b6200021c565b9050919050565b6000819050919050565b6200026d8362000230565b620002856200027c8262000258565b848454620001c6565b825550505050565b600090565b6200029c6200028d565b620002a981848462000262565b505050565b5b81811015620002d157620002c560008262000292565b600181019050620002af565b5050565b601f8211156200032057620002ea8162000194565b620002f584620001a9565b8101602085101562000305578190505b6200031d6200031485620001a9565b830182620002ae565b50505b505050565b600082821c905092915050565b6000620003456000198460080262000325565b1980831691505092915050565b600062000360838362000332565b9150826002028217905092915050565b6200037b82620000f6565b67ffffffffffffffff81111562000397576200039662000101565b5b620003a382546200015f565b620003b0828285620002d5565b600060209050601f831160018114620003e85760008415620003d3578287015190505b620003df858262000352565b8655506200044f565b601f198416620003f88662000194565b60005b828110156200042257848901518255600182019150602085019450602081019050620003fb565b868310156200044257848901516200043e601f89168262000332565b8355505b6001600288020188555050505b505050505050565b615eab80620004676000396000f3fe6080604052600436106101b75760003560e01c80636a3bf9dd116100ec578063b88d4fde1161008a578063bfa5e00d11610064578063bfa5e00d14610611578063c87b56dd1461064e578063e985e9c51461068b578063ed634358146106c8576101b7565b8063b88d4fde1461059c578063be9af536146105c5578063bec2a7c5146105e1576101b7565b8063a22cb465116100c6578063a22cb46514610510578063a280d6c814610539578063ac3dfc7314610564578063ae677aa314610580576101b7565b80636a3bf9dd1461046b57806370a08231146104a857806395d89b41146104e5576101b7565b806323b872dd116101595780633eb2a205116101335780633eb2a2051461038b57806342842e0e146103c857806356439ad0146103f15780636352211e1461042e576101b7565b806323b872dd146102fc5780632af505e2146103255780632b22a50914610362576101b7565b8063081812fc11610195578063081812fc14610240578063095ea7b31461027d5780630f08efe0146102a657806312e85585146102d1576101b7565b806301ffc9a7146101bc57806305b7cdd3146101f957806306fdde0314610215575b600080fd5b3480156101c857600080fd5b506101e360048036038101906101de9190613cd8565b6106f1565b6040516101f09190613d20565b60405180910390f35b610213600480360381019061020e9190613d71565b610752565b005b34801561022157600080fd5b5061022a610a20565b6040516102379190613e41565b60405180910390f35b34801561024c57600080fd5b5061026760048036038101906102629190613e63565b610ab2565b6040516102749190613ed1565b60405180910390f35b34801561028957600080fd5b506102a4600480360381019061029f9190613f18565b610af8565b005b3480156102b257600080fd5b506102bb610c0f565b6040516102c891906140ae565b60405180910390f35b3480156102dd57600080fd5b506102e6610e7b565b6040516102f391906140df565b60405180910390f35b34801561030857600080fd5b50610323600480360381019061031e91906140fa565b610e85565b005b34801561033157600080fd5b5061034c60048036038101906103479190613e63565b610ee5565b60405161035991906141f6565b60405180910390f35b34801561036e57600080fd5b5061038960048036038101906103849190614415565b611004565b005b34801561039757600080fd5b506103b260048036038101906103ad9190613e63565b611296565b6040516103bf9190614591565b60405180910390f35b3480156103d457600080fd5b506103ef60048036038101906103ea91906140fa565b611537565b005b3480156103fd57600080fd5b5061041860048036038101906104139190613e63565b611557565b60405161042591906146a4565b60405180910390f35b34801561043a57600080fd5b5061045560048036038101906104509190613e63565b611633565b6040516104629190613ed1565b60405180910390f35b34801561047757600080fd5b50610492600480360381019061048d9190613e63565b6116b9565b60405161049f919061471b565b60405180910390f35b3480156104b457600080fd5b506104cf60048036038101906104ca9190614736565b6117a8565b6040516104dc91906140df565b60405180910390f35b3480156104f157600080fd5b506104fa61185f565b6040516105079190613e41565b60405180910390f35b34801561051c57600080fd5b506105376004803603810190610532919061478f565b6118f1565b005b34801561054557600080fd5b5061054e611907565b60405161055b91906148e1565b60405180910390f35b61057e60048036038101906105799190613d71565b611c0a565b005b61059a60048036038101906105959190613e63565b611f13565b005b3480156105a857600080fd5b506105c360048036038101906105be91906149a4565b611fad565b005b6105df60048036038101906105da9190613e63565b61200f565b005b6105fb60048036038101906105f69190614a27565b61229c565b60405161060891906140df565b60405180910390f35b34801561061d57600080fd5b5061063860048036038101906106339190614736565b6123c3565b60405161064591906146a4565b60405180910390f35b34801561065a57600080fd5b5061067560048036038101906106709190613e63565b6124cb565b6040516106829190613e41565b60405180910390f35b34801561069757600080fd5b506106b260048036038101906106ad9190614a96565b6125dd565b6040516106bf9190613d20565b60405180910390f35b3480156106d457600080fd5b506106ef60048036038101906106ea9190614ad6565b612671565b005b6000634906490660e01b7bffffffffffffffffffffffffffffffffffffffffffffffffffffffff1916827bffffffffffffffffffffffffffffffffffffffffffffffffffffffff1916148061074b575061074a826129da565b5b9050919050565b61075b82612abc565b61079a576040517f08c379a000000000000000000000000000000000000000000000000000000000815260040161079190614bad565b60405180910390fd5b600081116107dd576040517f08c379a00000000000000000000000000000000000000000000000000000000081526004016107d490614c3f565b60405180910390fd5b6000349050600062015180836107f39190614c8e565b426107fe9190614cd0565b905061080984612afd565b6010600085815260200190815260200160002060405180606001604052803373ffffffffffffffffffffffffffffffffffffffff16815260200184815260200183815250908060018154018082558091505060019003906000526020600020906003020160009091909190915060008201518160000160006101000a81548173ffffffffffffffffffffffffffffffffffffffff021916908373ffffffffffffffffffffffffffffffffffffffff16021790555060208201518160010155604082015181600201555050601160003373ffffffffffffffffffffffffffffffffffffffff1673ffffffffffffffffffffffffffffffffffffffff16815260200190815260200160002060405180606001604052803373ffffffffffffffffffffffffffffffffffffffff16815260200184815260200183815250908060018154018082558091505060019003906000526020600020906003020160009091909190915060008201518160000160006101000a81548173ffffffffffffffffffffffffffffffffffffffff021916908373ffffffffffffffffffffffffffffffffffffffff160217905550602082015181600101556040820151816002015550503373ffffffffffffffffffffffffffffffffffffffff16847fbf26a47e2418fff23bee5882ae59627d33e81fa75ab2b1fa08de6cf5f2fa37618484604051610a12929190614d04565b60405180910390a350505050565b606060008054610a2f90614d5c565b80601f0160208091040260200160405190810160405280929190818152602001828054610a5b90614d5c565b8015610aa85780601f10610a7d57610100808354040283529160200191610aa8565b820191906000526020600020905b815481529060010190602001808311610a8b57829003601f168201915b5050505050905090565b6000610abd82612cfa565b6004600083815260200190815260200160002060009054906101000a900473ffffffffffffffffffffffffffffffffffffffff169050919050565b6000610b0382611633565b90508073ffffffffffffffffffffffffffffffffffffffff168373ffffffffffffffffffffffffffffffffffffffff1603610b73576040517f08c379a0000000000000000000000000000000000000000000000000000000008152600401610b6a90614dff565b60405180910390fd5b8073ffffffffffffffffffffffffffffffffffffffff16610b92612d45565b73ffffffffffffffffffffffffffffffffffffffff161480610bc15750610bc081610bbb612d45565b6125dd565b5b610c00576040517f08c379a0000000000000000000000000000000000000000000000000000000008152600401610bf790614e91565b60405180910390fd5b610c0a8383612d4d565b505050565b60606000610c1d6007612e06565b90506000610c2b6009612e06565b610c356007612e06565b610c3f9190614eb1565b90506000808267ffffffffffffffff811115610c5e57610c5d614222565b5b604051908082528060200260200182016040528015610c9757816020015b610c84613b9a565b815260200190600190039081610c7c5790505b5090506000600190505b84811015610e70573073ffffffffffffffffffffffffffffffffffffffff16600e6000600184610cd19190614cd0565b815260200190815260200160002060020160009054906101000a900473ffffffffffffffffffffffffffffffffffffffff1673ffffffffffffffffffffffffffffffffffffffff1603610e5d576000600182610d2d9190614cd0565b90506000600e60008381526020019081526020016000209050806040518060a0016040529081600082015481526020016001820160009054906101000a900473ffffffffffffffffffffffffffffffffffffffff1673ffffffffffffffffffffffffffffffffffffffff1673ffffffffffffffffffffffffffffffffffffffff1681526020016002820160009054906101000a900473ffffffffffffffffffffffffffffffffffffffff1673ffffffffffffffffffffffffffffffffffffffff1673ffffffffffffffffffffffffffffffffffffffff168152602001600382015481526020016004820160009054906101000a900460ff161515151581525050848681518110610e4057610e3f614ee5565b5b6020026020010181905250600185610e589190614cd0565b945050505b8080610e6890614f14565b915050610ca1565b508094505050505090565b6000600a54905090565b610e96610e90612d45565b82612e14565b610ed5576040517f08c379a0000000000000000000000000000000000000000000000000000000008152600401610ecc90614fce565b60405180910390fd5b610ee0838383612ea9565b505050565b610eed613bf7565b600c6000838152602001908152602001600020604051806060016040529081600082015481526020016001820160009054906101000a900473ffffffffffffffffffffffffffffffffffffffff1673ffffffffffffffffffffffffffffffffffffffff1673ffffffffffffffffffffffffffffffffffffffff168152602001600282018054610f7b90614d5c565b80601f0160208091040260200160405190810160405280929190818152602001828054610fa790614d5c565b8015610ff45780601f10610fc957610100808354040283529160200191610ff4565b820191906000526020600020905b815481529060010190602001808311610fd757829003601f168201915b5050505050815250509050919050565b61100e60086131a2565b600061101a6008612e06565b905060405180606001604052808281526020013373ffffffffffffffffffffffffffffffffffffffff16815260200184815250600c60008381526020019081526020016000206000820151816000015560208201518160010160006101000a81548173ffffffffffffffffffffffffffffffffffffffff021916908373ffffffffffffffffffffffffffffffffffffffff16021790555060408201518160020190816110c6919061519a565b50905050807fb0b7b214963f2e16da9cf6ed5851757dfed306875edf1d59e030881102ef24ef33856040516110fc92919061526c565b60405180910390a26000825111156112915760005b825181101561125457600083828151811061112f5761112e614ee5565b5b6020026020010151905061114281612abc565b611181576040517f08c379a0000000000000000000000000000000000000000000000000000000008152600401611178906152e8565b60405180910390fd5b3373ffffffffffffffffffffffffffffffffffffffff16600d600083815260200190815260200160002060010160009054906101000a900473ffffffffffffffffffffffffffffffffffffffff1673ffffffffffffffffffffffffffffffffffffffff1614611225576040517f08c379a000000000000000000000000000000000000000000000000000000000815260040161121c90615354565b60405180910390fd5b82600d60008381526020019081526020016000206002018190555050808061124c90614f14565b915050611111565b507fe40078c1a0c35f7a31b6bc2fffcb1efa8c74af25b8868f94619a0afa890b031b82338360405161128893929190615423565b60405180910390a15b505050565b606060006112a46007612e06565b905060008060005b8381116113605785600d60008381526020019081526020016000206002015414801561133957503373ffffffffffffffffffffffffffffffffffffffff16600d600083815260200190815260200160002060010160009054906101000a900473ffffffffffffffffffffffffffffffffffffffff1673ffffffffffffffffffffffffffffffffffffffff16145b1561134d57828061134990614f14565b9350505b808061135890614f14565b9150506112ac565b5060008267ffffffffffffffff81111561137d5761137c614222565b5b6040519080825280602002602001820160405280156113b657816020015b6113a3613c2e565b81526020019060019003908161139b5790505b5090506000600190505b84811161152a5786600d60008381526020019081526020016000206002015414801561144d57503373ffffffffffffffffffffffffffffffffffffffff16600d600083815260200190815260200160002060010160009054906101000a900473ffffffffffffffffffffffffffffffffffffffff1673ffffffffffffffffffffffffffffffffffffffff16145b15611517576000600d6000838152602001908152602001600020905080604051806080016040529081600082015481526020016001820160009054906101000a900473ffffffffffffffffffffffffffffffffffffffff1673ffffffffffffffffffffffffffffffffffffffff1673ffffffffffffffffffffffffffffffffffffffff168152602001600282015481526020016003820154815250508385815181106114fc576114fb614ee5565b5b6020026020010181905250838061151290614f14565b945050505b808061152290614f14565b9150506113c0565b5080945050505050919050565b61155283838360405180602001604052806000815250611fad565b505050565b606060106000838152602001908152602001600020805480602002602001604051908101604052809291908181526020016000905b8282101561162857838290600052602060002090600302016040518060600160405290816000820160009054906101000a900473ffffffffffffffffffffffffffffffffffffffff1673ffffffffffffffffffffffffffffffffffffffff1673ffffffffffffffffffffffffffffffffffffffff168152602001600182015481526020016002820154815250508152602001906001019061158c565b505050509050919050565b60008061163f836131b8565b9050600073ffffffffffffffffffffffffffffffffffffffff168173ffffffffffffffffffffffffffffffffffffffff16036116b0576040517f08c379a00000000000000000000000000000000000000000000000000000000081526004016116a7906154ad565b60405180910390fd5b80915050919050565b6116c1613c2e565b6116ca82612abc565b611709576040517f08c379a0000000000000000000000000000000000000000000000000000000008152600401611700906152e8565b60405180910390fd5b6000600d6000848152602001908152602001600020604051806080016040529081600082015481526020016001820160009054906101000a900473ffffffffffffffffffffffffffffffffffffffff1673ffffffffffffffffffffffffffffffffffffffff1673ffffffffffffffffffffffffffffffffffffffff16815260200160028201548152602001600382015481525050905080915050919050565b60008073ffffffffffffffffffffffffffffffffffffffff168273ffffffffffffffffffffffffffffffffffffffff1603611818576040517f08c379a000000000000000000000000000000000000000000000000000000000815260040161180f9061553f565b60405180910390fd5b600360008373ffffffffffffffffffffffffffffffffffffffff1673ffffffffffffffffffffffffffffffffffffffff168152602001908152602001600020549050919050565b60606001805461186e90614d5c565b80601f016020809104026020016040519081016040528092919081815260200182805461189a90614d5c565b80156118e75780601f106118bc576101008083540402835291602001916118e7565b820191906000526020600020905b8154815290600101906020018083116118ca57829003601f168201915b5050505050905090565b6119036118fc612d45565b83836131f5565b5050565b606060006119156008612e06565b905060008060005b838110156119bd573373ffffffffffffffffffffffffffffffffffffffff16600c600060018461194d9190614cd0565b815260200190815260200160002060010160009054906101000a900473ffffffffffffffffffffffffffffffffffffffff1673ffffffffffffffffffffffffffffffffffffffff16036119aa576001836119a79190614cd0565b92505b80806119b590614f14565b91505061191d565b5060008267ffffffffffffffff8111156119da576119d9614222565b5b604051908082528060200260200182016040528015611a1357816020015b611a00613bf7565b8152602001906001900390816119f85790505b50905060005b84811015611bff573373ffffffffffffffffffffffffffffffffffffffff16600c6000600184611a499190614cd0565b815260200190815260200160002060010160009054906101000a900473ffffffffffffffffffffffffffffffffffffffff1673ffffffffffffffffffffffffffffffffffffffff1603611bec576000600182611aa59190614cd0565b90506000600c6000838152602001908152602001600020604051806060016040529081600082015481526020016001820160009054906101000a900473ffffffffffffffffffffffffffffffffffffffff1673ffffffffffffffffffffffffffffffffffffffff1673ffffffffffffffffffffffffffffffffffffffff168152602001600282018054611b3790614d5c565b80601f0160208091040260200160405190810160405280929190818152602001828054611b6390614d5c565b8015611bb05780601f10611b8557610100808354040283529160200191611bb0565b820191906000526020600020905b815481529060010190602001808311611b9357829003601f168201915b505050505081525050905080848681518110611bcf57611bce614ee5565b5b6020026020010181905250600185611be79190614cd0565b945050505b8080611bf790614f14565b915050611a19565b508094505050505090565b3373ffffffffffffffffffffffffffffffffffffffff16600e600084815260200190815260200160002060020160009054906101000a900473ffffffffffffffffffffffffffffffffffffffff1673ffffffffffffffffffffffffffffffffffffffff1614611cae576040517f08c379a0000000000000000000000000000000000000000000000000000000008152600401611ca5906155d1565b60405180910390fd5b3373ffffffffffffffffffffffffffffffffffffffff16600d600084815260200190815260200160002060010160009054906101000a900473ffffffffffffffffffffffffffffffffffffffff1673ffffffffffffffffffffffffffffffffffffffff1614611d52576040517f08c379a0000000000000000000000000000000000000000000000000000000008152600401611d49906155d1565b60405180910390fd5b600a543414611d96576040517f08c379a0000000000000000000000000000000000000000000000000000000008152600401611d8d90615663565b60405180910390fd5b30600d600084815260200190815260200160002060010160006101000a81548173ffffffffffffffffffffffffffffffffffffffff021916908373ffffffffffffffffffffffffffffffffffffffff16021790555080600d6000848152602001908152602001600020600301819055506000600e600084815260200190815260200160002060040160006101000a81548160ff02191690831515021790555080600e60008481526020019081526020016000206003018190555033600e600084815260200190815260200160002060010160006101000a81548173ffffffffffffffffffffffffffffffffffffffff021916908373ffffffffffffffffffffffffffffffffffffffff16021790555030600e600084815260200190815260200160002060020160006101000a81548173ffffffffffffffffffffffffffffffffffffffff021916908373ffffffffffffffffffffffffffffffffffffffff160217905550611f046009613361565b611f0f333084612ea9565b5050565b3373ffffffffffffffffffffffffffffffffffffffff16600b60009054906101000a900473ffffffffffffffffffffffffffffffffffffffff1673ffffffffffffffffffffffffffffffffffffffff1614611fa3576040517f08c379a0000000000000000000000000000000000000000000000000000000008152600401611f9a906156f5565b60405180910390fd5b80600a8190555050565b611fbe611fb8612d45565b83612e14565b611ffd576040517f08c379a0000000000000000000000000000000000000000000000000000000008152600401611ff490614fce565b60405180910390fd5b612009848484846133bd565b50505050565b6000600e600083815260200190815260200160002060030154905080341461206c576040517f08c379a000000000000000000000000000000000000000000000000000000000815260040161206390615787565b60405180910390fd5b33600d600084815260200190815260200160002060010160006101000a81548173ffffffffffffffffffffffffffffffffffffffff021916908373ffffffffffffffffffffffffffffffffffffffff16021790555033600e600084815260200190815260200160002060020160006101000a81548173ffffffffffffffffffffffffffffffffffffffff021916908373ffffffffffffffffffffffffffffffffffffffff1602179055506001600e600084815260200190815260200160002060040160006101000a81548160ff0219169083151502179055506000600e600084815260200190815260200160002060010160006101000a81548173ffffffffffffffffffffffffffffffffffffffff021916908373ffffffffffffffffffffffffffffffffffffffff1602179055506121a560096131a2565b6121b0303384612ea9565b600b60009054906101000a900473ffffffffffffffffffffffffffffffffffffffff1673ffffffffffffffffffffffffffffffffffffffff166108fc600a549081150290604051600060405180830381858888f1935050505015801561221a573d6000803e3d6000fd5b50600e600083815260200190815260200160002060010160009054906101000a900473ffffffffffffffffffffffffffffffffffffffff1673ffffffffffffffffffffffffffffffffffffffff166108fc349081150290604051600060405180830381858888f19350505050158015612297573d6000803e3d6000fd5b505050565b60006122a860076131a2565b60006122b46007612e06565b90506122c03382613419565b6122ca8186613636565b60405180608001604052808281526020013373ffffffffffffffffffffffffffffffffffffffff16815260200185815260200184815250600d60008381526020019081526020016000206000820151816000015560208201518160010160006101000a81548173ffffffffffffffffffffffffffffffffffffffff021916908373ffffffffffffffffffffffffffffffffffffffff1602179055506040820151816002015560608201518160030155905050807f23cbb18bfb096672f2fc538a6d637483d9db0f85666ae980eba20ae2874da1a43386866040516123b0939291906157a7565b60405180910390a2809150509392505050565b6060601160008373ffffffffffffffffffffffffffffffffffffffff1673ffffffffffffffffffffffffffffffffffffffff168152602001908152602001600020805480602002602001604051908101604052809291908181526020016000905b828210156124c057838290600052602060002090600302016040518060600160405290816000820160009054906101000a900473ffffffffffffffffffffffffffffffffffffffff1673ffffffffffffffffffffffffffffffffffffffff1673ffffffffffffffffffffffffffffffffffffffff1681526020016001820154815260200160028201548152505081526020019060010190612424565b505050509050919050565b60606124d682612cfa565b60006006600084815260200190815260200160002080546124f690614d5c565b80601f016020809104026020016040519081016040528092919081815260200182805461252290614d5c565b801561256f5780601f106125445761010080835404028352916020019161256f565b820191906000526020600020905b81548152906001019060200180831161255257829003601f168201915b5050505050905060006125806136da565b905060008151036125955781925050506125d8565b6000825111156125ca5780826040516020016125b292919061581a565b604051602081830303815290604052925050506125d8565b6125d3846136f1565b925050505b919050565b6000600560008473ffffffffffffffffffffffffffffffffffffffff1673ffffffffffffffffffffffffffffffffffffffff16815260200190815260200160002060008373ffffffffffffffffffffffffffffffffffffffff1673ffffffffffffffffffffffffffffffffffffffff16815260200190815260200160002060009054906101000a900460ff16905092915050565b3373ffffffffffffffffffffffffffffffffffffffff16600c600085815260200190815260200160002060010160009054906101000a900473ffffffffffffffffffffffffffffffffffffffff1673ffffffffffffffffffffffffffffffffffffffff1614612715576040517f08c379a000000000000000000000000000000000000000000000000000000000815260040161270c9061588a565b60405180910390fd5b6000600f6000858152602001908152602001600020905081600c6000868152602001908152602001600020600201908161274f919061519a565b50837fc96b737485b93f5411fcc8444621944a2e03644f957e268c6affb0a2bd3b84bf338460405161278292919061526c565b60405180910390a26000835111156129d45760005b83518110156129975760008482815181106127b5576127b4614ee5565b5b602002602001015190506127c881612abc565b612807576040517f08c379a00000000000000000000000000000000000000000000000000000000081526004016127fe906152e8565b60405180910390fd5b3373ffffffffffffffffffffffffffffffffffffffff16600d600083815260200190815260200160002060010160009054906101000a900473ffffffffffffffffffffffffffffffffffffffff1673ffffffffffffffffffffffffffffffffffffffff16146128ab576040517f08c379a00000000000000000000000000000000000000000000000000000000081526004016128a290615354565b60405180910390fd5b85600d60008381526020019081526020016000206002015414612903576040517f08c379a00000000000000000000000000000000000000000000000000000000081526004016128fa9061591c565b60405180910390fd5b6000805b8480549050811015612953578285828154811061292757612926614ee5565b5b9060005260206000200154036129405760019150612953565b808061294b90614f14565b915050612907565b508061298257838290806001815401808255809150506001900390600052602060002001600090919091909150555b5050808061298f90614f14565b915050612797565b507fe40078c1a0c35f7a31b6bc2fffcb1efa8c74af25b8868f94619a0afa890b031b8333866040516129cb93929190615423565b60405180910390a15b50505050565b60007f80ac58cd000000000000000000000000000000000000000000000000000000007bffffffffffffffffffffffffffffffffffffffffffffffffffffffff1916827bffffffffffffffffffffffffffffffffffffffffffffffffffffffff19161480612aa557507f5b5e139f000000000000000000000000000000000000000000000000000000007bffffffffffffffffffffffffffffffffffffffffffffffffffffffff1916827bffffffffffffffffffffffffffffffffffffffffffffffffffffffff1916145b80612ab55750612ab482613759565b5b9050919050565b60008073ffffffffffffffffffffffffffffffffffffffff16612ade836131b8565b73ffffffffffffffffffffffffffffffffffffffff1614159050919050565b600060106000838152602001908152602001600020905060005b8180549050811015612cf557818181548110612b3657612b35614ee5565b5b9060005260206000209060030201600201544210612ce15760018280549050612b5f9190614eb1565b811015612c37578160018380549050612b789190614eb1565b81548110612b8957612b88614ee5565b5b9060005260206000209060030201828281548110612baa57612ba9614ee5565b5b90600052602060002090600302016000820160009054906101000a900473ffffffffffffffffffffffffffffffffffffffff168160000160006101000a81548173ffffffffffffffffffffffffffffffffffffffff021916908373ffffffffffffffffffffffffffffffffffffffff16021790555060018201548160010155600282015481600201559050505b81805480612c4857612c4761593c565b5b6001900381819060005260206000209060030201600080820160006101000a81549073ffffffffffffffffffffffffffffffffffffffff021916905560018201600090556002820160009055505090553373ffffffffffffffffffffffffffffffffffffffff16837f2e8af6a053bc85443cdcc0eb4bc27edb2a41dd5d1605e76bbd7f687f3f4adc6a60405160405180910390a3612cf0565b8080612cec90614f14565b9150505b612b17565b505050565b612d0381612abc565b612d42576040517f08c379a0000000000000000000000000000000000000000000000000000000008152600401612d39906154ad565b60405180910390fd5b50565b600033905090565b816004600083815260200190815260200160002060006101000a81548173ffffffffffffffffffffffffffffffffffffffff021916908373ffffffffffffffffffffffffffffffffffffffff160217905550808273ffffffffffffffffffffffffffffffffffffffff16612dc083611633565b73ffffffffffffffffffffffffffffffffffffffff167f8c5be1e5ebec7d5bd14f71427d1e84f3dd0314c0f7b2291e5b200ac8c7c3b92560405160405180910390a45050565b600081600001549050919050565b600080612e2083611633565b90508073ffffffffffffffffffffffffffffffffffffffff168473ffffffffffffffffffffffffffffffffffffffff161480612e625750612e6181856125dd565b5b80612ea057508373ffffffffffffffffffffffffffffffffffffffff16612e8884610ab2565b73ffffffffffffffffffffffffffffffffffffffff16145b91505092915050565b8273ffffffffffffffffffffffffffffffffffffffff16612ec982611633565b73ffffffffffffffffffffffffffffffffffffffff1614612f1f576040517f08c379a0000000000000000000000000000000000000000000000000000000008152600401612f16906159dd565b60405180910390fd5b600073ffffffffffffffffffffffffffffffffffffffff168273ffffffffffffffffffffffffffffffffffffffff1603612f8e576040517f08c379a0000000000000000000000000000000000000000000000000000000008152600401612f8590615a6f565b60405180910390fd5b612f9b83838360016137c3565b8273ffffffffffffffffffffffffffffffffffffffff16612fbb82611633565b73ffffffffffffffffffffffffffffffffffffffff1614613011576040517f08c379a0000000000000000000000000000000000000000000000000000000008152600401613008906159dd565b60405180910390fd5b6004600082815260200190815260200160002060006101000a81549073ffffffffffffffffffffffffffffffffffffffff02191690556001600360008573ffffffffffffffffffffffffffffffffffffffff1673ffffffffffffffffffffffffffffffffffffffff168152602001908152602001600020600082825403925050819055506001600360008473ffffffffffffffffffffffffffffffffffffffff1673ffffffffffffffffffffffffffffffffffffffff16815260200190815260200160002060008282540192505081905550816002600083815260200190815260200160002060006101000a81548173ffffffffffffffffffffffffffffffffffffffff021916908373ffffffffffffffffffffffffffffffffffffffff160217905550808273ffffffffffffffffffffffffffffffffffffffff168473ffffffffffffffffffffffffffffffffffffffff167fddf252ad1be2c89b69c2b068fc378daa952ba7f163c4a11628f55a4df523b3ef60405160405180910390a461319d83838360016137c9565b505050565b6001816000016000828254019250508190555050565b60006002600083815260200190815260200160002060009054906101000a900473ffffffffffffffffffffffffffffffffffffffff169050919050565b8173ffffffffffffffffffffffffffffffffffffffff168373ffffffffffffffffffffffffffffffffffffffff1603613263576040517f08c379a000000000000000000000000000000000000000000000000000000000815260040161325a90615adb565b60405180910390fd5b80600560008573ffffffffffffffffffffffffffffffffffffffff1673ffffffffffffffffffffffffffffffffffffffff16815260200190815260200160002060008473ffffffffffffffffffffffffffffffffffffffff1673ffffffffffffffffffffffffffffffffffffffff16815260200190815260200160002060006101000a81548160ff0219169083151502179055508173ffffffffffffffffffffffffffffffffffffffff168373ffffffffffffffffffffffffffffffffffffffff167f17307eab39ab6107e8899845ad3d59bd9653f200f220920489ca2b5937696c31836040516133549190613d20565b60405180910390a3505050565b600081600001549050600081116133ad576040517f08c379a00000000000000000000000000000000000000000000000000000000081526004016133a490615b47565b60405180910390fd5b6001810382600001819055505050565b6133c8848484612ea9565b6133d4848484846137cf565b613413576040517f08c379a000000000000000000000000000000000000000000000000000000000815260040161340a90615bd9565b60405180910390fd5b50505050565b600073ffffffffffffffffffffffffffffffffffffffff168273ffffffffffffffffffffffffffffffffffffffff1603613488576040517f08c379a000000000000000000000000000000000000000000000000000000000815260040161347f90615c45565b60405180910390fd5b61349181612abc565b156134d1576040517f08c379a00000000000000000000000000000000000000000000000000000000081526004016134c890615cb1565b60405180910390fd5b6134df6000838360016137c3565b6134e881612abc565b15613528576040517f08c379a000000000000000000000000000000000000000000000000000000000815260040161351f90615cb1565b60405180910390fd5b6001600360008473ffffffffffffffffffffffffffffffffffffffff1673ffffffffffffffffffffffffffffffffffffffff16815260200190815260200160002060008282540192505081905550816002600083815260200190815260200160002060006101000a81548173ffffffffffffffffffffffffffffffffffffffff021916908373ffffffffffffffffffffffffffffffffffffffff160217905550808273ffffffffffffffffffffffffffffffffffffffff16600073ffffffffffffffffffffffffffffffffffffffff167fddf252ad1be2c89b69c2b068fc378daa952ba7f163c4a11628f55a4df523b3ef60405160405180910390a46136326000838360016137c9565b5050565b61363f82612abc565b61367e576040517f08c379a000000000000000000000000000000000000000000000000000000000815260040161367590615d43565b60405180910390fd5b8060066000848152602001908152602001600020908161369e919061519a565b507ff8e1a15aba9398e019f0b49df1a4fde98ee17ae345cb5f6b5e2c27f5033e8ce7826040516136ce91906140df565b60405180910390a15050565b606060405180602001604052806000815250905090565b60606136fc82612cfa565b60006137066136da565b905060008151116137265760405180602001604052806000815250613751565b8061373084613956565b60405160200161374192919061581a565b6040516020818303038152906040525b915050919050565b60007f01ffc9a7000000000000000000000000000000000000000000000000000000007bffffffffffffffffffffffffffffffffffffffffffffffffffffffff1916827bffffffffffffffffffffffffffffffffffffffffffffffffffffffff1916149050919050565b50505050565b50505050565b60006137f08473ffffffffffffffffffffffffffffffffffffffff16613a24565b15613949578373ffffffffffffffffffffffffffffffffffffffff1663150b7a02613819612d45565b8786866040518563ffffffff1660e01b815260040161383b9493929190615db8565b6020604051808303816000875af192505050801561387757506040513d601f19601f820116820180604052508101906138749190615e19565b60015b6138f9573d80600081146138a7576040519150601f19603f3d011682016040523d82523d6000602084013e6138ac565b606091505b5060008151036138f1576040517f08c379a00000000000000000000000000000000000000000000000000000000081526004016138e890615bd9565b60405180910390fd5b805181602001fd5b63150b7a0260e01b7bffffffffffffffffffffffffffffffffffffffffffffffffffffffff1916817bffffffffffffffffffffffffffffffffffffffffffffffffffffffff19161491505061394e565b600190505b949350505050565b60606000600161396584613a47565b01905060008167ffffffffffffffff81111561398457613983614222565b5b6040519080825280601f01601f1916602001820160405280156139b65781602001600182028036833780820191505090505b509050600082602001820190505b600115613a19578080600190039150507f3031323334353637383961626364656600000000000000000000000000000000600a86061a8153600a8581613a0d57613a0c615e46565b5b049450600085036139c4575b819350505050919050565b6000808273ffffffffffffffffffffffffffffffffffffffff163b119050919050565b600080600090507a184f03e93ff9f4daa797ed6e38ed64bf6a1f0100000000000000008310613aa5577a184f03e93ff9f4daa797ed6e38ed64bf6a1f0100000000000000008381613a9b57613a9a615e46565b5b0492506040810190505b6d04ee2d6d415b85acef81000000008310613ae2576d04ee2d6d415b85acef81000000008381613ad857613ad7615e46565b5b0492506020810190505b662386f26fc100008310613b1157662386f26fc100008381613b0757613b06615e46565b5b0492506010810190505b6305f5e1008310613b3a576305f5e1008381613b3057613b2f615e46565b5b0492506008810190505b6127108310613b5f576127108381613b5557613b54615e46565b5b0492506004810190505b60648310613b825760648381613b7857613b77615e46565b5b0492506002810190505b600a8310613b91576001810190505b80915050919050565b6040518060a0016040528060008152602001600073ffffffffffffffffffffffffffffffffffffffff168152602001600073ffffffffffffffffffffffffffffffffffffffff168152602001600081526020016000151581525090565b604051806060016040528060008152602001600073ffffffffffffffffffffffffffffffffffffffff168152602001606081525090565b604051806080016040528060008152602001600073ffffffffffffffffffffffffffffffffffffffff16815260200160008152602001600081525090565b6000604051905090565b600080fd5b600080fd5b60007fffffffff0000000000000000000000000000000000000000000000000000000082169050919050565b613cb581613c80565b8114613cc057600080fd5b50565b600081359050613cd281613cac565b92915050565b600060208284031215613cee57613ced613c76565b5b6000613cfc84828501613cc3565b91505092915050565b60008115159050919050565b613d1a81613d05565b82525050565b6000602082019050613d356000830184613d11565b92915050565b6000819050919050565b613d4e81613d3b565b8114613d5957600080fd5b50565b600081359050613d6b81613d45565b92915050565b60008060408385031215613d8857613d87613c76565b5b6000613d9685828601613d5c565b9250506020613da785828601613d5c565b9150509250929050565b600081519050919050565b600082825260208201905092915050565b60005b83811015613deb578082015181840152602081019050613dd0565b60008484015250505050565b6000601f19601f8301169050919050565b6000613e1382613db1565b613e1d8185613dbc565b9350613e2d818560208601613dcd565b613e3681613df7565b840191505092915050565b60006020820190508181036000830152613e5b8184613e08565b905092915050565b600060208284031215613e7957613e78613c76565b5b6000613e8784828501613d5c565b91505092915050565b600073ffffffffffffffffffffffffffffffffffffffff82169050919050565b6000613ebb82613e90565b9050919050565b613ecb81613eb0565b82525050565b6000602082019050613ee66000830184613ec2565b92915050565b613ef581613eb0565b8114613f0057600080fd5b50565b600081359050613f1281613eec565b92915050565b60008060408385031215613f2f57613f2e613c76565b5b6000613f3d85828601613f03565b9250506020613f4e85828601613d5c565b9150509250929050565b600081519050919050565b600082825260208201905092915050565b6000819050602082019050919050565b613f8d81613d3b565b82525050565b6000613f9e82613e90565b9050919050565b613fae81613f93565b82525050565b613fbd81613d05565b82525050565b60a082016000820151613fd96000850182613f84565b506020820151613fec6020850182613fa5565b506040820151613fff6040850182613fa5565b5060608201516140126060850182613f84565b5060808201516140256080850182613fb4565b50505050565b60006140378383613fc3565b60a08301905092915050565b6000602082019050919050565b600061405b82613f58565b6140658185613f63565b935061407083613f74565b8060005b838110156140a1578151614088888261402b565b975061409383614043565b925050600181019050614074565b5085935050505092915050565b600060208201905081810360008301526140c88184614050565b905092915050565b6140d981613d3b565b82525050565b60006020820190506140f460008301846140d0565b92915050565b60008060006060848603121561411357614112613c76565b5b600061412186828701613f03565b935050602061413286828701613f03565b925050604061414386828701613d5c565b9150509250925092565b61415681613eb0565b82525050565b600082825260208201905092915050565b600061417882613db1565b614182818561415c565b9350614192818560208601613dcd565b61419b81613df7565b840191505092915050565b60006060830160008301516141be6000860182613f84565b5060208301516141d1602086018261414d565b50604083015184820360408601526141e9828261416d565b9150508091505092915050565b6000602082019050818103600083015261421081846141a6565b905092915050565b600080fd5b600080fd5b7f4e487b7100000000000000000000000000000000000000000000000000000000600052604160045260246000fd5b61425a82613df7565b810181811067ffffffffffffffff8211171561427957614278614222565b5b80604052505050565b600061428c613c6c565b90506142988282614251565b919050565b600067ffffffffffffffff8211156142b8576142b7614222565b5b6142c182613df7565b9050602081019050919050565b82818337600083830152505050565b60006142f06142eb8461429d565b614282565b90508281526020810184848401111561430c5761430b61421d565b5b6143178482856142ce565b509392505050565b600082601f83011261433457614333614218565b5b81356143448482602086016142dd565b91505092915050565b600067ffffffffffffffff82111561436857614367614222565b5b602082029050602081019050919050565b600080fd5b600061439161438c8461434d565b614282565b905080838252602082019050602084028301858111156143b4576143b3614379565b5b835b818110156143dd57806143c98882613d5c565b8452602084019350506020810190506143b6565b5050509392505050565b600082601f8301126143fc576143fb614218565b5b813561440c84826020860161437e565b91505092915050565b6000806040838503121561442c5761442b613c76565b5b600083013567ffffffffffffffff81111561444a57614449613c7b565b5b6144568582860161431f565b925050602083013567ffffffffffffffff81111561447757614476613c7b565b5b614483858286016143e7565b9150509250929050565b600081519050919050565b600082825260208201905092915050565b6000819050602082019050919050565b6080820160008201516144cf6000850182613f84565b5060208201516144e2602085018261414d565b5060408201516144f56040850182613f84565b5060608201516145086060850182613f84565b50505050565b600061451a83836144b9565b60808301905092915050565b6000602082019050919050565b600061453e8261448d565b6145488185614498565b9350614553836144a9565b8060005b8381101561458457815161456b888261450e565b975061457683614526565b925050600181019050614557565b5085935050505092915050565b600060208201905081810360008301526145ab8184614533565b905092915050565b600081519050919050565b600082825260208201905092915050565b6000819050602082019050919050565b6060820160008201516145f5600085018261414d565b5060208201516146086020850182613f84565b50604082015161461b6040850182613f84565b50505050565b600061462d83836145df565b60608301905092915050565b6000602082019050919050565b6000614651826145b3565b61465b81856145be565b9350614666836145cf565b8060005b8381101561469757815161467e8882614621565b975061468983614639565b92505060018101905061466a565b5085935050505092915050565b600060208201905081810360008301526146be8184614646565b905092915050565b6080820160008201516146dc6000850182613f84565b5060208201516146ef602085018261414d565b5060408201516147026040850182613f84565b5060608201516147156060850182613f84565b50505050565b600060808201905061473060008301846146c6565b92915050565b60006020828403121561474c5761474b613c76565b5b600061475a84828501613f03565b91505092915050565b61476c81613d05565b811461477757600080fd5b50565b60008135905061478981614763565b92915050565b600080604083850312156147a6576147a5613c76565b5b60006147b485828601613f03565b92505060206147c58582860161477a565b9150509250929050565b600081519050919050565b600082825260208201905092915050565b6000819050602082019050919050565b60006060830160008301516148136000860182613f84565b506020830151614826602086018261414d565b506040830151848203604086015261483e828261416d565b9150508091505092915050565b600061485783836147fb565b905092915050565b6000602082019050919050565b6000614877826147cf565b61488181856147da565b935083602082028501614893856147eb565b8060005b858110156148cf57848403895281516148b0858261484b565b94506148bb8361485f565b925060208a01995050600181019050614897565b50829750879550505050505092915050565b600060208201905081810360008301526148fb818461486c565b905092915050565b600067ffffffffffffffff82111561491e5761491d614222565b5b61492782613df7565b9050602081019050919050565b600061494761494284614903565b614282565b9050828152602081018484840111156149635761496261421d565b5b61496e8482856142ce565b509392505050565b600082601f83011261498b5761498a614218565b5b813561499b848260208601614934565b91505092915050565b600080600080608085870312156149be576149bd613c76565b5b60006149cc87828801613f03565b94505060206149dd87828801613f03565b93505060406149ee87828801613d5c565b925050606085013567ffffffffffffffff811115614a0f57614a0e613c7b565b5b614a1b87828801614976565b91505092959194509250565b600080600060608486031215614a4057614a3f613c76565b5b600084013567ffffffffffffffff811115614a5e57614a5d613c7b565b5b614a6a8682870161431f565b9350506020614a7b86828701613d5c565b9250506040614a8c86828701613d5c565b9150509250925092565b60008060408385031215614aad57614aac613c76565b5b6000614abb85828601613f03565b9250506020614acc85828601613f03565b9150509250929050565b600080600060608486031215614aef57614aee613c76565b5b6000614afd86828701613d5c565b935050602084013567ffffffffffffffff811115614b1e57614b1d613c7b565b5b614b2a868287016143e7565b925050604084013567ffffffffffffffff811115614b4b57614b4a613c7b565b5b614b578682870161431f565b9150509250925092565b7f4e465420646f6573206e6f742065786973747300000000000000000000000000600082015250565b6000614b97601383613dbc565b9150614ba282614b61565b602082019050919050565b60006020820190508181036000830152614bc681614b8a565b9050919050565b7f45787069726174696f6e2064617973206d75737420626520677265617465722060008201527f7468656e20300000000000000000000000000000000000000000000000000000602082015250565b6000614c29602683613dbc565b9150614c3482614bcd565b604082019050919050565b60006020820190508181036000830152614c5881614c1c565b9050919050565b7f4e487b7100000000000000000000000000000000000000000000000000000000600052601160045260246000fd5b6000614c9982613d3b565b9150614ca483613d3b565b9250828202614cb281613d3b565b91508282048414831517614cc957614cc8614c5f565b5b5092915050565b6000614cdb82613d3b565b9150614ce683613d3b565b9250828201905080821115614cfe57614cfd614c5f565b5b92915050565b6000604082019050614d1960008301856140d0565b614d2660208301846140d0565b9392505050565b7f4e487b7100000000000000000000000000000000000000000000000000000000600052602260045260246000fd5b60006002820490506001821680614d7457607f821691505b602082108103614d8757614d86614d2d565b5b50919050565b7f4552433732313a20617070726f76616c20746f2063757272656e74206f776e6560008201527f7200000000000000000000000000000000000000000000000000000000000000602082015250565b6000614de9602183613dbc565b9150614df482614d8d565b604082019050919050565b60006020820190508181036000830152614e1881614ddc565b9050919050565b7f4552433732313a20617070726f76652063616c6c6572206973206e6f7420746f60008201527f6b656e206f776e6572206f7220617070726f76656420666f7220616c6c000000602082015250565b6000614e7b603d83613dbc565b9150614e8682614e1f565b604082019050919050565b60006020820190508181036000830152614eaa81614e6e565b9050919050565b6000614ebc82613d3b565b9150614ec783613d3b565b9250828203905081811115614edf57614ede614c5f565b5b92915050565b7f4e487b7100000000000000000000000000000000000000000000000000000000600052603260045260246000fd5b6000614f1f82613d3b565b91507fffffffffffffffffffffffffffffffffffffffffffffffffffffffffffffffff8203614f5157614f50614c5f565b5b600182019050919050565b7f4552433732313a2063616c6c6572206973206e6f7420746f6b656e206f776e6560008201527f72206f7220617070726f76656400000000000000000000000000000000000000602082015250565b6000614fb8602d83613dbc565b9150614fc382614f5c565b604082019050919050565b60006020820190508181036000830152614fe781614fab565b9050919050565b60008190508160005260206000209050919050565b60006020601f8301049050919050565b600082821b905092915050565b6000600883026150507fffffffffffffffffffffffffffffffffffffffffffffffffffffffffffffffff82615013565b61505a8683615013565b95508019841693508086168417925050509392505050565b6000819050919050565b600061509761509261508d84613d3b565b615072565b613d3b565b9050919050565b6000819050919050565b6150b18361507c565b6150c56150bd8261509e565b848454615020565b825550505050565b600090565b6150da6150cd565b6150e58184846150a8565b505050565b5b81811015615109576150fe6000826150d2565b6001810190506150eb565b5050565b601f82111561514e5761511f81614fee565b61512884615003565b81016020851015615137578190505b61514b61514385615003565b8301826150ea565b50505b505050565b600082821c905092915050565b600061517160001984600802615153565b1980831691505092915050565b600061518a8383615160565b9150826002028217905092915050565b6151a382613db1565b67ffffffffffffffff8111156151bc576151bb614222565b5b6151c68254614d5c565b6151d182828561510d565b600060209050601f83116001811461520457600084156151f2578287015190505b6151fc858261517e565b865550615264565b601f19841661521286614fee565b60005b8281101561523a57848901518255600182019150602085019450602081019050615215565b868310156152575784890151615253601f891682615160565b8355505b6001600288020188555050505b505050505050565b60006040820190506152816000830185613ec2565b81810360208301526152938184613e08565b90509392505050565b7f4e465420646f6573206e6f742065786973740000000000000000000000000000600082015250565b60006152d2601283613dbc565b91506152dd8261529c565b602082019050919050565b60006020820190508181036000830152615301816152c5565b9050919050565b7f4e6f7420746865206f776e6572206f6620746865204e46540000000000000000600082015250565b600061533e601883613dbc565b915061534982615308565b602082019050919050565b6000602082019050818103600083015261536d81615331565b9050919050565b600081519050919050565b600082825260208201905092915050565b6000819050602082019050919050565b60006153ac8383613f84565b60208301905092915050565b6000602082019050919050565b60006153d082615374565b6153da818561537f565b93506153e583615390565b8060005b838110156154165781516153fd88826153a0565b9750615408836153b8565b9250506001810190506153e9565b5085935050505092915050565b6000606082019050818103600083015261543d81866153c5565b905061544c6020830185613ec2565b61545960408301846140d0565b949350505050565b7f4552433732313a20696e76616c696420746f6b656e2049440000000000000000600082015250565b6000615497601883613dbc565b91506154a282615461565b602082019050919050565b600060208201905081810360008301526154c68161548a565b9050919050565b7f4552433732313a2061646472657373207a65726f206973206e6f74206120766160008201527f6c6964206f776e65720000000000000000000000000000000000000000000000602082015250565b6000615529602983613dbc565b9150615534826154cd565b604082019050919050565b600060208201905081810360008301526155588161551c565b9050919050565b7f4f6e6c79206974656d206f776e65722063616e20706572666f726d207468697360008201527f206f7065726174696f6e00000000000000000000000000000000000000000000602082015250565b60006155bb602a83613dbc565b91506155c68261555f565b604082019050919050565b600060208201905081810360008301526155ea816155ae565b9050919050565b7f5072696365206d757374206265207175616c20746f206c697374696e6720707260008201527f6963650000000000000000000000000000000000000000000000000000000000602082015250565b600061564d602383613dbc565b9150615658826155f1565b604082019050919050565b6000602082019050818103600083015261567c81615640565b9050919050565b7f4f6e6c79206d61726b6574706c616365206f776e65722063616e20757064617460008201527f6520746865206c697374696e6720707269636500000000000000000000000000602082015250565b60006156df603383613dbc565b91506156ea82615683565b604082019050919050565b6000602082019050818103600083015261570e816156d2565b9050919050565b7f506c65617365207375626d6974207468652061736b696e67207072696365206960008201527f6e206f7264657220746f20636f6d706c65746520746865207075726368617365602082015250565b6000615771604083613dbc565b915061577c82615715565b604082019050919050565b600060208201905081810360008301526157a081615764565b9050919050565b60006060820190506157bc6000830186613ec2565b6157c960208301856140d0565b6157d660408301846140d0565b949350505050565b600081905092915050565b60006157f482613db1565b6157fe81856157de565b935061580e818560208601613dcd565b80840191505092915050565b600061582682856157e9565b915061583282846157e9565b91508190509392505050565b7f4e6f7420746865206f776e6572206f662074686520636f6c6c656374696f6e00600082015250565b6000615874601f83613dbc565b915061587f8261583e565b602082019050919050565b600060208201905081810360008301526158a381615867565b9050919050565b7f4e465420646f6573206e6f742062656c6f6e6720746f2074686520636f6c6c6560008201527f6374696f6e000000000000000000000000000000000000000000000000000000602082015250565b6000615906602583613dbc565b9150615911826158aa565b604082019050919050565b60006020820190508181036000830152615935816158f9565b9050919050565b7f4e487b7100000000000000000000000000000000000000000000000000000000600052603160045260246000fd5b7f4552433732313a207472616e736665722066726f6d20696e636f72726563742060008201527f6f776e6572000000000000000000000000000000000000000000000000000000602082015250565b60006159c7602583613dbc565b91506159d28261596b565b604082019050919050565b600060208201905081810360008301526159f6816159ba565b9050919050565b7f4552433732313a207472616e7366657220746f20746865207a65726f2061646460008201527f7265737300000000000000000000000000000000000000000000000000000000602082015250565b6000615a59602483613dbc565b9150615a64826159fd565b604082019050919050565b60006020820190508181036000830152615a8881615a4c565b9050919050565b7f4552433732313a20617070726f766520746f2063616c6c657200000000000000600082015250565b6000615ac5601983613dbc565b9150615ad082615a8f565b602082019050919050565b60006020820190508181036000830152615af481615ab8565b9050919050565b7f436f756e7465723a2064656372656d656e74206f766572666c6f770000000000600082015250565b6000615b31601b83613dbc565b9150615b3c82615afb565b602082019050919050565b60006020820190508181036000830152615b6081615b24565b9050919050565b7f4552433732313a207472616e7366657220746f206e6f6e20455243373231526560008201527f63656976657220696d706c656d656e7465720000000000000000000000000000602082015250565b6000615bc3603283613dbc565b9150615bce82615b67565b604082019050919050565b60006020820190508181036000830152615bf281615bb6565b9050919050565b7f4552433732313a206d696e7420746f20746865207a65726f2061646472657373600082015250565b6000615c2f602083613dbc565b9150615c3a82615bf9565b602082019050919050565b60006020820190508181036000830152615c5e81615c22565b9050919050565b7f4552433732313a20746f6b656e20616c7265616479206d696e74656400000000600082015250565b6000615c9b601c83613dbc565b9150615ca682615c65565b602082019050919050565b60006020820190508181036000830152615cca81615c8e565b9050919050565b7f45524337323155524953746f726167653a2055524920736574206f66206e6f6e60008201527f6578697374656e7420746f6b656e000000000000000000000000000000000000602082015250565b6000615d2d602e83613dbc565b9150615d3882615cd1565b604082019050919050565b60006020820190508181036000830152615d5c81615d20565b9050919050565b600081519050919050565b600082825260208201905092915050565b6000615d8a82615d63565b615d948185615d6e565b9350615da4818560208601613dcd565b615dad81613df7565b840191505092915050565b6000608082019050615dcd6000830187613ec2565b615dda6020830186613ec2565b615de760408301856140d0565b8181036060830152615df98184615d7f565b905095945050505050565b600081519050615e1381613cac565b92915050565b600060208284031215615e2f57615e2e613c76565b5b6000615e3d84828501615e04565b91505092915050565b7f4e487b7100000000000000000000000000000000000000000000000000000000600052601260045260246000fdfea26469706673582212208ecdb4e8b9ffb5f4268a671041bfe6c395876c6c609b6f11755c93964fb71b3764736f6c63430008130033",
  "linkReferences": {},
  "deployedLinkReferences": {}
}