{
  "_format": "hh-sol-artifact-1",
  "contractName": "EtherNFTPlace",
  "sourceName": "contracts/EtherNFTPlace.sol",
  "abi": [
    {
      "inputs": [],
      "stateMutability": "nonpayable",
      "type": "constructor"
    },
    {
      "anonymous": false,
      "inputs": [
        {
          "indexed": true,
          "internalType": "address",
          "name": "owner",
          "type": "address"
        },
        {
          "indexed": true,
          "internalType": "address",
          "name": "approved",
          "type": "address"
        },
        {
          "indexed": true,
          "internalType": "uint256",
          "name": "tokenId",
          "type": "uint256"
        }
      ],
      "name": "Approval",
      "type": "event"
    },
    {
      "anonymous": false,
      "inputs": [
        {
          "indexed": true,
          "internalType": "address",
          "name": "owner",
          "type": "address"
        },
        {
          "indexed": true,
          "internalType": "address",
          "name": "operator",
          "type": "address"
        },
        {
          "indexed": false,
          "internalType": "bool",
          "name": "approved",
          "type": "bool"
        }
      ],
      "name": "ApprovalForAll",
      "type": "event"
    },
    {
      "anonymous": false,
      "inputs": [
        {
          "indexed": false,
          "internalType": "uint256",
          "name": "_fromTokenId",
          "type": "uint256"
        },
        {
          "indexed": false,
          "internalType": "uint256",
          "name": "_toTokenId",
          "type": "uint256"
        }
      ],
      "name": "BatchMetadataUpdate",
      "type": "event"
    },
    {
      "anonymous": false,
      "inputs": [
        {
          "indexed": true,
          "internalType": "uint256",
          "name": "collectionId",
          "type": "uint256"
        },
        {
          "indexed": false,
          "internalType": "address",
          "name": "owner",
          "type": "address"
        },
        {
          "indexed": false,
          "internalType": "string",
          "name": "collectionURI",
          "type": "string"
        }
      ],
      "name": "CollectionCreated",
      "type": "event"
    },
    {
      "anonymous": false,
      "inputs": [
        {
          "indexed": false,
          "internalType": "uint256",
          "name": "_tokenId",
          "type": "uint256"
        }
      ],
      "name": "MetadataUpdate",
      "type": "event"
    },
    {
      "anonymous": false,
      "inputs": [
        {
          "indexed": true,
          "internalType": "uint256",
          "name": "tokenId",
          "type": "uint256"
        },
        {
          "indexed": false,
          "internalType": "address",
          "name": "owner",
          "type": "address"
        },
        {
          "indexed": false,
          "internalType": "uint256",
          "name": "collectionId",
          "type": "uint256"
        }
      ],
      "name": "NFTCreated",
      "type": "event"
    },
    {
      "anonymous": false,
      "inputs": [
        {
          "indexed": true,
          "internalType": "address",
          "name": "from",
          "type": "address"
        },
        {
          "indexed": true,
          "internalType": "address",
          "name": "to",
          "type": "address"
        },
        {
          "indexed": true,
          "internalType": "uint256",
          "name": "tokenId",
          "type": "uint256"
        }
      ],
      "name": "Transfer",
      "type": "event"
    },
    {
      "inputs": [
        {
          "internalType": "address",
          "name": "to",
          "type": "address"
        },
        {
          "internalType": "uint256",
          "name": "tokenId",
          "type": "uint256"
        }
      ],
      "name": "approve",
      "outputs": [],
      "stateMutability": "nonpayable",
      "type": "function"
    },
    {
      "inputs": [
        {
          "internalType": "address",
          "name": "owner",
          "type": "address"
        }
      ],
      "name": "balanceOf",
      "outputs": [
        {
          "internalType": "uint256",
          "name": "",
          "type": "uint256"
        }
      ],
      "stateMutability": "view",
      "type": "function"
    },
    {
      "inputs": [
        {
          "internalType": "string",
          "name": "_collectionURI",
          "type": "string"
        }
      ],
      "name": "createCollection",
      "outputs": [],
      "stateMutability": "nonpayable",
      "type": "function"
    },
    {
      "inputs": [
        {
          "internalType": "string",
          "name": "tokenURI",
          "type": "string"
        },
        {
          "internalType": "uint256",
          "name": "collectionId",
          "type": "uint256"
        }
      ],
      "name": "createToken",
      "outputs": [
        {
          "internalType": "uint256",
          "name": "",
          "type": "uint256"
        }
      ],
      "stateMutability": "payable",
      "type": "function"
    },
    {
      "inputs": [],
      "name": "fetchMyCollections",
      "outputs": [
        {
          "components": [
            {
              "internalType": "uint256",
              "name": "collectionId",
              "type": "uint256"
            },
            {
              "internalType": "address",
              "name": "owner",
              "type": "address"
            },
            {
              "internalType": "string",
              "name": "collectionURI",
              "type": "string"
            },
            {
              "internalType": "uint256[]",
              "name": "nfts",
              "type": "uint256[]"
            }
          ],
          "internalType": "struct EtherNFTPlace.Collection[]",
          "name": "",
          "type": "tuple[]"
        }
      ],
      "stateMutability": "view",
      "type": "function"
    },
    {
      "inputs": [
        {
          "internalType": "uint256",
          "name": "collectionId",
          "type": "uint256"
        }
      ],
      "name": "fetchNFTsByCollection",
      "outputs": [
        {
          "components": [
            {
              "internalType": "uint256",
              "name": "tokenId",
              "type": "uint256"
            },
            {
              "internalType": "address",
              "name": "owner",
              "type": "address"
            },
            {
              "internalType": "uint256",
              "name": "collectionId",
              "type": "uint256"
            }
          ],
          "internalType": "struct EtherNFTPlace.NFT[]",
          "name": "",
          "type": "tuple[]"
        }
      ],
      "stateMutability": "view",
      "type": "function"
    },
    {
      "inputs": [
        {
          "internalType": "uint256",
          "name": "tokenId",
          "type": "uint256"
        }
      ],
      "name": "getApproved",
      "outputs": [
        {
          "internalType": "address",
          "name": "",
          "type": "address"
        }
      ],
      "stateMutability": "view",
      "type": "function"
    },
    {
      "inputs": [
        {
          "internalType": "address",
          "name": "owner",
          "type": "address"
        },
        {
          "internalType": "address",
          "name": "operator",
          "type": "address"
        }
      ],
      "name": "isApprovedForAll",
      "outputs": [
        {
          "internalType": "bool",
          "name": "",
          "type": "bool"
        }
      ],
      "stateMutability": "view",
      "type": "function"
    },
    {
      "inputs": [],
      "name": "name",
      "outputs": [
        {
          "internalType": "string",
          "name": "",
          "type": "string"
        }
      ],
      "stateMutability": "view",
      "type": "function"
    },
    {
      "inputs": [
        {
          "internalType": "uint256",
          "name": "tokenId",
          "type": "uint256"
        }
      ],
      "name": "ownerOf",
      "outputs": [
        {
          "internalType": "address",
          "name": "",
          "type": "address"
        }
      ],
      "stateMutability": "view",
      "type": "function"
    },
    {
      "inputs": [
        {
          "internalType": "address",
          "name": "from",
          "type": "address"
        },
        {
          "internalType": "address",
          "name": "to",
          "type": "address"
        },
        {
          "internalType": "uint256",
          "name": "tokenId",
          "type": "uint256"
        }
      ],
      "name": "safeTransferFrom",
      "outputs": [],
      "stateMutability": "nonpayable",
      "type": "function"
    },
    {
      "inputs": [
        {
          "internalType": "address",
          "name": "from",
          "type": "address"
        },
        {
          "internalType": "address",
          "name": "to",
          "type": "address"
        },
        {
          "internalType": "uint256",
          "name": "tokenId",
          "type": "uint256"
        },
        {
          "internalType": "bytes",
          "name": "data",
          "type": "bytes"
        }
      ],
      "name": "safeTransferFrom",
      "outputs": [],
      "stateMutability": "nonpayable",
      "type": "function"
    },
    {
      "inputs": [
        {
          "internalType": "address",
          "name": "operator",
          "type": "address"
        },
        {
          "internalType": "bool",
          "name": "approved",
          "type": "bool"
        }
      ],
      "name": "setApprovalForAll",
      "outputs": [],
      "stateMutability": "nonpayable",
      "type": "function"
    },
    {
      "inputs": [
        {
          "internalType": "bytes4",
          "name": "interfaceId",
          "type": "bytes4"
        }
      ],
      "name": "supportsInterface",
      "outputs": [
        {
          "internalType": "bool",
          "name": "",
          "type": "bool"
        }
      ],
      "stateMutability": "view",
      "type": "function"
    },
    {
      "inputs": [],
      "name": "symbol",
      "outputs": [
        {
          "internalType": "string",
          "name": "",
          "type": "string"
        }
      ],
      "stateMutability": "view",
      "type": "function"
    },
    {
      "inputs": [
        {
          "internalType": "uint256",
          "name": "tokenId",
          "type": "uint256"
        }
      ],
      "name": "tokenURI",
      "outputs": [
        {
          "internalType": "string",
          "name": "",
          "type": "string"
        }
      ],
      "stateMutability": "view",
      "type": "function"
    },
    {
      "inputs": [
        {
          "internalType": "address",
          "name": "from",
          "type": "address"
        },
        {
          "internalType": "address",
          "name": "to",
          "type": "address"
        },
        {
          "internalType": "uint256",
          "name": "tokenId",
          "type": "uint256"
        }
      ],
      "name": "transferFrom",
      "outputs": [],
      "stateMutability": "nonpayable",
      "type": "function"
    }
  ],
  "bytecode": "0x60806040523480156200001157600080fd5b506040518060400160405280601081526020017f4d657461766572736520546f6b656e73000000000000000000000000000000008152506040518060400160405280600481526020017f4d4554540000000000000000000000000000000000000000000000000000000081525081600090816200008f919062000365565b508060019081620000a1919062000365565b50505033600960006101000a81548173ffffffffffffffffffffffffffffffffffffffff021916908373ffffffffffffffffffffffffffffffffffffffff1602179055506200044c565b600081519050919050565b7f4e487b7100000000000000000000000000000000000000000000000000000000600052604160045260246000fd5b7f4e487b7100000000000000000000000000000000000000000000000000000000600052602260045260246000fd5b600060028204905060018216806200016d57607f821691505b60208210810362000183576200018262000125565b5b50919050565b60008190508160005260206000209050919050565b60006020601f8301049050919050565b600082821b905092915050565b600060088302620001ed7fffffffffffffffffffffffffffffffffffffffffffffffffffffffffffffffff82620001ae565b620001f98683620001ae565b95508019841693508086168417925050509392505050565b6000819050919050565b6000819050919050565b600062000246620002406200023a8462000211565b6200021b565b62000211565b9050919050565b6000819050919050565b620002628362000225565b6200027a62000271826200024d565b848454620001bb565b825550505050565b600090565b6200029162000282565b6200029e81848462000257565b505050565b5b81811015620002c657620002ba60008262000287565b600181019050620002a4565b5050565b601f8211156200031557620002df8162000189565b620002ea846200019e565b81016020851015620002fa578190505b6200031262000309856200019e565b830182620002a3565b50505b505050565b600082821c905092915050565b60006200033a600019846008026200031a565b1980831691505092915050565b600062000355838362000327565b9150826002028217905092915050565b6200037082620000eb565b67ffffffffffffffff8111156200038c576200038b620000f6565b5b62000398825462000154565b620003a5828285620002ca565b600060209050601f831160018114620003dd5760008415620003c8578287015190505b620003d4858262000347565b86555062000444565b601f198416620003ed8662000189565b60005b828110156200041757848901518255600182019150602085019450602081019050620003f0565b8683101562000437578489015162000433601f89168262000327565b8355505b6001600288020188555050505b505050505050565b613963806200045c6000396000f3fe6080604052600436106100fe5760003560e01c806370a0823111610095578063a280d6c811610064578063a280d6c81461034a578063b88d4fde14610375578063c87b56dd1461039e578063e985e9c5146103db578063f43eca5514610418576100fe565b806370a082311461028957806372b3b620146102c657806395d89b41146102f6578063a22cb46514610321576100fe565b8063095ea7b3116100d1578063095ea7b3146101d157806323b872dd146101fa57806342842e0e146102235780636352211e1461024c576100fe565b806301ffc9a714610103578063059dfe131461014057806306fdde0314610169578063081812fc14610194575b600080fd5b34801561010f57600080fd5b5061012a6004803603810190610125919061235e565b610455565b60405161013791906123a6565b60405180910390f35b34801561014c57600080fd5b5061016760048036038101906101629190612507565b6104b6565b005b34801561017557600080fd5b5061017e610626565b60405161018b91906125cf565b60405180910390f35b3480156101a057600080fd5b506101bb60048036038101906101b69190612627565b6106b8565b6040516101c89190612695565b60405180910390f35b3480156101dd57600080fd5b506101f860048036038101906101f391906126dc565b6106fe565b005b34801561020657600080fd5b50610221600480360381019061021c919061271c565b610815565b005b34801561022f57600080fd5b5061024a6004803603810190610245919061271c565b610875565b005b34801561025857600080fd5b50610273600480360381019061026e9190612627565b610895565b6040516102809190612695565b60405180910390f35b34801561029557600080fd5b506102b060048036038101906102ab919061276f565b61091b565b6040516102bd91906127ab565b60405180910390f35b6102e060048036038101906102db91906127c6565b6109d2565b6040516102ed91906127ab565b60405180910390f35b34801561030257600080fd5b5061030b610ae6565b60405161031891906125cf565b60405180910390f35b34801561032d57600080fd5b506103486004803603810190610343919061284e565b610b78565b005b34801561035657600080fd5b5061035f610b8e565b60405161036c9190612ad1565b60405180910390f35b34801561038157600080fd5b5061039c60048036038101906103979190612b94565b610ee9565b005b3480156103aa57600080fd5b506103c560048036038101906103c09190612627565b610f4b565b6040516103d291906125cf565b60405180910390f35b3480156103e757600080fd5b5061040260048036038101906103fd9190612c17565b61105d565b60405161040f91906123a6565b60405180910390f35b34801561042457600080fd5b5061043f600480360381019061043a9190612627565b6110f1565b60405161044c9190612d48565b60405180910390f35b6000634906490660e01b7bffffffffffffffffffffffffffffffffffffffffffffffffffffffff1916827bffffffffffffffffffffffffffffffffffffffffffffffffffffffff191614806104af57506104ae826112ac565b5b9050919050565b60006104c2600861138e565b90506104ce600861139c565b60405180608001604052808281526020013373ffffffffffffffffffffffffffffffffffffffff168152602001838152602001600067ffffffffffffffff81111561051c5761051b6123dc565b5b60405190808252806020026020018201604052801561054a5781602001602082028036833780820191505090505b50815250600a60008381526020019081526020016000206000820151816000015560208201518160010160006101000a81548173ffffffffffffffffffffffffffffffffffffffff021916908373ffffffffffffffffffffffffffffffffffffffff16021790555060408201518160020190816105c79190612f76565b5060608201518160030190805190602001906105e4929190612213565b50905050807fb0b7b214963f2e16da9cf6ed5851757dfed306875edf1d59e030881102ef24ef338460405161061a929190613048565b60405180910390a25050565b60606000805461063590612d99565b80601f016020809104026020016040519081016040528092919081815260200182805461066190612d99565b80156106ae5780601f10610683576101008083540402835291602001916106ae565b820191906000526020600020905b81548152906001019060200180831161069157829003601f168201915b5050505050905090565b60006106c3826113b2565b6004600083815260200190815260200160002060009054906101000a900473ffffffffffffffffffffffffffffffffffffffff169050919050565b600061070982610895565b90508073ffffffffffffffffffffffffffffffffffffffff168373ffffffffffffffffffffffffffffffffffffffff1603610779576040517f08c379a0000000000000000000000000000000000000000000000000000000008152600401610770906130ea565b60405180910390fd5b8073ffffffffffffffffffffffffffffffffffffffff166107986113fd565b73ffffffffffffffffffffffffffffffffffffffff1614806107c757506107c6816107c16113fd565b61105d565b5b610806576040517f08c379a00000000000000000000000000000000000000000000000000000000081526004016107fd9061317c565b60405180910390fd5b6108108383611405565b505050565b6108266108206113fd565b826114be565b610865576040517f08c379a000000000000000000000000000000000000000000000000000000000815260040161085c9061320e565b60405180910390fd5b610870838383611553565b505050565b61089083838360405180602001604052806000815250610ee9565b505050565b6000806108a18361184c565b9050600073ffffffffffffffffffffffffffffffffffffffff168173ffffffffffffffffffffffffffffffffffffffff1603610912576040517f08c379a00000000000000000000000000000000000000000000000000000000081526004016109099061327a565b60405180910390fd5b80915050919050565b60008073ffffffffffffffffffffffffffffffffffffffff168273ffffffffffffffffffffffffffffffffffffffff160361098b576040517f08c379a00000000000000000000000000000000000000000000000000000000081526004016109829061330c565b60405180910390fd5b600360008373ffffffffffffffffffffffffffffffffffffffff1673ffffffffffffffffffffffffffffffffffffffff168152602001908152602001600020549050919050565b60006109de600761139c565b60006109ea600761138e565b90506109f63382611889565b610a008185611aa6565b60405180606001604052808281526020013373ffffffffffffffffffffffffffffffffffffffff16815260200184815250600b60008381526020019081526020016000206000820151816000015560208201518160010160006101000a81548173ffffffffffffffffffffffffffffffffffffffff021916908373ffffffffffffffffffffffffffffffffffffffff16021790555060408201518160020155905050807f94619d2447a6efc7f1095856ea5af24ffa395982057fcd550cb7909aea537bbd3385604051610ad492919061332c565b60405180910390a28091505092915050565b606060018054610af590612d99565b80601f0160208091040260200160405190810160405280929190818152602001828054610b2190612d99565b8015610b6e5780601f10610b4357610100808354040283529160200191610b6e565b820191906000526020600020905b815481529060010190602001808311610b5157829003601f168201915b5050505050905090565b610b8a610b836113fd565b8383611b4a565b5050565b60606000610b9c600861138e565b905060008060005b83811015610c44573373ffffffffffffffffffffffffffffffffffffffff16600a6000600184610bd49190613384565b815260200190815260200160002060010160009054906101000a900473ffffffffffffffffffffffffffffffffffffffff1673ffffffffffffffffffffffffffffffffffffffff1603610c3157600183610c2e9190613384565b92505b8080610c3c906133b8565b915050610ba4565b5060008267ffffffffffffffff811115610c6157610c606123dc565b5b604051908082528060200260200182016040528015610c9a57816020015b610c87612260565b815260200190600190039081610c7f5790505b50905060005b84811015610ede573373ffffffffffffffffffffffffffffffffffffffff16600a6000600184610cd09190613384565b815260200190815260200160002060010160009054906101000a900473ffffffffffffffffffffffffffffffffffffffff1673ffffffffffffffffffffffffffffffffffffffff1603610ecb576000600182610d2c9190613384565b90506000600a6000838152602001908152602001600020905080604051806080016040529081600082015481526020016001820160009054906101000a900473ffffffffffffffffffffffffffffffffffffffff1673ffffffffffffffffffffffffffffffffffffffff1673ffffffffffffffffffffffffffffffffffffffff168152602001600282018054610dc190612d99565b80601f0160208091040260200160405190810160405280929190818152602001828054610ded90612d99565b8015610e3a5780601f10610e0f57610100808354040283529160200191610e3a565b820191906000526020600020905b815481529060010190602001808311610e1d57829003601f168201915b5050505050815260200160038201805480602002602001604051908101604052809291908181526020018280548015610e9257602002820191906000526020600020905b815481526020019060010190808311610e7e575b505050505081525050848681518110610eae57610ead613400565b5b6020026020010181905250600185610ec69190613384565b945050505b8080610ed6906133b8565b915050610ca0565b508094505050505090565b610efa610ef46113fd565b836114be565b610f39576040517f08c379a0000000000000000000000000000000000000000000000000000000008152600401610f309061320e565b60405180910390fd5b610f4584848484611cb6565b50505050565b6060610f56826113b2565b6000600660008481526020019081526020016000208054610f7690612d99565b80601f0160208091040260200160405190810160405280929190818152602001828054610fa290612d99565b8015610fef5780601f10610fc457610100808354040283529160200191610fef565b820191906000526020600020905b815481529060010190602001808311610fd257829003601f168201915b505050505090506000611000611d12565b90506000815103611015578192505050611058565b60008251111561104a57808260405160200161103292919061346b565b60405160208183030381529060405292505050611058565b61105384611d29565b925050505b919050565b6000600560008473ffffffffffffffffffffffffffffffffffffffff1673ffffffffffffffffffffffffffffffffffffffff16815260200190815260200160002060008373ffffffffffffffffffffffffffffffffffffffff1673ffffffffffffffffffffffffffffffffffffffff16815260200190815260200160002060009054906101000a900460ff16905092915050565b606060006110ff600761138e565b905060008060005b83811161114d5785600b6000838152602001908152602001600020600201540361113a578280611136906133b8565b9350505b8080611145906133b8565b915050611107565b5060008267ffffffffffffffff81111561116a576111696123dc565b5b6040519080825280602002602001820160405280156111a357816020015b61119061229e565b8152602001906001900390816111885790505b5090506000600190505b84811161129f5786600b6000838152602001908152602001600020600201540361128c576000600b6000838152602001908152602001600020905080604051806060016040529081600082015481526020016001820160009054906101000a900473ffffffffffffffffffffffffffffffffffffffff1673ffffffffffffffffffffffffffffffffffffffff1673ffffffffffffffffffffffffffffffffffffffff16815260200160028201548152505083858151811061127157611270613400565b5b60200260200101819052508380611287906133b8565b945050505b8080611297906133b8565b9150506111ad565b5080945050505050919050565b60007f80ac58cd000000000000000000000000000000000000000000000000000000007bffffffffffffffffffffffffffffffffffffffffffffffffffffffff1916827bffffffffffffffffffffffffffffffffffffffffffffffffffffffff1916148061137757507f5b5e139f000000000000000000000000000000000000000000000000000000007bffffffffffffffffffffffffffffffffffffffffffffffffffffffff1916827bffffffffffffffffffffffffffffffffffffffffffffffffffffffff1916145b80611387575061138682611d91565b5b9050919050565b600081600001549050919050565b6001816000016000828254019250508190555050565b6113bb81611dfb565b6113fa576040517f08c379a00000000000000000000000000000000000000000000000000000000081526004016113f19061327a565b60405180910390fd5b50565b600033905090565b816004600083815260200190815260200160002060006101000a81548173ffffffffffffffffffffffffffffffffffffffff021916908373ffffffffffffffffffffffffffffffffffffffff160217905550808273ffffffffffffffffffffffffffffffffffffffff1661147883610895565b73ffffffffffffffffffffffffffffffffffffffff167f8c5be1e5ebec7d5bd14f71427d1e84f3dd0314c0f7b2291e5b200ac8c7c3b92560405160405180910390a45050565b6000806114ca83610895565b90508073ffffffffffffffffffffffffffffffffffffffff168473ffffffffffffffffffffffffffffffffffffffff16148061150c575061150b818561105d565b5b8061154a57508373ffffffffffffffffffffffffffffffffffffffff16611532846106b8565b73ffffffffffffffffffffffffffffffffffffffff16145b91505092915050565b8273ffffffffffffffffffffffffffffffffffffffff1661157382610895565b73ffffffffffffffffffffffffffffffffffffffff16146115c9576040517f08c379a00000000000000000000000000000000000000000000000000000000081526004016115c090613501565b60405180910390fd5b600073ffffffffffffffffffffffffffffffffffffffff168273ffffffffffffffffffffffffffffffffffffffff1603611638576040517f08c379a000000000000000000000000000000000000000000000000000000000815260040161162f90613593565b60405180910390fd5b6116458383836001611e3c565b8273ffffffffffffffffffffffffffffffffffffffff1661166582610895565b73ffffffffffffffffffffffffffffffffffffffff16146116bb576040517f08c379a00000000000000000000000000000000000000000000000000000000081526004016116b290613501565b60405180910390fd5b6004600082815260200190815260200160002060006101000a81549073ffffffffffffffffffffffffffffffffffffffff02191690556001600360008573ffffffffffffffffffffffffffffffffffffffff1673ffffffffffffffffffffffffffffffffffffffff168152602001908152602001600020600082825403925050819055506001600360008473ffffffffffffffffffffffffffffffffffffffff1673ffffffffffffffffffffffffffffffffffffffff16815260200190815260200160002060008282540192505081905550816002600083815260200190815260200160002060006101000a81548173ffffffffffffffffffffffffffffffffffffffff021916908373ffffffffffffffffffffffffffffffffffffffff160217905550808273ffffffffffffffffffffffffffffffffffffffff168473ffffffffffffffffffffffffffffffffffffffff167fddf252ad1be2c89b69c2b068fc378daa952ba7f163c4a11628f55a4df523b3ef60405160405180910390a46118478383836001611e42565b505050565b60006002600083815260200190815260200160002060009054906101000a900473ffffffffffffffffffffffffffffffffffffffff169050919050565b600073ffffffffffffffffffffffffffffffffffffffff168273ffffffffffffffffffffffffffffffffffffffff16036118f8576040517f08c379a00000000000000000000000000000000000000000000000000000000081526004016118ef906135ff565b60405180910390fd5b61190181611dfb565b15611941576040517f08c379a00000000000000000000000000000000000000000000000000000000081526004016119389061366b565b60405180910390fd5b61194f600083836001611e3c565b61195881611dfb565b15611998576040517f08c379a000000000000000000000000000000000000000000000000000000000815260040161198f9061366b565b60405180910390fd5b6001600360008473ffffffffffffffffffffffffffffffffffffffff1673ffffffffffffffffffffffffffffffffffffffff16815260200190815260200160002060008282540192505081905550816002600083815260200190815260200160002060006101000a81548173ffffffffffffffffffffffffffffffffffffffff021916908373ffffffffffffffffffffffffffffffffffffffff160217905550808273ffffffffffffffffffffffffffffffffffffffff16600073ffffffffffffffffffffffffffffffffffffffff167fddf252ad1be2c89b69c2b068fc378daa952ba7f163c4a11628f55a4df523b3ef60405160405180910390a4611aa2600083836001611e42565b5050565b611aaf82611dfb565b611aee576040517f08c379a0000000000000000000000000000000000000000000000000000000008152600401611ae5906136fd565b60405180910390fd5b80600660008481526020019081526020016000209081611b0e9190612f76565b507ff8e1a15aba9398e019f0b49df1a4fde98ee17ae345cb5f6b5e2c27f5033e8ce782604051611b3e91906127ab565b60405180910390a15050565b8173ffffffffffffffffffffffffffffffffffffffff168373ffffffffffffffffffffffffffffffffffffffff1603611bb8576040517f08c379a0000000000000000000000000000000000000000000000000000000008152600401611baf90613769565b60405180910390fd5b80600560008573ffffffffffffffffffffffffffffffffffffffff1673ffffffffffffffffffffffffffffffffffffffff16815260200190815260200160002060008473ffffffffffffffffffffffffffffffffffffffff1673ffffffffffffffffffffffffffffffffffffffff16815260200190815260200160002060006101000a81548160ff0219169083151502179055508173ffffffffffffffffffffffffffffffffffffffff168373ffffffffffffffffffffffffffffffffffffffff167f17307eab39ab6107e8899845ad3d59bd9653f200f220920489ca2b5937696c3183604051611ca991906123a6565b60405180910390a3505050565b611cc1848484611553565b611ccd84848484611e48565b611d0c576040517f08c379a0000000000000000000000000000000000000000000000000000000008152600401611d03906137fb565b60405180910390fd5b50505050565b606060405180602001604052806000815250905090565b6060611d34826113b2565b6000611d3e611d12565b90506000815111611d5e5760405180602001604052806000815250611d89565b80611d6884611fcf565b604051602001611d7992919061346b565b6040516020818303038152906040525b915050919050565b60007f01ffc9a7000000000000000000000000000000000000000000000000000000007bffffffffffffffffffffffffffffffffffffffffffffffffffffffff1916827bffffffffffffffffffffffffffffffffffffffffffffffffffffffff1916149050919050565b60008073ffffffffffffffffffffffffffffffffffffffff16611e1d8361184c565b73ffffffffffffffffffffffffffffffffffffffff1614159050919050565b50505050565b50505050565b6000611e698473ffffffffffffffffffffffffffffffffffffffff1661209d565b15611fc2578373ffffffffffffffffffffffffffffffffffffffff1663150b7a02611e926113fd565b8786866040518563ffffffff1660e01b8152600401611eb49493929190613870565b6020604051808303816000875af1925050508015611ef057506040513d601f19601f82011682018060405250810190611eed91906138d1565b60015b611f72573d8060008114611f20576040519150601f19603f3d011682016040523d82523d6000602084013e611f25565b606091505b506000815103611f6a576040517f08c379a0000000000000000000000000000000000000000000000000000000008152600401611f61906137fb565b60405180910390fd5b805181602001fd5b63150b7a0260e01b7bffffffffffffffffffffffffffffffffffffffffffffffffffffffff1916817bffffffffffffffffffffffffffffffffffffffffffffffffffffffff191614915050611fc7565b600190505b949350505050565b606060006001611fde846120c0565b01905060008167ffffffffffffffff811115611ffd57611ffc6123dc565b5b6040519080825280601f01601f19166020018201604052801561202f5781602001600182028036833780820191505090505b509050600082602001820190505b600115612092578080600190039150507f3031323334353637383961626364656600000000000000000000000000000000600a86061a8153600a8581612086576120856138fe565b5b0494506000850361203d575b819350505050919050565b6000808273ffffffffffffffffffffffffffffffffffffffff163b119050919050565b600080600090507a184f03e93ff9f4daa797ed6e38ed64bf6a1f010000000000000000831061211e577a184f03e93ff9f4daa797ed6e38ed64bf6a1f0100000000000000008381612114576121136138fe565b5b0492506040810190505b6d04ee2d6d415b85acef8100000000831061215b576d04ee2d6d415b85acef81000000008381612151576121506138fe565b5b0492506020810190505b662386f26fc10000831061218a57662386f26fc1000083816121805761217f6138fe565b5b0492506010810190505b6305f5e10083106121b3576305f5e10083816121a9576121a86138fe565b5b0492506008810190505b61271083106121d85761271083816121ce576121cd6138fe565b5b0492506004810190505b606483106121fb57606483816121f1576121f06138fe565b5b0492506002810190505b600a831061220a576001810190505b80915050919050565b82805482825590600052602060002090810192821561224f579160200282015b8281111561224e578251825591602001919060010190612233565b5b50905061225c91906122d5565b5090565b604051806080016040528060008152602001600073ffffffffffffffffffffffffffffffffffffffff16815260200160608152602001606081525090565b604051806060016040528060008152602001600073ffffffffffffffffffffffffffffffffffffffff168152602001600081525090565b5b808211156122ee5760008160009055506001016122d6565b5090565b6000604051905090565b600080fd5b600080fd5b60007fffffffff0000000000000000000000000000000000000000000000000000000082169050919050565b61233b81612306565b811461234657600080fd5b50565b60008135905061235881612332565b92915050565b600060208284031215612374576123736122fc565b5b600061238284828501612349565b91505092915050565b60008115159050919050565b6123a08161238b565b82525050565b60006020820190506123bb6000830184612397565b92915050565b600080fd5b600080fd5b6000601f19601f8301169050919050565b7f4e487b7100000000000000000000000000000000000000000000000000000000600052604160045260246000fd5b612414826123cb565b810181811067ffffffffffffffff82111715612433576124326123dc565b5b80604052505050565b60006124466122f2565b9050612452828261240b565b919050565b600067ffffffffffffffff821115612472576124716123dc565b5b61247b826123cb565b9050602081019050919050565b82818337600083830152505050565b60006124aa6124a584612457565b61243c565b9050828152602081018484840111156124c6576124c56123c6565b5b6124d1848285612488565b509392505050565b600082601f8301126124ee576124ed6123c1565b5b81356124fe848260208601612497565b91505092915050565b60006020828403121561251d5761251c6122fc565b5b600082013567ffffffffffffffff81111561253b5761253a612301565b5b612547848285016124d9565b91505092915050565b600081519050919050565b600082825260208201905092915050565b60005b8381101561258a57808201518184015260208101905061256f565b60008484015250505050565b60006125a182612550565b6125ab818561255b565b93506125bb81856020860161256c565b6125c4816123cb565b840191505092915050565b600060208201905081810360008301526125e98184612596565b905092915050565b6000819050919050565b612604816125f1565b811461260f57600080fd5b50565b600081359050612621816125fb565b92915050565b60006020828403121561263d5761263c6122fc565b5b600061264b84828501612612565b91505092915050565b600073ffffffffffffffffffffffffffffffffffffffff82169050919050565b600061267f82612654565b9050919050565b61268f81612674565b82525050565b60006020820190506126aa6000830184612686565b92915050565b6126b981612674565b81146126c457600080fd5b50565b6000813590506126d6816126b0565b92915050565b600080604083850312156126f3576126f26122fc565b5b6000612701858286016126c7565b925050602061271285828601612612565b9150509250929050565b600080600060608486031215612735576127346122fc565b5b6000612743868287016126c7565b9350506020612754868287016126c7565b925050604061276586828701612612565b9150509250925092565b600060208284031215612785576127846122fc565b5b6000612793848285016126c7565b91505092915050565b6127a5816125f1565b82525050565b60006020820190506127c0600083018461279c565b92915050565b600080604083850312156127dd576127dc6122fc565b5b600083013567ffffffffffffffff8111156127fb576127fa612301565b5b612807858286016124d9565b925050602061281885828601612612565b9150509250929050565b61282b8161238b565b811461283657600080fd5b50565b60008135905061284881612822565b92915050565b60008060408385031215612865576128646122fc565b5b6000612873858286016126c7565b925050602061288485828601612839565b9150509250929050565b600081519050919050565b600082825260208201905092915050565b6000819050602082019050919050565b6128c3816125f1565b82525050565b6128d281612674565b82525050565b600082825260208201905092915050565b60006128f482612550565b6128fe81856128d8565b935061290e81856020860161256c565b612917816123cb565b840191505092915050565b600081519050919050565b600082825260208201905092915050565b6000819050602082019050919050565b600061295a83836128ba565b60208301905092915050565b6000602082019050919050565b600061297e82612922565b612988818561292d565b93506129938361293e565b8060005b838110156129c45781516129ab888261294e565b97506129b683612966565b925050600181019050612997565b5085935050505092915050565b60006080830160008301516129e960008601826128ba565b5060208301516129fc60208601826128c9565b5060408301518482036040860152612a1482826128e9565b91505060608301518482036060860152612a2e8282612973565b9150508091505092915050565b6000612a4783836129d1565b905092915050565b6000602082019050919050565b6000612a678261288e565b612a718185612899565b935083602082028501612a83856128aa565b8060005b85811015612abf5784840389528151612aa08582612a3b565b9450612aab83612a4f565b925060208a01995050600181019050612a87565b50829750879550505050505092915050565b60006020820190508181036000830152612aeb8184612a5c565b905092915050565b600067ffffffffffffffff821115612b0e57612b0d6123dc565b5b612b17826123cb565b9050602081019050919050565b6000612b37612b3284612af3565b61243c565b905082815260208101848484011115612b5357612b526123c6565b5b612b5e848285612488565b509392505050565b600082601f830112612b7b57612b7a6123c1565b5b8135612b8b848260208601612b24565b91505092915050565b60008060008060808587031215612bae57612bad6122fc565b5b6000612bbc878288016126c7565b9450506020612bcd878288016126c7565b9350506040612bde87828801612612565b925050606085013567ffffffffffffffff811115612bff57612bfe612301565b5b612c0b87828801612b66565b91505092959194509250565b60008060408385031215612c2e57612c2d6122fc565b5b6000612c3c858286016126c7565b9250506020612c4d858286016126c7565b9150509250929050565b600081519050919050565b600082825260208201905092915050565b6000819050602082019050919050565b606082016000820151612c9960008501826128ba565b506020820151612cac60208501826128c9565b506040820151612cbf60408501826128ba565b50505050565b6000612cd18383612c83565b60608301905092915050565b6000602082019050919050565b6000612cf582612c57565b612cff8185612c62565b9350612d0a83612c73565b8060005b83811015612d3b578151612d228882612cc5565b9750612d2d83612cdd565b925050600181019050612d0e565b5085935050505092915050565b60006020820190508181036000830152612d628184612cea565b905092915050565b7f4e487b7100000000000000000000000000000000000000000000000000000000600052602260045260246000fd5b60006002820490506001821680612db157607f821691505b602082108103612dc457612dc3612d6a565b5b50919050565b60008190508160005260206000209050919050565b60006020601f8301049050919050565b600082821b905092915050565b600060088302612e2c7fffffffffffffffffffffffffffffffffffffffffffffffffffffffffffffffff82612def565b612e368683612def565b95508019841693508086168417925050509392505050565b6000819050919050565b6000612e73612e6e612e69846125f1565b612e4e565b6125f1565b9050919050565b6000819050919050565b612e8d83612e58565b612ea1612e9982612e7a565b848454612dfc565b825550505050565b600090565b612eb6612ea9565b612ec1818484612e84565b505050565b5b81811015612ee557612eda600082612eae565b600181019050612ec7565b5050565b601f821115612f2a57612efb81612dca565b612f0484612ddf565b81016020851015612f13578190505b612f27612f1f85612ddf565b830182612ec6565b50505b505050565b600082821c905092915050565b6000612f4d60001984600802612f2f565b1980831691505092915050565b6000612f668383612f3c565b9150826002028217905092915050565b612f7f82612550565b67ffffffffffffffff811115612f9857612f976123dc565b5b612fa28254612d99565b612fad828285612ee9565b600060209050601f831160018114612fe05760008415612fce578287015190505b612fd88582612f5a565b865550613040565b601f198416612fee86612dca565b60005b8281101561301657848901518255600182019150602085019450602081019050612ff1565b86831015613033578489015161302f601f891682612f3c565b8355505b6001600288020188555050505b505050505050565b600060408201905061305d6000830185612686565b818103602083015261306f8184612596565b90509392505050565b7f4552433732313a20617070726f76616c20746f2063757272656e74206f776e6560008201527f7200000000000000000000000000000000000000000000000000000000000000602082015250565b60006130d460218361255b565b91506130df82613078565b604082019050919050565b60006020820190508181036000830152613103816130c7565b9050919050565b7f4552433732313a20617070726f76652063616c6c6572206973206e6f7420746f60008201527f6b656e206f776e6572206f7220617070726f76656420666f7220616c6c000000602082015250565b6000613166603d8361255b565b91506131718261310a565b604082019050919050565b6000602082019050818103600083015261319581613159565b9050919050565b7f4552433732313a2063616c6c6572206973206e6f7420746f6b656e206f776e6560008201527f72206f7220617070726f76656400000000000000000000000000000000000000602082015250565b60006131f8602d8361255b565b91506132038261319c565b604082019050919050565b60006020820190508181036000830152613227816131eb565b9050919050565b7f4552433732313a20696e76616c696420746f6b656e2049440000000000000000600082015250565b600061326460188361255b565b915061326f8261322e565b602082019050919050565b6000602082019050818103600083015261329381613257565b9050919050565b7f4552433732313a2061646472657373207a65726f206973206e6f74206120766160008201527f6c6964206f776e65720000000000000000000000000000000000000000000000602082015250565b60006132f660298361255b565b91506133018261329a565b604082019050919050565b60006020820190508181036000830152613325816132e9565b9050919050565b60006040820190506133416000830185612686565b61334e602083018461279c565b9392505050565b7f4e487b7100000000000000000000000000000000000000000000000000000000600052601160045260246000fd5b600061338f826125f1565b915061339a836125f1565b92508282019050808211156133b2576133b1613355565b5b92915050565b60006133c3826125f1565b91507fffffffffffffffffffffffffffffffffffffffffffffffffffffffffffffffff82036133f5576133f4613355565b5b600182019050919050565b7f4e487b7100000000000000000000000000000000000000000000000000000000600052603260045260246000fd5b600081905092915050565b600061344582612550565b61344f818561342f565b935061345f81856020860161256c565b80840191505092915050565b6000613477828561343a565b9150613483828461343a565b91508190509392505050565b7f4552433732313a207472616e736665722066726f6d20696e636f72726563742060008201527f6f776e6572000000000000000000000000000000000000000000000000000000602082015250565b60006134eb60258361255b565b91506134f68261348f565b604082019050919050565b6000602082019050818103600083015261351a816134de565b9050919050565b7f4552433732313a207472616e7366657220746f20746865207a65726f2061646460008201527f7265737300000000000000000000000000000000000000000000000000000000602082015250565b600061357d60248361255b565b915061358882613521565b604082019050919050565b600060208201905081810360008301526135ac81613570565b9050919050565b7f4552433732313a206d696e7420746f20746865207a65726f2061646472657373600082015250565b60006135e960208361255b565b91506135f4826135b3565b602082019050919050565b60006020820190508181036000830152613618816135dc565b9050919050565b7f4552433732313a20746f6b656e20616c7265616479206d696e74656400000000600082015250565b6000613655601c8361255b565b91506136608261361f565b602082019050919050565b6000602082019050818103600083015261368481613648565b9050919050565b7f45524337323155524953746f726167653a2055524920736574206f66206e6f6e60008201527f6578697374656e7420746f6b656e000000000000000000000000000000000000602082015250565b60006136e7602e8361255b565b91506136f28261368b565b604082019050919050565b60006020820190508181036000830152613716816136da565b9050919050565b7f4552433732313a20617070726f766520746f2063616c6c657200000000000000600082015250565b600061375360198361255b565b915061375e8261371d565b602082019050919050565b6000602082019050818103600083015261378281613746565b9050919050565b7f4552433732313a207472616e7366657220746f206e6f6e20455243373231526560008201527f63656976657220696d706c656d656e7465720000000000000000000000000000602082015250565b60006137e560328361255b565b91506137f082613789565b604082019050919050565b60006020820190508181036000830152613814816137d8565b9050919050565b600081519050919050565b600082825260208201905092915050565b60006138428261381b565b61384c8185613826565b935061385c81856020860161256c565b613865816123cb565b840191505092915050565b60006080820190506138856000830187612686565b6138926020830186612686565b61389f604083018561279c565b81810360608301526138b18184613837565b905095945050505050565b6000815190506138cb81612332565b92915050565b6000602082840312156138e7576138e66122fc565b5b60006138f5848285016138bc565b91505092915050565b7f4e487b7100000000000000000000000000000000000000000000000000000000600052601260045260246000fdfea2646970667358221220335ba607d4f4ad8b70ca99767117fd99c0b5a56471b259cebe5a7004acf3e5c964736f6c63430008130033",
  "linkReferences": {},
  "deployedLinkReferences": {}
}