{
  "_format": "hh-sol-artifact-1",
  "contractName": "EtherNFTPlace",
  "sourceName": "contracts/EtherNFTPlace.sol",
  "abi": [
    {
      "inputs": [],
      "stateMutability": "nonpayable",
      "type": "constructor"
    },
    {
      "anonymous": false,
      "inputs": [
        {
          "indexed": true,
          "internalType": "address",
          "name": "owner",
          "type": "address"
        },
        {
          "indexed": true,
          "internalType": "address",
          "name": "approved",
          "type": "address"
        },
        {
          "indexed": true,
          "internalType": "uint256",
          "name": "tokenId",
          "type": "uint256"
        }
      ],
      "name": "Approval",
      "type": "event"
    },
    {
      "anonymous": false,
      "inputs": [
        {
          "indexed": true,
          "internalType": "address",
          "name": "owner",
          "type": "address"
        },
        {
          "indexed": true,
          "internalType": "address",
          "name": "operator",
          "type": "address"
        },
        {
          "indexed": false,
          "internalType": "bool",
          "name": "approved",
          "type": "bool"
        }
      ],
      "name": "ApprovalForAll",
      "type": "event"
    },
    {
      "anonymous": false,
      "inputs": [
        {
          "indexed": false,
          "internalType": "uint256",
          "name": "_fromTokenId",
          "type": "uint256"
        },
        {
          "indexed": false,
          "internalType": "uint256",
          "name": "_toTokenId",
          "type": "uint256"
        }
      ],
      "name": "BatchMetadataUpdate",
      "type": "event"
    },
    {
      "anonymous": false,
      "inputs": [
        {
          "indexed": true,
          "internalType": "uint256",
          "name": "collectionId",
          "type": "uint256"
        },
        {
          "indexed": false,
          "internalType": "address",
          "name": "owner",
          "type": "address"
        },
        {
          "indexed": false,
          "internalType": "string",
          "name": "collectionURI",
          "type": "string"
        }
      ],
      "name": "CollectionCreated",
      "type": "event"
    },
    {
      "anonymous": false,
      "inputs": [
        {
          "indexed": true,
          "internalType": "uint256",
          "name": "collectionId",
          "type": "uint256"
        },
        {
          "indexed": false,
          "internalType": "address",
          "name": "owner",
          "type": "address"
        },
        {
          "indexed": false,
          "internalType": "string",
          "name": "collectionURI",
          "type": "string"
        }
      ],
      "name": "CollectionMetadataUpdated",
      "type": "event"
    },
    {
      "anonymous": false,
      "inputs": [
        {
          "indexed": false,
          "internalType": "uint256",
          "name": "_tokenId",
          "type": "uint256"
        }
      ],
      "name": "MetadataUpdate",
      "type": "event"
    },
    {
      "anonymous": false,
      "inputs": [
        {
          "indexed": true,
          "internalType": "uint256",
          "name": "tokenId",
          "type": "uint256"
        },
        {
          "indexed": false,
          "internalType": "address",
          "name": "owner",
          "type": "address"
        },
        {
          "indexed": false,
          "internalType": "uint256",
          "name": "collectionId",
          "type": "uint256"
        }
      ],
      "name": "NFTCreated",
      "type": "event"
    },
    {
      "anonymous": false,
      "inputs": [
        {
          "indexed": false,
          "internalType": "uint256[]",
          "name": "nftIds",
          "type": "uint256[]"
        },
        {
          "indexed": false,
          "internalType": "address",
          "name": "owner",
          "type": "address"
        },
        {
          "indexed": false,
          "internalType": "uint256",
          "name": "collectionId",
          "type": "uint256"
        }
      ],
      "name": "NFTsCollectionUpdated",
      "type": "event"
    },
    {
      "anonymous": false,
      "inputs": [
        {
          "indexed": true,
          "internalType": "address",
          "name": "from",
          "type": "address"
        },
        {
          "indexed": true,
          "internalType": "address",
          "name": "to",
          "type": "address"
        },
        {
          "indexed": true,
          "internalType": "uint256",
          "name": "tokenId",
          "type": "uint256"
        }
      ],
      "name": "Transfer",
      "type": "event"
    },
    {
      "inputs": [
        {
          "internalType": "address",
          "name": "to",
          "type": "address"
        },
        {
          "internalType": "uint256",
          "name": "tokenId",
          "type": "uint256"
        }
      ],
      "name": "approve",
      "outputs": [],
      "stateMutability": "nonpayable",
      "type": "function"
    },
    {
      "inputs": [
        {
          "internalType": "address",
          "name": "owner",
          "type": "address"
        }
      ],
      "name": "balanceOf",
      "outputs": [
        {
          "internalType": "uint256",
          "name": "",
          "type": "uint256"
        }
      ],
      "stateMutability": "view",
      "type": "function"
    },
    {
      "inputs": [
        {
          "internalType": "string",
          "name": "_collectionURI",
          "type": "string"
        },
        {
          "internalType": "uint256[]",
          "name": "selectedNFTs",
          "type": "uint256[]"
        }
      ],
      "name": "createCollection",
      "outputs": [],
      "stateMutability": "nonpayable",
      "type": "function"
    },
    {
      "inputs": [
        {
          "internalType": "string",
          "name": "tokenURI",
          "type": "string"
        },
        {
          "internalType": "uint256",
          "name": "collectionId",
          "type": "uint256"
        }
      ],
      "name": "createToken",
      "outputs": [
        {
          "internalType": "uint256",
          "name": "",
          "type": "uint256"
        }
      ],
      "stateMutability": "payable",
      "type": "function"
    },
    {
      "inputs": [],
      "name": "fetchMyCollections",
      "outputs": [
        {
          "components": [
            {
              "internalType": "uint256",
              "name": "collectionId",
              "type": "uint256"
            },
            {
              "internalType": "address",
              "name": "owner",
              "type": "address"
            },
            {
              "internalType": "string",
              "name": "collectionURI",
              "type": "string"
            }
          ],
          "internalType": "struct EtherNFTPlace.Collection[]",
          "name": "",
          "type": "tuple[]"
        }
      ],
      "stateMutability": "view",
      "type": "function"
    },
    {
      "inputs": [
        {
          "internalType": "uint256",
          "name": "collectionId",
          "type": "uint256"
        }
      ],
      "name": "fetchMyNFTsByCollection",
      "outputs": [
        {
          "components": [
            {
              "internalType": "uint256",
              "name": "tokenId",
              "type": "uint256"
            },
            {
              "internalType": "address",
              "name": "owner",
              "type": "address"
            },
            {
              "internalType": "uint256",
              "name": "collectionId",
              "type": "uint256"
            }
          ],
          "internalType": "struct EtherNFTPlace.NFT[]",
          "name": "",
          "type": "tuple[]"
        }
      ],
      "stateMutability": "view",
      "type": "function"
    },
    {
      "inputs": [
        {
          "internalType": "uint256",
          "name": "tokenId",
          "type": "uint256"
        }
      ],
      "name": "getApproved",
      "outputs": [
        {
          "internalType": "address",
          "name": "",
          "type": "address"
        }
      ],
      "stateMutability": "view",
      "type": "function"
    },
    {
      "inputs": [
        {
          "internalType": "address",
          "name": "owner",
          "type": "address"
        },
        {
          "internalType": "address",
          "name": "operator",
          "type": "address"
        }
      ],
      "name": "isApprovedForAll",
      "outputs": [
        {
          "internalType": "bool",
          "name": "",
          "type": "bool"
        }
      ],
      "stateMutability": "view",
      "type": "function"
    },
    {
      "inputs": [],
      "name": "name",
      "outputs": [
        {
          "internalType": "string",
          "name": "",
          "type": "string"
        }
      ],
      "stateMutability": "view",
      "type": "function"
    },
    {
      "inputs": [
        {
          "internalType": "uint256",
          "name": "tokenId",
          "type": "uint256"
        }
      ],
      "name": "ownerOf",
      "outputs": [
        {
          "internalType": "address",
          "name": "",
          "type": "address"
        }
      ],
      "stateMutability": "view",
      "type": "function"
    },
    {
      "inputs": [
        {
          "internalType": "address",
          "name": "from",
          "type": "address"
        },
        {
          "internalType": "address",
          "name": "to",
          "type": "address"
        },
        {
          "internalType": "uint256",
          "name": "tokenId",
          "type": "uint256"
        }
      ],
      "name": "safeTransferFrom",
      "outputs": [],
      "stateMutability": "nonpayable",
      "type": "function"
    },
    {
      "inputs": [
        {
          "internalType": "address",
          "name": "from",
          "type": "address"
        },
        {
          "internalType": "address",
          "name": "to",
          "type": "address"
        },
        {
          "internalType": "uint256",
          "name": "tokenId",
          "type": "uint256"
        },
        {
          "internalType": "bytes",
          "name": "data",
          "type": "bytes"
        }
      ],
      "name": "safeTransferFrom",
      "outputs": [],
      "stateMutability": "nonpayable",
      "type": "function"
    },
    {
      "inputs": [
        {
          "internalType": "address",
          "name": "operator",
          "type": "address"
        },
        {
          "internalType": "bool",
          "name": "approved",
          "type": "bool"
        }
      ],
      "name": "setApprovalForAll",
      "outputs": [],
      "stateMutability": "nonpayable",
      "type": "function"
    },
    {
      "inputs": [
        {
          "internalType": "bytes4",
          "name": "interfaceId",
          "type": "bytes4"
        }
      ],
      "name": "supportsInterface",
      "outputs": [
        {
          "internalType": "bool",
          "name": "",
          "type": "bool"
        }
      ],
      "stateMutability": "view",
      "type": "function"
    },
    {
      "inputs": [],
      "name": "symbol",
      "outputs": [
        {
          "internalType": "string",
          "name": "",
          "type": "string"
        }
      ],
      "stateMutability": "view",
      "type": "function"
    },
    {
      "inputs": [
        {
          "internalType": "uint256",
          "name": "tokenId",
          "type": "uint256"
        }
      ],
      "name": "tokenURI",
      "outputs": [
        {
          "internalType": "string",
          "name": "",
          "type": "string"
        }
      ],
      "stateMutability": "view",
      "type": "function"
    },
    {
      "inputs": [
        {
          "internalType": "address",
          "name": "from",
          "type": "address"
        },
        {
          "internalType": "address",
          "name": "to",
          "type": "address"
        },
        {
          "internalType": "uint256",
          "name": "tokenId",
          "type": "uint256"
        }
      ],
      "name": "transferFrom",
      "outputs": [],
      "stateMutability": "nonpayable",
      "type": "function"
    },
    {
      "inputs": [
        {
          "internalType": "uint256",
          "name": "collectionId",
          "type": "uint256"
        },
        {
          "internalType": "uint256[]",
          "name": "selectedNFTs",
          "type": "uint256[]"
        },
        {
          "internalType": "string",
          "name": "_newCollectionURI",
          "type": "string"
        }
      ],
      "name": "updateCollection",
      "outputs": [],
      "stateMutability": "nonpayable",
      "type": "function"
    }
  ],
  "bytecode": "0x60806040523480156200001157600080fd5b506040518060400160405280601081526020017f4d657461766572736520546f6b656e73000000000000000000000000000000008152506040518060400160405280600481526020017f4d4554540000000000000000000000000000000000000000000000000000000081525081600090816200008f919062000365565b508060019081620000a1919062000365565b50505033600960006101000a81548173ffffffffffffffffffffffffffffffffffffffff021916908373ffffffffffffffffffffffffffffffffffffffff1602179055506200044c565b600081519050919050565b7f4e487b7100000000000000000000000000000000000000000000000000000000600052604160045260246000fd5b7f4e487b7100000000000000000000000000000000000000000000000000000000600052602260045260246000fd5b600060028204905060018216806200016d57607f821691505b60208210810362000183576200018262000125565b5b50919050565b60008190508160005260206000209050919050565b60006020601f8301049050919050565b600082821b905092915050565b600060088302620001ed7fffffffffffffffffffffffffffffffffffffffffffffffffffffffffffffffff82620001ae565b620001f98683620001ae565b95508019841693508086168417925050509392505050565b6000819050919050565b6000819050919050565b600062000246620002406200023a8462000211565b6200021b565b62000211565b9050919050565b6000819050919050565b620002628362000225565b6200027a62000271826200024d565b848454620001bb565b825550505050565b600090565b6200029162000282565b6200029e81848462000257565b505050565b5b81811015620002c657620002ba60008262000287565b600181019050620002a4565b5050565b601f8211156200031557620002df8162000189565b620002ea846200019e565b81016020851015620002fa578190505b6200031262000309856200019e565b830182620002a3565b50505b505050565b600082821c905092915050565b60006200033a600019846008026200031a565b1980831691505092915050565b600062000355838362000327565b9150826002028217905092915050565b6200037082620000eb565b67ffffffffffffffff8111156200038c576200038b620000f6565b5b62000398825462000154565b620003a5828285620002ca565b600060209050601f831160018114620003dd5760008415620003c8578287015190505b620003d4858262000347565b86555062000444565b601f198416620003ed8662000189565b60005b828110156200041757848901518255600182019150602085019450602081019050620003f0565b8683101562000437578489015162000433601f89168262000327565b8355505b6001600288020188555050505b505050505050565b6141b1806200045c6000396000f3fe6080604052600436106101095760003560e01c806370a0823111610095578063a280d6c811610064578063a280d6c814610392578063b88d4fde146103bd578063c87b56dd146103e6578063e985e9c514610423578063ed6343581461046057610109565b806370a08231146102d157806372b3b6201461030e57806395d89b411461033e578063a22cb4651461036957610109565b806323b872dd116100dc57806323b872dd146101dc5780632b22a509146102055780633eb2a2051461022e57806342842e0e1461026b5780636352211e1461029457610109565b806301ffc9a71461010e57806306fdde031461014b578063081812fc14610176578063095ea7b3146101b3575b600080fd5b34801561011a57600080fd5b5061013560048036038101906101309190612830565b610489565b6040516101429190612878565b60405180910390f35b34801561015757600080fd5b506101606104ea565b60405161016d9190612923565b60405180910390f35b34801561018257600080fd5b5061019d6004803603810190610198919061297b565b61057c565b6040516101aa91906129e9565b60405180910390f35b3480156101bf57600080fd5b506101da60048036038101906101d59190612a30565b6105c2565b005b3480156101e857600080fd5b5061020360048036038101906101fe9190612a70565b6106d9565b005b34801561021157600080fd5b5061022c60048036038101906102279190612cc0565b610739565b005b34801561023a57600080fd5b506102556004803603810190610250919061297b565b6109cb565b6040516102629190612e47565b60405180910390f35b34801561027757600080fd5b50610292600480360381019061028d9190612a70565b610c62565b005b3480156102a057600080fd5b506102bb60048036038101906102b6919061297b565b610c82565b6040516102c891906129e9565b60405180910390f35b3480156102dd57600080fd5b506102f860048036038101906102f39190612e69565b610d08565b6040516103059190612ea5565b60405180910390f35b61032860048036038101906103239190612ec0565b610dbf565b6040516103359190612ea5565b60405180910390f35b34801561034a57600080fd5b50610353610ed3565b6040516103609190612923565b60405180910390f35b34801561037557600080fd5b50610390600480360381019061038b9190612f48565b610f65565b005b34801561039e57600080fd5b506103a7610f7b565b6040516103b491906130e4565b60405180910390f35b3480156103c957600080fd5b506103e460048036038101906103df91906131a7565b61127e565b005b3480156103f257600080fd5b5061040d6004803603810190610408919061297b565b6112e0565b60405161041a9190612923565b60405180910390f35b34801561042f57600080fd5b5061044a6004803603810190610445919061322a565b6113f2565b6040516104579190612878565b60405180910390f35b34801561046c57600080fd5b506104876004803603810190610482919061326a565b611486565b005b6000634906490660e01b7bffffffffffffffffffffffffffffffffffffffffffffffffffffffff1916827bffffffffffffffffffffffffffffffffffffffffffffffffffffffff191614806104e357506104e2826117ef565b5b9050919050565b6060600080546104f990613324565b80601f016020809104026020016040519081016040528092919081815260200182805461052590613324565b80156105725780601f1061054757610100808354040283529160200191610572565b820191906000526020600020905b81548152906001019060200180831161055557829003601f168201915b5050505050905090565b6000610587826118d1565b6004600083815260200190815260200160002060009054906101000a900473ffffffffffffffffffffffffffffffffffffffff169050919050565b60006105cd82610c82565b90508073ffffffffffffffffffffffffffffffffffffffff168373ffffffffffffffffffffffffffffffffffffffff160361063d576040517f08c379a0000000000000000000000000000000000000000000000000000000008152600401610634906133c7565b60405180910390fd5b8073ffffffffffffffffffffffffffffffffffffffff1661065c61191c565b73ffffffffffffffffffffffffffffffffffffffff16148061068b575061068a8161068561191c565b6113f2565b5b6106ca576040517f08c379a00000000000000000000000000000000000000000000000000000000081526004016106c190613459565b60405180910390fd5b6106d48383611924565b505050565b6106ea6106e461191c565b826119dd565b610729576040517f08c379a0000000000000000000000000000000000000000000000000000000008152600401610720906134eb565b60405180910390fd5b610734838383611a72565b505050565b6107436008611d6b565b600061074f6008611d81565b905060405180606001604052808281526020013373ffffffffffffffffffffffffffffffffffffffff16815260200184815250600a60008381526020019081526020016000206000820151816000015560208201518160010160006101000a81548173ffffffffffffffffffffffffffffffffffffffff021916908373ffffffffffffffffffffffffffffffffffffffff16021790555060408201518160020190816107fb91906136b7565b50905050807fb0b7b214963f2e16da9cf6ed5851757dfed306875edf1d59e030881102ef24ef3385604051610831929190613789565b60405180910390a26000825111156109c65760005b8251811015610989576000838281518110610864576108636137b9565b5b6020026020010151905061087781611d8f565b6108b6576040517f08c379a00000000000000000000000000000000000000000000000000000000081526004016108ad90613834565b60405180910390fd5b3373ffffffffffffffffffffffffffffffffffffffff16600b600083815260200190815260200160002060010160009054906101000a900473ffffffffffffffffffffffffffffffffffffffff1673ffffffffffffffffffffffffffffffffffffffff161461095a576040517f08c379a0000000000000000000000000000000000000000000000000000000008152600401610951906138a0565b60405180910390fd5b82600b600083815260200190815260200160002060020181905550508080610981906138ef565b915050610846565b507fe40078c1a0c35f7a31b6bc2fffcb1efa8c74af25b8868f94619a0afa890b031b8233836040516109bd939291906139e6565b60405180910390a15b505050565b606060006109d96007611d81565b905060008060005b838111610a955785600b600083815260200190815260200160002060020154148015610a6e57503373ffffffffffffffffffffffffffffffffffffffff16600b600083815260200190815260200160002060010160009054906101000a900473ffffffffffffffffffffffffffffffffffffffff1673ffffffffffffffffffffffffffffffffffffffff16145b15610a82578280610a7e906138ef565b9350505b8080610a8d906138ef565b9150506109e1565b5060008267ffffffffffffffff811115610ab257610ab1612acd565b5b604051908082528060200260200182016040528015610aeb57816020015b610ad8612756565b815260200190600190039081610ad05790505b5090506000600190505b848111610c555786600b600083815260200190815260200160002060020154148015610b8257503373ffffffffffffffffffffffffffffffffffffffff16600b600083815260200190815260200160002060010160009054906101000a900473ffffffffffffffffffffffffffffffffffffffff1673ffffffffffffffffffffffffffffffffffffffff16145b15610c42576000600b6000838152602001908152602001600020905080604051806060016040529081600082015481526020016001820160009054906101000a900473ffffffffffffffffffffffffffffffffffffffff1673ffffffffffffffffffffffffffffffffffffffff1673ffffffffffffffffffffffffffffffffffffffff168152602001600282015481525050838581518110610c2757610c266137b9565b5b60200260200101819052508380610c3d906138ef565b945050505b8080610c4d906138ef565b915050610af5565b5080945050505050919050565b610c7d8383836040518060200160405280600081525061127e565b505050565b600080610c8e83611dd0565b9050600073ffffffffffffffffffffffffffffffffffffffff168173ffffffffffffffffffffffffffffffffffffffff1603610cff576040517f08c379a0000000000000000000000000000000000000000000000000000000008152600401610cf690613a70565b60405180910390fd5b80915050919050565b60008073ffffffffffffffffffffffffffffffffffffffff168273ffffffffffffffffffffffffffffffffffffffff1603610d78576040517f08c379a0000000000000000000000000000000000000000000000000000000008152600401610d6f90613b02565b60405180910390fd5b600360008373ffffffffffffffffffffffffffffffffffffffff1673ffffffffffffffffffffffffffffffffffffffff168152602001908152602001600020549050919050565b6000610dcb6007611d6b565b6000610dd76007611d81565b9050610de33382611e0d565b610ded818561202a565b60405180606001604052808281526020013373ffffffffffffffffffffffffffffffffffffffff16815260200184815250600b60008381526020019081526020016000206000820151816000015560208201518160010160006101000a81548173ffffffffffffffffffffffffffffffffffffffff021916908373ffffffffffffffffffffffffffffffffffffffff16021790555060408201518160020155905050807f94619d2447a6efc7f1095856ea5af24ffa395982057fcd550cb7909aea537bbd3385604051610ec1929190613b22565b60405180910390a28091505092915050565b606060018054610ee290613324565b80601f0160208091040260200160405190810160405280929190818152602001828054610f0e90613324565b8015610f5b5780601f10610f3057610100808354040283529160200191610f5b565b820191906000526020600020905b815481529060010190602001808311610f3e57829003601f168201915b5050505050905090565b610f77610f7061191c565b83836120ce565b5050565b60606000610f896008611d81565b905060008060005b83811015611031573373ffffffffffffffffffffffffffffffffffffffff16600a6000600184610fc19190613b4b565b815260200190815260200160002060010160009054906101000a900473ffffffffffffffffffffffffffffffffffffffff1673ffffffffffffffffffffffffffffffffffffffff160361101e5760018361101b9190613b4b565b92505b8080611029906138ef565b915050610f91565b5060008267ffffffffffffffff81111561104e5761104d612acd565b5b60405190808252806020026020018201604052801561108757816020015b61107461278d565b81526020019060019003908161106c5790505b50905060005b84811015611273573373ffffffffffffffffffffffffffffffffffffffff16600a60006001846110bd9190613b4b565b815260200190815260200160002060010160009054906101000a900473ffffffffffffffffffffffffffffffffffffffff1673ffffffffffffffffffffffffffffffffffffffff16036112605760006001826111199190613b4b565b90506000600a6000838152602001908152602001600020604051806060016040529081600082015481526020016001820160009054906101000a900473ffffffffffffffffffffffffffffffffffffffff1673ffffffffffffffffffffffffffffffffffffffff1673ffffffffffffffffffffffffffffffffffffffff1681526020016002820180546111ab90613324565b80601f01602080910402602001604051908101604052809291908181526020018280546111d790613324565b80156112245780601f106111f957610100808354040283529160200191611224565b820191906000526020600020905b81548152906001019060200180831161120757829003601f168201915b505050505081525050905080848681518110611243576112426137b9565b5b602002602001018190525060018561125b9190613b4b565b945050505b808061126b906138ef565b91505061108d565b508094505050505090565b61128f61128961191c565b836119dd565b6112ce576040517f08c379a00000000000000000000000000000000000000000000000000000000081526004016112c5906134eb565b60405180910390fd5b6112da8484848461223a565b50505050565b60606112eb826118d1565b600060066000848152602001908152602001600020805461130b90613324565b80601f016020809104026020016040519081016040528092919081815260200182805461133790613324565b80156113845780601f1061135957610100808354040283529160200191611384565b820191906000526020600020905b81548152906001019060200180831161136757829003601f168201915b505050505090506000611395612296565b905060008151036113aa5781925050506113ed565b6000825111156113df5780826040516020016113c7929190613bbb565b604051602081830303815290604052925050506113ed565b6113e8846122ad565b925050505b919050565b6000600560008473ffffffffffffffffffffffffffffffffffffffff1673ffffffffffffffffffffffffffffffffffffffff16815260200190815260200160002060008373ffffffffffffffffffffffffffffffffffffffff1673ffffffffffffffffffffffffffffffffffffffff16815260200190815260200160002060009054906101000a900460ff16905092915050565b3373ffffffffffffffffffffffffffffffffffffffff16600a600085815260200190815260200160002060010160009054906101000a900473ffffffffffffffffffffffffffffffffffffffff1673ffffffffffffffffffffffffffffffffffffffff161461152a576040517f08c379a000000000000000000000000000000000000000000000000000000000815260040161152190613c2b565b60405180910390fd5b6000600c6000858152602001908152602001600020905081600a6000868152602001908152602001600020600201908161156491906136b7565b50837fc96b737485b93f5411fcc8444621944a2e03644f957e268c6affb0a2bd3b84bf3384604051611597929190613789565b60405180910390a26000835111156117e95760005b83518110156117ac5760008482815181106115ca576115c96137b9565b5b602002602001015190506115dd81611d8f565b61161c576040517f08c379a000000000000000000000000000000000000000000000000000000000815260040161161390613834565b60405180910390fd5b3373ffffffffffffffffffffffffffffffffffffffff16600b600083815260200190815260200160002060010160009054906101000a900473ffffffffffffffffffffffffffffffffffffffff1673ffffffffffffffffffffffffffffffffffffffff16146116c0576040517f08c379a00000000000000000000000000000000000000000000000000000000081526004016116b7906138a0565b60405180910390fd5b85600b60008381526020019081526020016000206002015414611718576040517f08c379a000000000000000000000000000000000000000000000000000000000815260040161170f90613cbd565b60405180910390fd5b6000805b8480549050811015611768578285828154811061173c5761173b6137b9565b5b9060005260206000200154036117555760019150611768565b8080611760906138ef565b91505061171c565b508061179757838290806001815401808255809150506001900390600052602060002001600090919091909150555b505080806117a4906138ef565b9150506115ac565b507fe40078c1a0c35f7a31b6bc2fffcb1efa8c74af25b8868f94619a0afa890b031b8333866040516117e0939291906139e6565b60405180910390a15b50505050565b60007f80ac58cd000000000000000000000000000000000000000000000000000000007bffffffffffffffffffffffffffffffffffffffffffffffffffffffff1916827bffffffffffffffffffffffffffffffffffffffffffffffffffffffff191614806118ba57507f5b5e139f000000000000000000000000000000000000000000000000000000007bffffffffffffffffffffffffffffffffffffffffffffffffffffffff1916827bffffffffffffffffffffffffffffffffffffffffffffffffffffffff1916145b806118ca57506118c982612315565b5b9050919050565b6118da81611d8f565b611919576040517f08c379a000000000000000000000000000000000000000000000000000000000815260040161191090613a70565b60405180910390fd5b50565b600033905090565b816004600083815260200190815260200160002060006101000a81548173ffffffffffffffffffffffffffffffffffffffff021916908373ffffffffffffffffffffffffffffffffffffffff160217905550808273ffffffffffffffffffffffffffffffffffffffff1661199783610c82565b73ffffffffffffffffffffffffffffffffffffffff167f8c5be1e5ebec7d5bd14f71427d1e84f3dd0314c0f7b2291e5b200ac8c7c3b92560405160405180910390a45050565b6000806119e983610c82565b90508073ffffffffffffffffffffffffffffffffffffffff168473ffffffffffffffffffffffffffffffffffffffff161480611a2b5750611a2a81856113f2565b5b80611a6957508373ffffffffffffffffffffffffffffffffffffffff16611a518461057c565b73ffffffffffffffffffffffffffffffffffffffff16145b91505092915050565b8273ffffffffffffffffffffffffffffffffffffffff16611a9282610c82565b73ffffffffffffffffffffffffffffffffffffffff1614611ae8576040517f08c379a0000000000000000000000000000000000000000000000000000000008152600401611adf90613d4f565b60405180910390fd5b600073ffffffffffffffffffffffffffffffffffffffff168273ffffffffffffffffffffffffffffffffffffffff1603611b57576040517f08c379a0000000000000000000000000000000000000000000000000000000008152600401611b4e90613de1565b60405180910390fd5b611b64838383600161237f565b8273ffffffffffffffffffffffffffffffffffffffff16611b8482610c82565b73ffffffffffffffffffffffffffffffffffffffff1614611bda576040517f08c379a0000000000000000000000000000000000000000000000000000000008152600401611bd190613d4f565b60405180910390fd5b6004600082815260200190815260200160002060006101000a81549073ffffffffffffffffffffffffffffffffffffffff02191690556001600360008573ffffffffffffffffffffffffffffffffffffffff1673ffffffffffffffffffffffffffffffffffffffff168152602001908152602001600020600082825403925050819055506001600360008473ffffffffffffffffffffffffffffffffffffffff1673ffffffffffffffffffffffffffffffffffffffff16815260200190815260200160002060008282540192505081905550816002600083815260200190815260200160002060006101000a81548173ffffffffffffffffffffffffffffffffffffffff021916908373ffffffffffffffffffffffffffffffffffffffff160217905550808273ffffffffffffffffffffffffffffffffffffffff168473ffffffffffffffffffffffffffffffffffffffff167fddf252ad1be2c89b69c2b068fc378daa952ba7f163c4a11628f55a4df523b3ef60405160405180910390a4611d668383836001612385565b505050565b6001816000016000828254019250508190555050565b600081600001549050919050565b60008073ffffffffffffffffffffffffffffffffffffffff16611db183611dd0565b73ffffffffffffffffffffffffffffffffffffffff1614159050919050565b60006002600083815260200190815260200160002060009054906101000a900473ffffffffffffffffffffffffffffffffffffffff169050919050565b600073ffffffffffffffffffffffffffffffffffffffff168273ffffffffffffffffffffffffffffffffffffffff1603611e7c576040517f08c379a0000000000000000000000000000000000000000000000000000000008152600401611e7390613e4d565b60405180910390fd5b611e8581611d8f565b15611ec5576040517f08c379a0000000000000000000000000000000000000000000000000000000008152600401611ebc90613eb9565b60405180910390fd5b611ed360008383600161237f565b611edc81611d8f565b15611f1c576040517f08c379a0000000000000000000000000000000000000000000000000000000008152600401611f1390613eb9565b60405180910390fd5b6001600360008473ffffffffffffffffffffffffffffffffffffffff1673ffffffffffffffffffffffffffffffffffffffff16815260200190815260200160002060008282540192505081905550816002600083815260200190815260200160002060006101000a81548173ffffffffffffffffffffffffffffffffffffffff021916908373ffffffffffffffffffffffffffffffffffffffff160217905550808273ffffffffffffffffffffffffffffffffffffffff16600073ffffffffffffffffffffffffffffffffffffffff167fddf252ad1be2c89b69c2b068fc378daa952ba7f163c4a11628f55a4df523b3ef60405160405180910390a4612026600083836001612385565b5050565b61203382611d8f565b612072576040517f08c379a000000000000000000000000000000000000000000000000000000000815260040161206990613f4b565b60405180910390fd5b8060066000848152602001908152602001600020908161209291906136b7565b507ff8e1a15aba9398e019f0b49df1a4fde98ee17ae345cb5f6b5e2c27f5033e8ce7826040516120c29190612ea5565b60405180910390a15050565b8173ffffffffffffffffffffffffffffffffffffffff168373ffffffffffffffffffffffffffffffffffffffff160361213c576040517f08c379a000000000000000000000000000000000000000000000000000000000815260040161213390613fb7565b60405180910390fd5b80600560008573ffffffffffffffffffffffffffffffffffffffff1673ffffffffffffffffffffffffffffffffffffffff16815260200190815260200160002060008473ffffffffffffffffffffffffffffffffffffffff1673ffffffffffffffffffffffffffffffffffffffff16815260200190815260200160002060006101000a81548160ff0219169083151502179055508173ffffffffffffffffffffffffffffffffffffffff168373ffffffffffffffffffffffffffffffffffffffff167f17307eab39ab6107e8899845ad3d59bd9653f200f220920489ca2b5937696c318360405161222d9190612878565b60405180910390a3505050565b612245848484611a72565b6122518484848461238b565b612290576040517f08c379a000000000000000000000000000000000000000000000000000000000815260040161228790614049565b60405180910390fd5b50505050565b606060405180602001604052806000815250905090565b60606122b8826118d1565b60006122c2612296565b905060008151116122e2576040518060200160405280600081525061230d565b806122ec84612512565b6040516020016122fd929190613bbb565b6040516020818303038152906040525b915050919050565b60007f01ffc9a7000000000000000000000000000000000000000000000000000000007bffffffffffffffffffffffffffffffffffffffffffffffffffffffff1916827bffffffffffffffffffffffffffffffffffffffffffffffffffffffff1916149050919050565b50505050565b50505050565b60006123ac8473ffffffffffffffffffffffffffffffffffffffff166125e0565b15612505578373ffffffffffffffffffffffffffffffffffffffff1663150b7a026123d561191c565b8786866040518563ffffffff1660e01b81526004016123f794939291906140be565b6020604051808303816000875af192505050801561243357506040513d601f19601f82011682018060405250810190612430919061411f565b60015b6124b5573d8060008114612463576040519150601f19603f3d011682016040523d82523d6000602084013e612468565b606091505b5060008151036124ad576040517f08c379a00000000000000000000000000000000000000000000000000000000081526004016124a490614049565b60405180910390fd5b805181602001fd5b63150b7a0260e01b7bffffffffffffffffffffffffffffffffffffffffffffffffffffffff1916817bffffffffffffffffffffffffffffffffffffffffffffffffffffffff19161491505061250a565b600190505b949350505050565b60606000600161252184612603565b01905060008167ffffffffffffffff8111156125405761253f612acd565b5b6040519080825280601f01601f1916602001820160405280156125725781602001600182028036833780820191505090505b509050600082602001820190505b6001156125d5578080600190039150507f3031323334353637383961626364656600000000000000000000000000000000600a86061a8153600a85816125c9576125c861414c565b5b04945060008503612580575b819350505050919050565b6000808273ffffffffffffffffffffffffffffffffffffffff163b119050919050565b600080600090507a184f03e93ff9f4daa797ed6e38ed64bf6a1f0100000000000000008310612661577a184f03e93ff9f4daa797ed6e38ed64bf6a1f01000000000000000083816126575761265661414c565b5b0492506040810190505b6d04ee2d6d415b85acef8100000000831061269e576d04ee2d6d415b85acef810000000083816126945761269361414c565b5b0492506020810190505b662386f26fc1000083106126cd57662386f26fc1000083816126c3576126c261414c565b5b0492506010810190505b6305f5e10083106126f6576305f5e10083816126ec576126eb61414c565b5b0492506008810190505b612710831061271b5761271083816127115761271061414c565b5b0492506004810190505b6064831061273e57606483816127345761273361414c565b5b0492506002810190505b600a831061274d576001810190505b80915050919050565b604051806060016040528060008152602001600073ffffffffffffffffffffffffffffffffffffffff168152602001600081525090565b604051806060016040528060008152602001600073ffffffffffffffffffffffffffffffffffffffff168152602001606081525090565b6000604051905090565b600080fd5b600080fd5b60007fffffffff0000000000000000000000000000000000000000000000000000000082169050919050565b61280d816127d8565b811461281857600080fd5b50565b60008135905061282a81612804565b92915050565b600060208284031215612846576128456127ce565b5b60006128548482850161281b565b91505092915050565b60008115159050919050565b6128728161285d565b82525050565b600060208201905061288d6000830184612869565b92915050565b600081519050919050565b600082825260208201905092915050565b60005b838110156128cd5780820151818401526020810190506128b2565b60008484015250505050565b6000601f19601f8301169050919050565b60006128f582612893565b6128ff818561289e565b935061290f8185602086016128af565b612918816128d9565b840191505092915050565b6000602082019050818103600083015261293d81846128ea565b905092915050565b6000819050919050565b61295881612945565b811461296357600080fd5b50565b6000813590506129758161294f565b92915050565b600060208284031215612991576129906127ce565b5b600061299f84828501612966565b91505092915050565b600073ffffffffffffffffffffffffffffffffffffffff82169050919050565b60006129d3826129a8565b9050919050565b6129e3816129c8565b82525050565b60006020820190506129fe60008301846129da565b92915050565b612a0d816129c8565b8114612a1857600080fd5b50565b600081359050612a2a81612a04565b92915050565b60008060408385031215612a4757612a466127ce565b5b6000612a5585828601612a1b565b9250506020612a6685828601612966565b9150509250929050565b600080600060608486031215612a8957612a886127ce565b5b6000612a9786828701612a1b565b9350506020612aa886828701612a1b565b9250506040612ab986828701612966565b9150509250925092565b600080fd5b600080fd5b7f4e487b7100000000000000000000000000000000000000000000000000000000600052604160045260246000fd5b612b05826128d9565b810181811067ffffffffffffffff82111715612b2457612b23612acd565b5b80604052505050565b6000612b376127c4565b9050612b438282612afc565b919050565b600067ffffffffffffffff821115612b6357612b62612acd565b5b612b6c826128d9565b9050602081019050919050565b82818337600083830152505050565b6000612b9b612b9684612b48565b612b2d565b905082815260208101848484011115612bb757612bb6612ac8565b5b612bc2848285612b79565b509392505050565b600082601f830112612bdf57612bde612ac3565b5b8135612bef848260208601612b88565b91505092915050565b600067ffffffffffffffff821115612c1357612c12612acd565b5b602082029050602081019050919050565b600080fd5b6000612c3c612c3784612bf8565b612b2d565b90508083825260208201905060208402830185811115612c5f57612c5e612c24565b5b835b81811015612c885780612c748882612966565b845260208401935050602081019050612c61565b5050509392505050565b600082601f830112612ca757612ca6612ac3565b5b8135612cb7848260208601612c29565b91505092915050565b60008060408385031215612cd757612cd66127ce565b5b600083013567ffffffffffffffff811115612cf557612cf46127d3565b5b612d0185828601612bca565b925050602083013567ffffffffffffffff811115612d2257612d216127d3565b5b612d2e85828601612c92565b9150509250929050565b600081519050919050565b600082825260208201905092915050565b6000819050602082019050919050565b612d6d81612945565b82525050565b612d7c816129c8565b82525050565b606082016000820151612d986000850182612d64565b506020820151612dab6020850182612d73565b506040820151612dbe6040850182612d64565b50505050565b6000612dd08383612d82565b60608301905092915050565b6000602082019050919050565b6000612df482612d38565b612dfe8185612d43565b9350612e0983612d54565b8060005b83811015612e3a578151612e218882612dc4565b9750612e2c83612ddc565b925050600181019050612e0d565b5085935050505092915050565b60006020820190508181036000830152612e618184612de9565b905092915050565b600060208284031215612e7f57612e7e6127ce565b5b6000612e8d84828501612a1b565b91505092915050565b612e9f81612945565b82525050565b6000602082019050612eba6000830184612e96565b92915050565b60008060408385031215612ed757612ed66127ce565b5b600083013567ffffffffffffffff811115612ef557612ef46127d3565b5b612f0185828601612bca565b9250506020612f1285828601612966565b9150509250929050565b612f258161285d565b8114612f3057600080fd5b50565b600081359050612f4281612f1c565b92915050565b60008060408385031215612f5f57612f5e6127ce565b5b6000612f6d85828601612a1b565b9250506020612f7e85828601612f33565b9150509250929050565b600081519050919050565b600082825260208201905092915050565b6000819050602082019050919050565b600082825260208201905092915050565b6000612fd082612893565b612fda8185612fb4565b9350612fea8185602086016128af565b612ff3816128d9565b840191505092915050565b60006060830160008301516130166000860182612d64565b5060208301516130296020860182612d73565b50604083015184820360408601526130418282612fc5565b9150508091505092915050565b600061305a8383612ffe565b905092915050565b6000602082019050919050565b600061307a82612f88565b6130848185612f93565b93508360208202850161309685612fa4565b8060005b858110156130d257848403895281516130b3858261304e565b94506130be83613062565b925060208a0199505060018101905061309a565b50829750879550505050505092915050565b600060208201905081810360008301526130fe818461306f565b905092915050565b600067ffffffffffffffff82111561312157613120612acd565b5b61312a826128d9565b9050602081019050919050565b600061314a61314584613106565b612b2d565b90508281526020810184848401111561316657613165612ac8565b5b613171848285612b79565b509392505050565b600082601f83011261318e5761318d612ac3565b5b813561319e848260208601613137565b91505092915050565b600080600080608085870312156131c1576131c06127ce565b5b60006131cf87828801612a1b565b94505060206131e087828801612a1b565b93505060406131f187828801612966565b925050606085013567ffffffffffffffff811115613212576132116127d3565b5b61321e87828801613179565b91505092959194509250565b60008060408385031215613241576132406127ce565b5b600061324f85828601612a1b565b925050602061326085828601612a1b565b9150509250929050565b600080600060608486031215613283576132826127ce565b5b600061329186828701612966565b935050602084013567ffffffffffffffff8111156132b2576132b16127d3565b5b6132be86828701612c92565b925050604084013567ffffffffffffffff8111156132df576132de6127d3565b5b6132eb86828701612bca565b9150509250925092565b7f4e487b7100000000000000000000000000000000000000000000000000000000600052602260045260246000fd5b6000600282049050600182168061333c57607f821691505b60208210810361334f5761334e6132f5565b5b50919050565b7f4552433732313a20617070726f76616c20746f2063757272656e74206f776e6560008201527f7200000000000000000000000000000000000000000000000000000000000000602082015250565b60006133b160218361289e565b91506133bc82613355565b604082019050919050565b600060208201905081810360008301526133e0816133a4565b9050919050565b7f4552433732313a20617070726f76652063616c6c6572206973206e6f7420746f60008201527f6b656e206f776e6572206f7220617070726f76656420666f7220616c6c000000602082015250565b6000613443603d8361289e565b915061344e826133e7565b604082019050919050565b6000602082019050818103600083015261347281613436565b9050919050565b7f4552433732313a2063616c6c6572206973206e6f7420746f6b656e206f776e6560008201527f72206f7220617070726f76656400000000000000000000000000000000000000602082015250565b60006134d5602d8361289e565b91506134e082613479565b604082019050919050565b60006020820190508181036000830152613504816134c8565b9050919050565b60008190508160005260206000209050919050565b60006020601f8301049050919050565b600082821b905092915050565b60006008830261356d7fffffffffffffffffffffffffffffffffffffffffffffffffffffffffffffffff82613530565b6135778683613530565b95508019841693508086168417925050509392505050565b6000819050919050565b60006135b46135af6135aa84612945565b61358f565b612945565b9050919050565b6000819050919050565b6135ce83613599565b6135e26135da826135bb565b84845461353d565b825550505050565b600090565b6135f76135ea565b6136028184846135c5565b505050565b5b818110156136265761361b6000826135ef565b600181019050613608565b5050565b601f82111561366b5761363c8161350b565b61364584613520565b81016020851015613654578190505b61366861366085613520565b830182613607565b50505b505050565b600082821c905092915050565b600061368e60001984600802613670565b1980831691505092915050565b60006136a7838361367d565b9150826002028217905092915050565b6136c082612893565b67ffffffffffffffff8111156136d9576136d8612acd565b5b6136e38254613324565b6136ee82828561362a565b600060209050601f831160018114613721576000841561370f578287015190505b613719858261369b565b865550613781565b601f19841661372f8661350b565b60005b8281101561375757848901518255600182019150602085019450602081019050613732565b868310156137745784890151613770601f89168261367d565b8355505b6001600288020188555050505b505050505050565b600060408201905061379e60008301856129da565b81810360208301526137b081846128ea565b90509392505050565b7f4e487b7100000000000000000000000000000000000000000000000000000000600052603260045260246000fd5b7f4e465420646f6573206e6f742065786973740000000000000000000000000000600082015250565b600061381e60128361289e565b9150613829826137e8565b602082019050919050565b6000602082019050818103600083015261384d81613811565b9050919050565b7f4e6f7420746865206f776e6572206f6620746865204e46540000000000000000600082015250565b600061388a60188361289e565b915061389582613854565b602082019050919050565b600060208201905081810360008301526138b98161387d565b9050919050565b7f4e487b7100000000000000000000000000000000000000000000000000000000600052601160045260246000fd5b60006138fa82612945565b91507fffffffffffffffffffffffffffffffffffffffffffffffffffffffffffffffff820361392c5761392b6138c0565b5b600182019050919050565b600081519050919050565b600082825260208201905092915050565b6000819050602082019050919050565b600061396f8383612d64565b60208301905092915050565b6000602082019050919050565b600061399382613937565b61399d8185613942565b93506139a883613953565b8060005b838110156139d95781516139c08882613963565b97506139cb8361397b565b9250506001810190506139ac565b5085935050505092915050565b60006060820190508181036000830152613a008186613988565b9050613a0f60208301856129da565b613a1c6040830184612e96565b949350505050565b7f4552433732313a20696e76616c696420746f6b656e2049440000000000000000600082015250565b6000613a5a60188361289e565b9150613a6582613a24565b602082019050919050565b60006020820190508181036000830152613a8981613a4d565b9050919050565b7f4552433732313a2061646472657373207a65726f206973206e6f74206120766160008201527f6c6964206f776e65720000000000000000000000000000000000000000000000602082015250565b6000613aec60298361289e565b9150613af782613a90565b604082019050919050565b60006020820190508181036000830152613b1b81613adf565b9050919050565b6000604082019050613b3760008301856129da565b613b446020830184612e96565b9392505050565b6000613b5682612945565b9150613b6183612945565b9250828201905080821115613b7957613b786138c0565b5b92915050565b600081905092915050565b6000613b9582612893565b613b9f8185613b7f565b9350613baf8185602086016128af565b80840191505092915050565b6000613bc78285613b8a565b9150613bd38284613b8a565b91508190509392505050565b7f4e6f7420746865206f776e6572206f662074686520636f6c6c656374696f6e00600082015250565b6000613c15601f8361289e565b9150613c2082613bdf565b602082019050919050565b60006020820190508181036000830152613c4481613c08565b9050919050565b7f4e465420646f6573206e6f742062656c6f6e6720746f2074686520636f6c6c6560008201527f6374696f6e000000000000000000000000000000000000000000000000000000602082015250565b6000613ca760258361289e565b9150613cb282613c4b565b604082019050919050565b60006020820190508181036000830152613cd681613c9a565b9050919050565b7f4552433732313a207472616e736665722066726f6d20696e636f72726563742060008201527f6f776e6572000000000000000000000000000000000000000000000000000000602082015250565b6000613d3960258361289e565b9150613d4482613cdd565b604082019050919050565b60006020820190508181036000830152613d6881613d2c565b9050919050565b7f4552433732313a207472616e7366657220746f20746865207a65726f2061646460008201527f7265737300000000000000000000000000000000000000000000000000000000602082015250565b6000613dcb60248361289e565b9150613dd682613d6f565b604082019050919050565b60006020820190508181036000830152613dfa81613dbe565b9050919050565b7f4552433732313a206d696e7420746f20746865207a65726f2061646472657373600082015250565b6000613e3760208361289e565b9150613e4282613e01565b602082019050919050565b60006020820190508181036000830152613e6681613e2a565b9050919050565b7f4552433732313a20746f6b656e20616c7265616479206d696e74656400000000600082015250565b6000613ea3601c8361289e565b9150613eae82613e6d565b602082019050919050565b60006020820190508181036000830152613ed281613e96565b9050919050565b7f45524337323155524953746f726167653a2055524920736574206f66206e6f6e60008201527f6578697374656e7420746f6b656e000000000000000000000000000000000000602082015250565b6000613f35602e8361289e565b9150613f4082613ed9565b604082019050919050565b60006020820190508181036000830152613f6481613f28565b9050919050565b7f4552433732313a20617070726f766520746f2063616c6c657200000000000000600082015250565b6000613fa160198361289e565b9150613fac82613f6b565b602082019050919050565b60006020820190508181036000830152613fd081613f94565b9050919050565b7f4552433732313a207472616e7366657220746f206e6f6e20455243373231526560008201527f63656976657220696d706c656d656e7465720000000000000000000000000000602082015250565b600061403360328361289e565b915061403e82613fd7565b604082019050919050565b6000602082019050818103600083015261406281614026565b9050919050565b600081519050919050565b600082825260208201905092915050565b600061409082614069565b61409a8185614074565b93506140aa8185602086016128af565b6140b3816128d9565b840191505092915050565b60006080820190506140d360008301876129da565b6140e060208301866129da565b6140ed6040830185612e96565b81810360608301526140ff8184614085565b905095945050505050565b60008151905061411981612804565b92915050565b600060208284031215614135576141346127ce565b5b60006141438482850161410a565b91505092915050565b7f4e487b7100000000000000000000000000000000000000000000000000000000600052601260045260246000fdfea2646970667358221220df53a2ce243e735f25aeab6ce073d3932fc02877de7acd88bcb7299d2b96f52964736f6c63430008130033",
  "linkReferences": {},
  "deployedLinkReferences": {}
}