{
  "_format": "hh-sol-artifact-1",
  "contractName": "EtherNFTPlace",
  "sourceName": "contracts/EtherNFTPlace.sol",
  "abi": [
    {
      "inputs": [],
      "stateMutability": "nonpayable",
      "type": "constructor"
    },
    {
      "anonymous": false,
      "inputs": [
        {
          "indexed": true,
          "internalType": "address",
          "name": "owner",
          "type": "address"
        },
        {
          "indexed": true,
          "internalType": "address",
          "name": "approved",
          "type": "address"
        },
        {
          "indexed": true,
          "internalType": "uint256",
          "name": "tokenId",
          "type": "uint256"
        }
      ],
      "name": "Approval",
      "type": "event"
    },
    {
      "anonymous": false,
      "inputs": [
        {
          "indexed": true,
          "internalType": "address",
          "name": "owner",
          "type": "address"
        },
        {
          "indexed": true,
          "internalType": "address",
          "name": "operator",
          "type": "address"
        },
        {
          "indexed": false,
          "internalType": "bool",
          "name": "approved",
          "type": "bool"
        }
      ],
      "name": "ApprovalForAll",
      "type": "event"
    },
    {
      "anonymous": false,
      "inputs": [
        {
          "indexed": false,
          "internalType": "uint256",
          "name": "_fromTokenId",
          "type": "uint256"
        },
        {
          "indexed": false,
          "internalType": "uint256",
          "name": "_toTokenId",
          "type": "uint256"
        }
      ],
      "name": "BatchMetadataUpdate",
      "type": "event"
    },
    {
      "anonymous": false,
      "inputs": [
        {
          "indexed": true,
          "internalType": "uint256",
          "name": "collectionId",
          "type": "uint256"
        },
        {
          "indexed": false,
          "internalType": "address",
          "name": "owner",
          "type": "address"
        },
        {
          "indexed": false,
          "internalType": "string",
          "name": "collectionURI",
          "type": "string"
        }
      ],
      "name": "CollectionCreated",
      "type": "event"
    },
    {
      "anonymous": false,
      "inputs": [
        {
          "indexed": false,
          "internalType": "uint256",
          "name": "_tokenId",
          "type": "uint256"
        }
      ],
      "name": "MetadataUpdate",
      "type": "event"
    },
    {
      "anonymous": false,
      "inputs": [
        {
          "indexed": true,
          "internalType": "uint256",
          "name": "tokenId",
          "type": "uint256"
        },
        {
          "indexed": false,
          "internalType": "address",
          "name": "owner",
          "type": "address"
        },
        {
          "indexed": false,
          "internalType": "uint256",
          "name": "collectionId",
          "type": "uint256"
        }
      ],
      "name": "NFTCreated",
      "type": "event"
    },
    {
      "anonymous": false,
      "inputs": [
        {
          "indexed": true,
          "internalType": "address",
          "name": "from",
          "type": "address"
        },
        {
          "indexed": true,
          "internalType": "address",
          "name": "to",
          "type": "address"
        },
        {
          "indexed": true,
          "internalType": "uint256",
          "name": "tokenId",
          "type": "uint256"
        }
      ],
      "name": "Transfer",
      "type": "event"
    },
    {
      "inputs": [
        {
          "internalType": "address",
          "name": "to",
          "type": "address"
        },
        {
          "internalType": "uint256",
          "name": "tokenId",
          "type": "uint256"
        }
      ],
      "name": "approve",
      "outputs": [],
      "stateMutability": "nonpayable",
      "type": "function"
    },
    {
      "inputs": [
        {
          "internalType": "address",
          "name": "owner",
          "type": "address"
        }
      ],
      "name": "balanceOf",
      "outputs": [
        {
          "internalType": "uint256",
          "name": "",
          "type": "uint256"
        }
      ],
      "stateMutability": "view",
      "type": "function"
    },
    {
      "inputs": [
        {
          "internalType": "string",
          "name": "_collectionURI",
          "type": "string"
        }
      ],
      "name": "createCollection",
      "outputs": [],
      "stateMutability": "nonpayable",
      "type": "function"
    },
    {
      "inputs": [
        {
          "internalType": "string",
          "name": "tokenURI",
          "type": "string"
        },
        {
          "internalType": "uint256",
          "name": "collectionId",
          "type": "uint256"
        }
      ],
      "name": "createToken",
      "outputs": [
        {
          "internalType": "uint256",
          "name": "",
          "type": "uint256"
        }
      ],
      "stateMutability": "payable",
      "type": "function"
    },
    {
      "inputs": [],
      "name": "fetchMyCollections",
      "outputs": [
        {
          "components": [
            {
              "internalType": "uint256",
              "name": "collectionId",
              "type": "uint256"
            },
            {
              "internalType": "address",
              "name": "owner",
              "type": "address"
            },
            {
              "internalType": "string",
              "name": "collectionURI",
              "type": "string"
            }
          ],
          "internalType": "struct EtherNFTPlace.Collection[]",
          "name": "",
          "type": "tuple[]"
        }
      ],
      "stateMutability": "view",
      "type": "function"
    },
    {
      "inputs": [
        {
          "internalType": "uint256",
          "name": "collectionId",
          "type": "uint256"
        }
      ],
      "name": "fetchMyNFTsByCollection",
      "outputs": [
        {
          "components": [
            {
              "internalType": "uint256",
              "name": "tokenId",
              "type": "uint256"
            },
            {
              "internalType": "address",
              "name": "owner",
              "type": "address"
            },
            {
              "internalType": "uint256",
              "name": "collectionId",
              "type": "uint256"
            }
          ],
          "internalType": "struct EtherNFTPlace.NFT[]",
          "name": "",
          "type": "tuple[]"
        }
      ],
      "stateMutability": "view",
      "type": "function"
    },
    {
      "inputs": [
        {
          "internalType": "uint256",
          "name": "tokenId",
          "type": "uint256"
        }
      ],
      "name": "getApproved",
      "outputs": [
        {
          "internalType": "address",
          "name": "",
          "type": "address"
        }
      ],
      "stateMutability": "view",
      "type": "function"
    },
    {
      "inputs": [
        {
          "internalType": "address",
          "name": "owner",
          "type": "address"
        },
        {
          "internalType": "address",
          "name": "operator",
          "type": "address"
        }
      ],
      "name": "isApprovedForAll",
      "outputs": [
        {
          "internalType": "bool",
          "name": "",
          "type": "bool"
        }
      ],
      "stateMutability": "view",
      "type": "function"
    },
    {
      "inputs": [],
      "name": "name",
      "outputs": [
        {
          "internalType": "string",
          "name": "",
          "type": "string"
        }
      ],
      "stateMutability": "view",
      "type": "function"
    },
    {
      "inputs": [
        {
          "internalType": "uint256",
          "name": "tokenId",
          "type": "uint256"
        }
      ],
      "name": "ownerOf",
      "outputs": [
        {
          "internalType": "address",
          "name": "",
          "type": "address"
        }
      ],
      "stateMutability": "view",
      "type": "function"
    },
    {
      "inputs": [
        {
          "internalType": "address",
          "name": "from",
          "type": "address"
        },
        {
          "internalType": "address",
          "name": "to",
          "type": "address"
        },
        {
          "internalType": "uint256",
          "name": "tokenId",
          "type": "uint256"
        }
      ],
      "name": "safeTransferFrom",
      "outputs": [],
      "stateMutability": "nonpayable",
      "type": "function"
    },
    {
      "inputs": [
        {
          "internalType": "address",
          "name": "from",
          "type": "address"
        },
        {
          "internalType": "address",
          "name": "to",
          "type": "address"
        },
        {
          "internalType": "uint256",
          "name": "tokenId",
          "type": "uint256"
        },
        {
          "internalType": "bytes",
          "name": "data",
          "type": "bytes"
        }
      ],
      "name": "safeTransferFrom",
      "outputs": [],
      "stateMutability": "nonpayable",
      "type": "function"
    },
    {
      "inputs": [
        {
          "internalType": "address",
          "name": "operator",
          "type": "address"
        },
        {
          "internalType": "bool",
          "name": "approved",
          "type": "bool"
        }
      ],
      "name": "setApprovalForAll",
      "outputs": [],
      "stateMutability": "nonpayable",
      "type": "function"
    },
    {
      "inputs": [
        {
          "internalType": "bytes4",
          "name": "interfaceId",
          "type": "bytes4"
        }
      ],
      "name": "supportsInterface",
      "outputs": [
        {
          "internalType": "bool",
          "name": "",
          "type": "bool"
        }
      ],
      "stateMutability": "view",
      "type": "function"
    },
    {
      "inputs": [],
      "name": "symbol",
      "outputs": [
        {
          "internalType": "string",
          "name": "",
          "type": "string"
        }
      ],
      "stateMutability": "view",
      "type": "function"
    },
    {
      "inputs": [
        {
          "internalType": "uint256",
          "name": "tokenId",
          "type": "uint256"
        }
      ],
      "name": "tokenURI",
      "outputs": [
        {
          "internalType": "string",
          "name": "",
          "type": "string"
        }
      ],
      "stateMutability": "view",
      "type": "function"
    },
    {
      "inputs": [
        {
          "internalType": "address",
          "name": "from",
          "type": "address"
        },
        {
          "internalType": "address",
          "name": "to",
          "type": "address"
        },
        {
          "internalType": "uint256",
          "name": "tokenId",
          "type": "uint256"
        }
      ],
      "name": "transferFrom",
      "outputs": [],
      "stateMutability": "nonpayable",
      "type": "function"
    },
    {
      "inputs": [
        {
          "internalType": "uint256",
          "name": "collectionId",
          "type": "uint256"
        },
        {
          "internalType": "uint256[]",
          "name": "newNFTs",
          "type": "uint256[]"
        }
      ],
      "name": "updateCollectionNFTs",
      "outputs": [],
      "stateMutability": "nonpayable",
      "type": "function"
    }
  ],
  "bytecode": "0x60806040523480156200001157600080fd5b506040518060400160405280601081526020017f4d657461766572736520546f6b656e73000000000000000000000000000000008152506040518060400160405280600481526020017f4d4554540000000000000000000000000000000000000000000000000000000081525081600090816200008f919062000365565b508060019081620000a1919062000365565b50505033600960006101000a81548173ffffffffffffffffffffffffffffffffffffffff021916908373ffffffffffffffffffffffffffffffffffffffff1602179055506200044c565b600081519050919050565b7f4e487b7100000000000000000000000000000000000000000000000000000000600052604160045260246000fd5b7f4e487b7100000000000000000000000000000000000000000000000000000000600052602260045260246000fd5b600060028204905060018216806200016d57607f821691505b60208210810362000183576200018262000125565b5b50919050565b60008190508160005260206000209050919050565b60006020601f8301049050919050565b600082821b905092915050565b600060088302620001ed7fffffffffffffffffffffffffffffffffffffffffffffffffffffffffffffffff82620001ae565b620001f98683620001ae565b95508019841693508086168417925050509392505050565b6000819050919050565b6000819050919050565b600062000246620002406200023a8462000211565b6200021b565b62000211565b9050919050565b6000819050919050565b620002628362000225565b6200027a62000271826200024d565b848454620001bb565b825550505050565b600090565b6200029162000282565b6200029e81848462000257565b505050565b5b81811015620002c657620002ba60008262000287565b600181019050620002a4565b5050565b601f8211156200031557620002df8162000189565b620002ea846200019e565b81016020851015620002fa578190505b6200031262000309856200019e565b830182620002a3565b50505b505050565b600082821c905092915050565b60006200033a600019846008026200031a565b1980831691505092915050565b600062000355838362000327565b9150826002028217905092915050565b6200037082620000eb565b67ffffffffffffffff8111156200038c576200038b620000f6565b5b62000398825462000154565b620003a5828285620002ca565b600060209050601f831160018114620003dd5760008415620003c8578287015190505b620003d4858262000347565b86555062000444565b601f198416620003ed8662000189565b60005b828110156200041757848901518255600182019150602085019450602081019050620003f0565b8683101562000437578489015162000433601f89168262000327565b8355505b6001600288020188555050505b505050505050565b613e95806200045c6000396000f3fe6080604052600436106101095760003560e01c80636352211e11610095578063a22cb46511610064578063a22cb46514610392578063a280d6c8146103bb578063b88d4fde146103e6578063c87b56dd1461040f578063e985e9c51461044c57610109565b80636352211e146102bd57806370a08231146102fa57806372b3b6201461033757806395d89b411461036757610109565b8063095ea7b3116100dc578063095ea7b3146101dc57806323b872dd146102055780633eb2a2051461022e57806342842e0e1461026b578063544fbd451461029457610109565b806301ffc9a71461010e578063059dfe131461014b57806306fdde0314610174578063081812fc1461019f575b600080fd5b34801561011a57600080fd5b506101356004803603810190610130919061265f565b610489565b60405161014291906126a7565b60405180910390f35b34801561015757600080fd5b50610172600480360381019061016d9190612808565b6104ea565b005b34801561018057600080fd5b506101896105ee565b60405161019691906128d0565b60405180910390f35b3480156101ab57600080fd5b506101c660048036038101906101c19190612928565b610680565b6040516101d39190612996565b60405180910390f35b3480156101e857600080fd5b5061020360048036038101906101fe91906129dd565b6106c6565b005b34801561021157600080fd5b5061022c60048036038101906102279190612a1d565b6107dd565b005b34801561023a57600080fd5b5061025560048036038101906102509190612928565b61083d565b6040516102629190612b7f565b60405180910390f35b34801561027757600080fd5b50610292600480360381019061028d9190612a1d565b610ad4565b005b3480156102a057600080fd5b506102bb60048036038101906102b69190612c69565b610af4565b005b3480156102c957600080fd5b506102e460048036038101906102df9190612928565b610e1a565b6040516102f19190612996565b60405180910390f35b34801561030657600080fd5b50610321600480360381019061031c9190612cc5565b610ea0565b60405161032e9190612d01565b60405180910390f35b610351600480360381019061034c9190612d1c565b610f57565b60405161035e9190612d01565b60405180910390f35b34801561037357600080fd5b5061037c61106b565b60405161038991906128d0565b60405180910390f35b34801561039e57600080fd5b506103b960048036038101906103b49190612da4565b6110fd565b005b3480156103c757600080fd5b506103d0611113565b6040516103dd9190612f40565b60405180910390f35b3480156103f257600080fd5b5061040d60048036038101906104089190613003565b611416565b005b34801561041b57600080fd5b5061043660048036038101906104319190612928565b611478565b60405161044391906128d0565b60405180910390f35b34801561045857600080fd5b50610473600480360381019061046e9190613086565b61158a565b60405161048091906126a7565b60405180910390f35b6000634906490660e01b7bffffffffffffffffffffffffffffffffffffffffffffffffffffffff1916827bffffffffffffffffffffffffffffffffffffffffffffffffffffffff191614806104e357506104e28261161e565b5b9050919050565b6104f46008611700565b60006105006008611716565b905060405180606001604052808281526020013373ffffffffffffffffffffffffffffffffffffffff16815260200183815250600a60008381526020019081526020016000206000820151816000015560208201518160010160006101000a81548173ffffffffffffffffffffffffffffffffffffffff021916908373ffffffffffffffffffffffffffffffffffffffff16021790555060408201518160020190816105ac91906132d2565b50905050807fb0b7b214963f2e16da9cf6ed5851757dfed306875edf1d59e030881102ef24ef33846040516105e29291906133a4565b60405180910390a25050565b6060600080546105fd906130f5565b80601f0160208091040260200160405190810160405280929190818152602001828054610629906130f5565b80156106765780601f1061064b57610100808354040283529160200191610676565b820191906000526020600020905b81548152906001019060200180831161065957829003601f168201915b5050505050905090565b600061068b82611724565b6004600083815260200190815260200160002060009054906101000a900473ffffffffffffffffffffffffffffffffffffffff169050919050565b60006106d182610e1a565b90508073ffffffffffffffffffffffffffffffffffffffff168373ffffffffffffffffffffffffffffffffffffffff1603610741576040517f08c379a000000000000000000000000000000000000000000000000000000000815260040161073890613446565b60405180910390fd5b8073ffffffffffffffffffffffffffffffffffffffff1661076061176f565b73ffffffffffffffffffffffffffffffffffffffff16148061078f575061078e8161078961176f565b61158a565b5b6107ce576040517f08c379a00000000000000000000000000000000000000000000000000000000081526004016107c5906134d8565b60405180910390fd5b6107d88383611777565b505050565b6107ee6107e861176f565b82611830565b61082d576040517f08c379a00000000000000000000000000000000000000000000000000000000081526004016108249061356a565b60405180910390fd5b6108388383836118c5565b505050565b6060600061084b6007611716565b905060008060005b8381116109075785600b6000838152602001908152602001600020600201541480156108e057503373ffffffffffffffffffffffffffffffffffffffff16600b600083815260200190815260200160002060010160009054906101000a900473ffffffffffffffffffffffffffffffffffffffff1673ffffffffffffffffffffffffffffffffffffffff16145b156108f45782806108f0906135b9565b9350505b80806108ff906135b9565b915050610853565b5060008267ffffffffffffffff811115610924576109236126dd565b5b60405190808252806020026020018201604052801561095d57816020015b61094a612585565b8152602001906001900390816109425790505b5090506000600190505b848111610ac75786600b6000838152602001908152602001600020600201541480156109f457503373ffffffffffffffffffffffffffffffffffffffff16600b600083815260200190815260200160002060010160009054906101000a900473ffffffffffffffffffffffffffffffffffffffff1673ffffffffffffffffffffffffffffffffffffffff16145b15610ab4576000600b6000838152602001908152602001600020905080604051806060016040529081600082015481526020016001820160009054906101000a900473ffffffffffffffffffffffffffffffffffffffff1673ffffffffffffffffffffffffffffffffffffffff1673ffffffffffffffffffffffffffffffffffffffff168152602001600282015481525050838581518110610a9957610a98613601565b5b60200260200101819052508380610aaf906135b9565b945050505b8080610abf906135b9565b915050610967565b5080945050505050919050565b610aef83838360405180602001604052806000815250611416565b505050565b3373ffffffffffffffffffffffffffffffffffffffff16600a600084815260200190815260200160002060010160009054906101000a900473ffffffffffffffffffffffffffffffffffffffff1673ffffffffffffffffffffffffffffffffffffffff1614610b98576040517f08c379a0000000000000000000000000000000000000000000000000000000008152600401610b8f9061367c565b60405180910390fd5b6000600c6000848152602001908152602001600020905060005b8251811015610e1457610bde838281518110610bd157610bd0613601565b5b6020026020010151611bbe565b610c1d576040517f08c379a0000000000000000000000000000000000000000000000000000000008152600401610c14906136e8565b60405180910390fd5b3373ffffffffffffffffffffffffffffffffffffffff16600b6000858481518110610c4b57610c4a613601565b5b6020026020010151815260200190815260200160002060010160009054906101000a900473ffffffffffffffffffffffffffffffffffffffff1673ffffffffffffffffffffffffffffffffffffffff1614610cdb576040517f08c379a0000000000000000000000000000000000000000000000000000000008152600401610cd290613754565b60405180910390fd5b83600b6000858481518110610cf357610cf2613601565b5b602002602001015181526020019081526020016000206002015414610d4d576040517f08c379a0000000000000000000000000000000000000000000000000000000008152600401610d44906137e6565b60405180910390fd5b6000805b8380549050811015610db757848381518110610d7057610d6f613601565b5b6020026020010151848281548110610d8b57610d8a613601565b5b906000526020600020015403610da45760019150610db7565b8080610daf906135b9565b915050610d51565b5080610e005782848381518110610dd157610dd0613601565b5b602002602001015190806001815401808255809150506001900390600052602060002001600090919091909150555b508080610e0c906135b9565b915050610bb2565b50505050565b600080610e2683611bff565b9050600073ffffffffffffffffffffffffffffffffffffffff168173ffffffffffffffffffffffffffffffffffffffff1603610e97576040517f08c379a0000000000000000000000000000000000000000000000000000000008152600401610e8e90613852565b60405180910390fd5b80915050919050565b60008073ffffffffffffffffffffffffffffffffffffffff168273ffffffffffffffffffffffffffffffffffffffff1603610f10576040517f08c379a0000000000000000000000000000000000000000000000000000000008152600401610f07906138e4565b60405180910390fd5b600360008373ffffffffffffffffffffffffffffffffffffffff1673ffffffffffffffffffffffffffffffffffffffff168152602001908152602001600020549050919050565b6000610f636007611700565b6000610f6f6007611716565b9050610f7b3382611c3c565b610f858185611e59565b60405180606001604052808281526020013373ffffffffffffffffffffffffffffffffffffffff16815260200184815250600b60008381526020019081526020016000206000820151816000015560208201518160010160006101000a81548173ffffffffffffffffffffffffffffffffffffffff021916908373ffffffffffffffffffffffffffffffffffffffff16021790555060408201518160020155905050807f94619d2447a6efc7f1095856ea5af24ffa395982057fcd550cb7909aea537bbd3385604051611059929190613904565b60405180910390a28091505092915050565b60606001805461107a906130f5565b80601f01602080910402602001604051908101604052809291908181526020018280546110a6906130f5565b80156110f35780601f106110c8576101008083540402835291602001916110f3565b820191906000526020600020905b8154815290600101906020018083116110d657829003601f168201915b5050505050905090565b61110f61110861176f565b8383611efd565b5050565b606060006111216008611716565b905060008060005b838110156111c9573373ffffffffffffffffffffffffffffffffffffffff16600a6000600184611159919061392d565b815260200190815260200160002060010160009054906101000a900473ffffffffffffffffffffffffffffffffffffffff1673ffffffffffffffffffffffffffffffffffffffff16036111b6576001836111b3919061392d565b92505b80806111c1906135b9565b915050611129565b5060008267ffffffffffffffff8111156111e6576111e56126dd565b5b60405190808252806020026020018201604052801561121f57816020015b61120c6125bc565b8152602001906001900390816112045790505b50905060005b8481101561140b573373ffffffffffffffffffffffffffffffffffffffff16600a6000600184611255919061392d565b815260200190815260200160002060010160009054906101000a900473ffffffffffffffffffffffffffffffffffffffff1673ffffffffffffffffffffffffffffffffffffffff16036113f85760006001826112b1919061392d565b90506000600a6000838152602001908152602001600020905080604051806060016040529081600082015481526020016001820160009054906101000a900473ffffffffffffffffffffffffffffffffffffffff1673ffffffffffffffffffffffffffffffffffffffff1673ffffffffffffffffffffffffffffffffffffffff168152602001600282018054611346906130f5565b80601f0160208091040260200160405190810160405280929190818152602001828054611372906130f5565b80156113bf5780601f10611394576101008083540402835291602001916113bf565b820191906000526020600020905b8154815290600101906020018083116113a257829003601f168201915b5050505050815250508486815181106113db576113da613601565b5b60200260200101819052506001856113f3919061392d565b945050505b8080611403906135b9565b915050611225565b508094505050505090565b61142761142161176f565b83611830565b611466576040517f08c379a000000000000000000000000000000000000000000000000000000000815260040161145d9061356a565b60405180910390fd5b61147284848484612069565b50505050565b606061148382611724565b60006006600084815260200190815260200160002080546114a3906130f5565b80601f01602080910402602001604051908101604052809291908181526020018280546114cf906130f5565b801561151c5780601f106114f15761010080835404028352916020019161151c565b820191906000526020600020905b8154815290600101906020018083116114ff57829003601f168201915b50505050509050600061152d6120c5565b90506000815103611542578192505050611585565b60008251111561157757808260405160200161155f92919061399d565b60405160208183030381529060405292505050611585565b611580846120dc565b925050505b919050565b6000600560008473ffffffffffffffffffffffffffffffffffffffff1673ffffffffffffffffffffffffffffffffffffffff16815260200190815260200160002060008373ffffffffffffffffffffffffffffffffffffffff1673ffffffffffffffffffffffffffffffffffffffff16815260200190815260200160002060009054906101000a900460ff16905092915050565b60007f80ac58cd000000000000000000000000000000000000000000000000000000007bffffffffffffffffffffffffffffffffffffffffffffffffffffffff1916827bffffffffffffffffffffffffffffffffffffffffffffffffffffffff191614806116e957507f5b5e139f000000000000000000000000000000000000000000000000000000007bffffffffffffffffffffffffffffffffffffffffffffffffffffffff1916827bffffffffffffffffffffffffffffffffffffffffffffffffffffffff1916145b806116f957506116f882612144565b5b9050919050565b6001816000016000828254019250508190555050565b600081600001549050919050565b61172d81611bbe565b61176c576040517f08c379a000000000000000000000000000000000000000000000000000000000815260040161176390613852565b60405180910390fd5b50565b600033905090565b816004600083815260200190815260200160002060006101000a81548173ffffffffffffffffffffffffffffffffffffffff021916908373ffffffffffffffffffffffffffffffffffffffff160217905550808273ffffffffffffffffffffffffffffffffffffffff166117ea83610e1a565b73ffffffffffffffffffffffffffffffffffffffff167f8c5be1e5ebec7d5bd14f71427d1e84f3dd0314c0f7b2291e5b200ac8c7c3b92560405160405180910390a45050565b60008061183c83610e1a565b90508073ffffffffffffffffffffffffffffffffffffffff168473ffffffffffffffffffffffffffffffffffffffff16148061187e575061187d818561158a565b5b806118bc57508373ffffffffffffffffffffffffffffffffffffffff166118a484610680565b73ffffffffffffffffffffffffffffffffffffffff16145b91505092915050565b8273ffffffffffffffffffffffffffffffffffffffff166118e582610e1a565b73ffffffffffffffffffffffffffffffffffffffff161461193b576040517f08c379a000000000000000000000000000000000000000000000000000000000815260040161193290613a33565b60405180910390fd5b600073ffffffffffffffffffffffffffffffffffffffff168273ffffffffffffffffffffffffffffffffffffffff16036119aa576040517f08c379a00000000000000000000000000000000000000000000000000000000081526004016119a190613ac5565b60405180910390fd5b6119b783838360016121ae565b8273ffffffffffffffffffffffffffffffffffffffff166119d782610e1a565b73ffffffffffffffffffffffffffffffffffffffff1614611a2d576040517f08c379a0000000000000000000000000000000000000000000000000000000008152600401611a2490613a33565b60405180910390fd5b6004600082815260200190815260200160002060006101000a81549073ffffffffffffffffffffffffffffffffffffffff02191690556001600360008573ffffffffffffffffffffffffffffffffffffffff1673ffffffffffffffffffffffffffffffffffffffff168152602001908152602001600020600082825403925050819055506001600360008473ffffffffffffffffffffffffffffffffffffffff1673ffffffffffffffffffffffffffffffffffffffff16815260200190815260200160002060008282540192505081905550816002600083815260200190815260200160002060006101000a81548173ffffffffffffffffffffffffffffffffffffffff021916908373ffffffffffffffffffffffffffffffffffffffff160217905550808273ffffffffffffffffffffffffffffffffffffffff168473ffffffffffffffffffffffffffffffffffffffff167fddf252ad1be2c89b69c2b068fc378daa952ba7f163c4a11628f55a4df523b3ef60405160405180910390a4611bb983838360016121b4565b505050565b60008073ffffffffffffffffffffffffffffffffffffffff16611be083611bff565b73ffffffffffffffffffffffffffffffffffffffff1614159050919050565b60006002600083815260200190815260200160002060009054906101000a900473ffffffffffffffffffffffffffffffffffffffff169050919050565b600073ffffffffffffffffffffffffffffffffffffffff168273ffffffffffffffffffffffffffffffffffffffff1603611cab576040517f08c379a0000000000000000000000000000000000000000000000000000000008152600401611ca290613b31565b60405180910390fd5b611cb481611bbe565b15611cf4576040517f08c379a0000000000000000000000000000000000000000000000000000000008152600401611ceb90613b9d565b60405180910390fd5b611d026000838360016121ae565b611d0b81611bbe565b15611d4b576040517f08c379a0000000000000000000000000000000000000000000000000000000008152600401611d4290613b9d565b60405180910390fd5b6001600360008473ffffffffffffffffffffffffffffffffffffffff1673ffffffffffffffffffffffffffffffffffffffff16815260200190815260200160002060008282540192505081905550816002600083815260200190815260200160002060006101000a81548173ffffffffffffffffffffffffffffffffffffffff021916908373ffffffffffffffffffffffffffffffffffffffff160217905550808273ffffffffffffffffffffffffffffffffffffffff16600073ffffffffffffffffffffffffffffffffffffffff167fddf252ad1be2c89b69c2b068fc378daa952ba7f163c4a11628f55a4df523b3ef60405160405180910390a4611e556000838360016121b4565b5050565b611e6282611bbe565b611ea1576040517f08c379a0000000000000000000000000000000000000000000000000000000008152600401611e9890613c2f565b60405180910390fd5b80600660008481526020019081526020016000209081611ec191906132d2565b507ff8e1a15aba9398e019f0b49df1a4fde98ee17ae345cb5f6b5e2c27f5033e8ce782604051611ef19190612d01565b60405180910390a15050565b8173ffffffffffffffffffffffffffffffffffffffff168373ffffffffffffffffffffffffffffffffffffffff1603611f6b576040517f08c379a0000000000000000000000000000000000000000000000000000000008152600401611f6290613c9b565b60405180910390fd5b80600560008573ffffffffffffffffffffffffffffffffffffffff1673ffffffffffffffffffffffffffffffffffffffff16815260200190815260200160002060008473ffffffffffffffffffffffffffffffffffffffff1673ffffffffffffffffffffffffffffffffffffffff16815260200190815260200160002060006101000a81548160ff0219169083151502179055508173ffffffffffffffffffffffffffffffffffffffff168373ffffffffffffffffffffffffffffffffffffffff167f17307eab39ab6107e8899845ad3d59bd9653f200f220920489ca2b5937696c318360405161205c91906126a7565b60405180910390a3505050565b6120748484846118c5565b612080848484846121ba565b6120bf576040517f08c379a00000000000000000000000000000000000000000000000000000000081526004016120b690613d2d565b60405180910390fd5b50505050565b606060405180602001604052806000815250905090565b60606120e782611724565b60006120f16120c5565b90506000815111612111576040518060200160405280600081525061213c565b8061211b84612341565b60405160200161212c92919061399d565b6040516020818303038152906040525b915050919050565b60007f01ffc9a7000000000000000000000000000000000000000000000000000000007bffffffffffffffffffffffffffffffffffffffffffffffffffffffff1916827bffffffffffffffffffffffffffffffffffffffffffffffffffffffff1916149050919050565b50505050565b50505050565b60006121db8473ffffffffffffffffffffffffffffffffffffffff1661240f565b15612334578373ffffffffffffffffffffffffffffffffffffffff1663150b7a0261220461176f565b8786866040518563ffffffff1660e01b81526004016122269493929190613da2565b6020604051808303816000875af192505050801561226257506040513d601f19601f8201168201806040525081019061225f9190613e03565b60015b6122e4573d8060008114612292576040519150601f19603f3d011682016040523d82523d6000602084013e612297565b606091505b5060008151036122dc576040517f08c379a00000000000000000000000000000000000000000000000000000000081526004016122d390613d2d565b60405180910390fd5b805181602001fd5b63150b7a0260e01b7bffffffffffffffffffffffffffffffffffffffffffffffffffffffff1916817bffffffffffffffffffffffffffffffffffffffffffffffffffffffff191614915050612339565b600190505b949350505050565b60606000600161235084612432565b01905060008167ffffffffffffffff81111561236f5761236e6126dd565b5b6040519080825280601f01601f1916602001820160405280156123a15781602001600182028036833780820191505090505b509050600082602001820190505b600115612404578080600190039150507f3031323334353637383961626364656600000000000000000000000000000000600a86061a8153600a85816123f8576123f7613e30565b5b049450600085036123af575b819350505050919050565b6000808273ffffffffffffffffffffffffffffffffffffffff163b119050919050565b600080600090507a184f03e93ff9f4daa797ed6e38ed64bf6a1f0100000000000000008310612490577a184f03e93ff9f4daa797ed6e38ed64bf6a1f010000000000000000838161248657612485613e30565b5b0492506040810190505b6d04ee2d6d415b85acef810000000083106124cd576d04ee2d6d415b85acef810000000083816124c3576124c2613e30565b5b0492506020810190505b662386f26fc1000083106124fc57662386f26fc1000083816124f2576124f1613e30565b5b0492506010810190505b6305f5e1008310612525576305f5e100838161251b5761251a613e30565b5b0492506008810190505b612710831061254a5761271083816125405761253f613e30565b5b0492506004810190505b6064831061256d576064838161256357612562613e30565b5b0492506002810190505b600a831061257c576001810190505b80915050919050565b604051806060016040528060008152602001600073ffffffffffffffffffffffffffffffffffffffff168152602001600081525090565b604051806060016040528060008152602001600073ffffffffffffffffffffffffffffffffffffffff168152602001606081525090565b6000604051905090565b600080fd5b600080fd5b60007fffffffff0000000000000000000000000000000000000000000000000000000082169050919050565b61263c81612607565b811461264757600080fd5b50565b60008135905061265981612633565b92915050565b600060208284031215612675576126746125fd565b5b60006126838482850161264a565b91505092915050565b60008115159050919050565b6126a18161268c565b82525050565b60006020820190506126bc6000830184612698565b92915050565b600080fd5b600080fd5b6000601f19601f8301169050919050565b7f4e487b7100000000000000000000000000000000000000000000000000000000600052604160045260246000fd5b612715826126cc565b810181811067ffffffffffffffff82111715612734576127336126dd565b5b80604052505050565b60006127476125f3565b9050612753828261270c565b919050565b600067ffffffffffffffff821115612773576127726126dd565b5b61277c826126cc565b9050602081019050919050565b82818337600083830152505050565b60006127ab6127a684612758565b61273d565b9050828152602081018484840111156127c7576127c66126c7565b5b6127d2848285612789565b509392505050565b600082601f8301126127ef576127ee6126c2565b5b81356127ff848260208601612798565b91505092915050565b60006020828403121561281e5761281d6125fd565b5b600082013567ffffffffffffffff81111561283c5761283b612602565b5b612848848285016127da565b91505092915050565b600081519050919050565b600082825260208201905092915050565b60005b8381101561288b578082015181840152602081019050612870565b60008484015250505050565b60006128a282612851565b6128ac818561285c565b93506128bc81856020860161286d565b6128c5816126cc565b840191505092915050565b600060208201905081810360008301526128ea8184612897565b905092915050565b6000819050919050565b612905816128f2565b811461291057600080fd5b50565b600081359050612922816128fc565b92915050565b60006020828403121561293e5761293d6125fd565b5b600061294c84828501612913565b91505092915050565b600073ffffffffffffffffffffffffffffffffffffffff82169050919050565b600061298082612955565b9050919050565b61299081612975565b82525050565b60006020820190506129ab6000830184612987565b92915050565b6129ba81612975565b81146129c557600080fd5b50565b6000813590506129d7816129b1565b92915050565b600080604083850312156129f4576129f36125fd565b5b6000612a02858286016129c8565b9250506020612a1385828601612913565b9150509250929050565b600080600060608486031215612a3657612a356125fd565b5b6000612a44868287016129c8565b9350506020612a55868287016129c8565b9250506040612a6686828701612913565b9150509250925092565b600081519050919050565b600082825260208201905092915050565b6000819050602082019050919050565b612aa5816128f2565b82525050565b612ab481612975565b82525050565b606082016000820151612ad06000850182612a9c565b506020820151612ae36020850182612aab565b506040820151612af66040850182612a9c565b50505050565b6000612b088383612aba565b60608301905092915050565b6000602082019050919050565b6000612b2c82612a70565b612b368185612a7b565b9350612b4183612a8c565b8060005b83811015612b72578151612b598882612afc565b9750612b6483612b14565b925050600181019050612b45565b5085935050505092915050565b60006020820190508181036000830152612b998184612b21565b905092915050565b600067ffffffffffffffff821115612bbc57612bbb6126dd565b5b602082029050602081019050919050565b600080fd5b6000612be5612be084612ba1565b61273d565b90508083825260208201905060208402830185811115612c0857612c07612bcd565b5b835b81811015612c315780612c1d8882612913565b845260208401935050602081019050612c0a565b5050509392505050565b600082601f830112612c5057612c4f6126c2565b5b8135612c60848260208601612bd2565b91505092915050565b60008060408385031215612c8057612c7f6125fd565b5b6000612c8e85828601612913565b925050602083013567ffffffffffffffff811115612caf57612cae612602565b5b612cbb85828601612c3b565b9150509250929050565b600060208284031215612cdb57612cda6125fd565b5b6000612ce9848285016129c8565b91505092915050565b612cfb816128f2565b82525050565b6000602082019050612d166000830184612cf2565b92915050565b60008060408385031215612d3357612d326125fd565b5b600083013567ffffffffffffffff811115612d5157612d50612602565b5b612d5d858286016127da565b9250506020612d6e85828601612913565b9150509250929050565b612d818161268c565b8114612d8c57600080fd5b50565b600081359050612d9e81612d78565b92915050565b60008060408385031215612dbb57612dba6125fd565b5b6000612dc9858286016129c8565b9250506020612dda85828601612d8f565b9150509250929050565b600081519050919050565b600082825260208201905092915050565b6000819050602082019050919050565b600082825260208201905092915050565b6000612e2c82612851565b612e368185612e10565b9350612e4681856020860161286d565b612e4f816126cc565b840191505092915050565b6000606083016000830151612e726000860182612a9c565b506020830151612e856020860182612aab565b5060408301518482036040860152612e9d8282612e21565b9150508091505092915050565b6000612eb68383612e5a565b905092915050565b6000602082019050919050565b6000612ed682612de4565b612ee08185612def565b935083602082028501612ef285612e00565b8060005b85811015612f2e5784840389528151612f0f8582612eaa565b9450612f1a83612ebe565b925060208a01995050600181019050612ef6565b50829750879550505050505092915050565b60006020820190508181036000830152612f5a8184612ecb565b905092915050565b600067ffffffffffffffff821115612f7d57612f7c6126dd565b5b612f86826126cc565b9050602081019050919050565b6000612fa6612fa184612f62565b61273d565b905082815260208101848484011115612fc257612fc16126c7565b5b612fcd848285612789565b509392505050565b600082601f830112612fea57612fe96126c2565b5b8135612ffa848260208601612f93565b91505092915050565b6000806000806080858703121561301d5761301c6125fd565b5b600061302b878288016129c8565b945050602061303c878288016129c8565b935050604061304d87828801612913565b925050606085013567ffffffffffffffff81111561306e5761306d612602565b5b61307a87828801612fd5565b91505092959194509250565b6000806040838503121561309d5761309c6125fd565b5b60006130ab858286016129c8565b92505060206130bc858286016129c8565b9150509250929050565b7f4e487b7100000000000000000000000000000000000000000000000000000000600052602260045260246000fd5b6000600282049050600182168061310d57607f821691505b6020821081036131205761311f6130c6565b5b50919050565b60008190508160005260206000209050919050565b60006020601f8301049050919050565b600082821b905092915050565b6000600883026131887fffffffffffffffffffffffffffffffffffffffffffffffffffffffffffffffff8261314b565b613192868361314b565b95508019841693508086168417925050509392505050565b6000819050919050565b60006131cf6131ca6131c5846128f2565b6131aa565b6128f2565b9050919050565b6000819050919050565b6131e9836131b4565b6131fd6131f5826131d6565b848454613158565b825550505050565b600090565b613212613205565b61321d8184846131e0565b505050565b5b818110156132415761323660008261320a565b600181019050613223565b5050565b601f8211156132865761325781613126565b6132608461313b565b8101602085101561326f578190505b61328361327b8561313b565b830182613222565b50505b505050565b600082821c905092915050565b60006132a96000198460080261328b565b1980831691505092915050565b60006132c28383613298565b9150826002028217905092915050565b6132db82612851565b67ffffffffffffffff8111156132f4576132f36126dd565b5b6132fe82546130f5565b613309828285613245565b600060209050601f83116001811461333c576000841561332a578287015190505b61333485826132b6565b86555061339c565b601f19841661334a86613126565b60005b828110156133725784890151825560018201915060208501945060208101905061334d565b8683101561338f578489015161338b601f891682613298565b8355505b6001600288020188555050505b505050505050565b60006040820190506133b96000830185612987565b81810360208301526133cb8184612897565b90509392505050565b7f4552433732313a20617070726f76616c20746f2063757272656e74206f776e6560008201527f7200000000000000000000000000000000000000000000000000000000000000602082015250565b600061343060218361285c565b915061343b826133d4565b604082019050919050565b6000602082019050818103600083015261345f81613423565b9050919050565b7f4552433732313a20617070726f76652063616c6c6572206973206e6f7420746f60008201527f6b656e206f776e6572206f7220617070726f76656420666f7220616c6c000000602082015250565b60006134c2603d8361285c565b91506134cd82613466565b604082019050919050565b600060208201905081810360008301526134f1816134b5565b9050919050565b7f4552433732313a2063616c6c6572206973206e6f7420746f6b656e206f776e6560008201527f72206f7220617070726f76656400000000000000000000000000000000000000602082015250565b6000613554602d8361285c565b915061355f826134f8565b604082019050919050565b6000602082019050818103600083015261358381613547565b9050919050565b7f4e487b7100000000000000000000000000000000000000000000000000000000600052601160045260246000fd5b60006135c4826128f2565b91507fffffffffffffffffffffffffffffffffffffffffffffffffffffffffffffffff82036135f6576135f561358a565b5b600182019050919050565b7f4e487b7100000000000000000000000000000000000000000000000000000000600052603260045260246000fd5b7f4e6f7420746865206f776e6572206f662074686520636f6c6c656374696f6e00600082015250565b6000613666601f8361285c565b915061367182613630565b602082019050919050565b6000602082019050818103600083015261369581613659565b9050919050565b7f4e465420646f6573206e6f742065786973740000000000000000000000000000600082015250565b60006136d260128361285c565b91506136dd8261369c565b602082019050919050565b60006020820190508181036000830152613701816136c5565b9050919050565b7f4e6f7420746865206f776e6572206f6620746865204e46540000000000000000600082015250565b600061373e60188361285c565b915061374982613708565b602082019050919050565b6000602082019050818103600083015261376d81613731565b9050919050565b7f4e465420646f6573206e6f742062656c6f6e6720746f2074686520636f6c6c6560008201527f6374696f6e000000000000000000000000000000000000000000000000000000602082015250565b60006137d060258361285c565b91506137db82613774565b604082019050919050565b600060208201905081810360008301526137ff816137c3565b9050919050565b7f4552433732313a20696e76616c696420746f6b656e2049440000000000000000600082015250565b600061383c60188361285c565b915061384782613806565b602082019050919050565b6000602082019050818103600083015261386b8161382f565b9050919050565b7f4552433732313a2061646472657373207a65726f206973206e6f74206120766160008201527f6c6964206f776e65720000000000000000000000000000000000000000000000602082015250565b60006138ce60298361285c565b91506138d982613872565b604082019050919050565b600060208201905081810360008301526138fd816138c1565b9050919050565b60006040820190506139196000830185612987565b6139266020830184612cf2565b9392505050565b6000613938826128f2565b9150613943836128f2565b925082820190508082111561395b5761395a61358a565b5b92915050565b600081905092915050565b600061397782612851565b6139818185613961565b935061399181856020860161286d565b80840191505092915050565b60006139a9828561396c565b91506139b5828461396c565b91508190509392505050565b7f4552433732313a207472616e736665722066726f6d20696e636f72726563742060008201527f6f776e6572000000000000000000000000000000000000000000000000000000602082015250565b6000613a1d60258361285c565b9150613a28826139c1565b604082019050919050565b60006020820190508181036000830152613a4c81613a10565b9050919050565b7f4552433732313a207472616e7366657220746f20746865207a65726f2061646460008201527f7265737300000000000000000000000000000000000000000000000000000000602082015250565b6000613aaf60248361285c565b9150613aba82613a53565b604082019050919050565b60006020820190508181036000830152613ade81613aa2565b9050919050565b7f4552433732313a206d696e7420746f20746865207a65726f2061646472657373600082015250565b6000613b1b60208361285c565b9150613b2682613ae5565b602082019050919050565b60006020820190508181036000830152613b4a81613b0e565b9050919050565b7f4552433732313a20746f6b656e20616c7265616479206d696e74656400000000600082015250565b6000613b87601c8361285c565b9150613b9282613b51565b602082019050919050565b60006020820190508181036000830152613bb681613b7a565b9050919050565b7f45524337323155524953746f726167653a2055524920736574206f66206e6f6e60008201527f6578697374656e7420746f6b656e000000000000000000000000000000000000602082015250565b6000613c19602e8361285c565b9150613c2482613bbd565b604082019050919050565b60006020820190508181036000830152613c4881613c0c565b9050919050565b7f4552433732313a20617070726f766520746f2063616c6c657200000000000000600082015250565b6000613c8560198361285c565b9150613c9082613c4f565b602082019050919050565b60006020820190508181036000830152613cb481613c78565b9050919050565b7f4552433732313a207472616e7366657220746f206e6f6e20455243373231526560008201527f63656976657220696d706c656d656e7465720000000000000000000000000000602082015250565b6000613d1760328361285c565b9150613d2282613cbb565b604082019050919050565b60006020820190508181036000830152613d4681613d0a565b9050919050565b600081519050919050565b600082825260208201905092915050565b6000613d7482613d4d565b613d7e8185613d58565b9350613d8e81856020860161286d565b613d97816126cc565b840191505092915050565b6000608082019050613db76000830187612987565b613dc46020830186612987565b613dd16040830185612cf2565b8181036060830152613de38184613d69565b905095945050505050565b600081519050613dfd81612633565b92915050565b600060208284031215613e1957613e186125fd565b5b6000613e2784828501613dee565b91505092915050565b7f4e487b7100000000000000000000000000000000000000000000000000000000600052601260045260246000fdfea2646970667358221220a62ccf82dfe5ff03813fdbb3c287b3d8e9c8c67c7b637eede2fa8733b6cb3ac364736f6c63430008130033",
  "linkReferences": {},
  "deployedLinkReferences": {}
}