{
  "_format": "hh-sol-artifact-1",
  "contractName": "EtherNFTPlace",
  "sourceName": "contracts/EtherNFTPlace.sol",
  "abi": [
    {
      "inputs": [],
      "stateMutability": "nonpayable",
      "type": "constructor"
    },
    {
      "anonymous": false,
      "inputs": [
        {
          "indexed": true,
          "internalType": "address",
          "name": "owner",
          "type": "address"
        },
        {
          "indexed": true,
          "internalType": "address",
          "name": "approved",
          "type": "address"
        },
        {
          "indexed": true,
          "internalType": "uint256",
          "name": "tokenId",
          "type": "uint256"
        }
      ],
      "name": "Approval",
      "type": "event"
    },
    {
      "anonymous": false,
      "inputs": [
        {
          "indexed": true,
          "internalType": "address",
          "name": "owner",
          "type": "address"
        },
        {
          "indexed": true,
          "internalType": "address",
          "name": "operator",
          "type": "address"
        },
        {
          "indexed": false,
          "internalType": "bool",
          "name": "approved",
          "type": "bool"
        }
      ],
      "name": "ApprovalForAll",
      "type": "event"
    },
    {
      "anonymous": false,
      "inputs": [
        {
          "indexed": false,
          "internalType": "uint256",
          "name": "_fromTokenId",
          "type": "uint256"
        },
        {
          "indexed": false,
          "internalType": "uint256",
          "name": "_toTokenId",
          "type": "uint256"
        }
      ],
      "name": "BatchMetadataUpdate",
      "type": "event"
    },
    {
      "anonymous": false,
      "inputs": [
        {
          "indexed": true,
          "internalType": "uint256",
          "name": "collectionId",
          "type": "uint256"
        },
        {
          "indexed": false,
          "internalType": "address",
          "name": "owner",
          "type": "address"
        },
        {
          "indexed": false,
          "internalType": "string",
          "name": "collectionURI",
          "type": "string"
        }
      ],
      "name": "CollectionCreated",
      "type": "event"
    },
    {
      "anonymous": false,
      "inputs": [
        {
          "indexed": true,
          "internalType": "uint256",
          "name": "collectionId",
          "type": "uint256"
        },
        {
          "indexed": false,
          "internalType": "address",
          "name": "owner",
          "type": "address"
        },
        {
          "indexed": false,
          "internalType": "string",
          "name": "collectionURI",
          "type": "string"
        }
      ],
      "name": "CollectionMetadataUpdated",
      "type": "event"
    },
    {
      "anonymous": false,
      "inputs": [
        {
          "indexed": false,
          "internalType": "uint256",
          "name": "_tokenId",
          "type": "uint256"
        }
      ],
      "name": "MetadataUpdate",
      "type": "event"
    },
    {
      "anonymous": false,
      "inputs": [
        {
          "indexed": true,
          "internalType": "uint256",
          "name": "tokenId",
          "type": "uint256"
        },
        {
          "indexed": false,
          "internalType": "address",
          "name": "owner",
          "type": "address"
        },
        {
          "indexed": false,
          "internalType": "uint256",
          "name": "collectionId",
          "type": "uint256"
        }
      ],
      "name": "NFTCreated",
      "type": "event"
    },
    {
      "anonymous": false,
      "inputs": [
        {
          "indexed": false,
          "internalType": "uint256[]",
          "name": "nftIds",
          "type": "uint256[]"
        },
        {
          "indexed": false,
          "internalType": "address",
          "name": "owner",
          "type": "address"
        },
        {
          "indexed": false,
          "internalType": "uint256",
          "name": "collectionId",
          "type": "uint256"
        }
      ],
      "name": "NFTsCollectionUpdated",
      "type": "event"
    },
    {
      "anonymous": false,
      "inputs": [
        {
          "indexed": true,
          "internalType": "address",
          "name": "from",
          "type": "address"
        },
        {
          "indexed": true,
          "internalType": "address",
          "name": "to",
          "type": "address"
        },
        {
          "indexed": true,
          "internalType": "uint256",
          "name": "tokenId",
          "type": "uint256"
        }
      ],
      "name": "Transfer",
      "type": "event"
    },
    {
      "inputs": [
        {
          "internalType": "address",
          "name": "to",
          "type": "address"
        },
        {
          "internalType": "uint256",
          "name": "tokenId",
          "type": "uint256"
        }
      ],
      "name": "approve",
      "outputs": [],
      "stateMutability": "nonpayable",
      "type": "function"
    },
    {
      "inputs": [
        {
          "internalType": "address",
          "name": "owner",
          "type": "address"
        }
      ],
      "name": "balanceOf",
      "outputs": [
        {
          "internalType": "uint256",
          "name": "",
          "type": "uint256"
        }
      ],
      "stateMutability": "view",
      "type": "function"
    },
    {
      "inputs": [
        {
          "internalType": "string",
          "name": "_collectionURI",
          "type": "string"
        },
        {
          "internalType": "uint256[]",
          "name": "selectedNFTs",
          "type": "uint256[]"
        }
      ],
      "name": "createCollection",
      "outputs": [],
      "stateMutability": "nonpayable",
      "type": "function"
    },
    {
      "inputs": [
        {
          "internalType": "string",
          "name": "tokenURI",
          "type": "string"
        },
        {
          "internalType": "uint256",
          "name": "collectionId",
          "type": "uint256"
        }
      ],
      "name": "createToken",
      "outputs": [
        {
          "internalType": "uint256",
          "name": "",
          "type": "uint256"
        }
      ],
      "stateMutability": "payable",
      "type": "function"
    },
    {
      "inputs": [
        {
          "internalType": "uint256",
          "name": "_collectionId",
          "type": "uint256"
        }
      ],
      "name": "fetchCollectionById",
      "outputs": [
        {
          "components": [
            {
              "internalType": "uint256",
              "name": "collectionId",
              "type": "uint256"
            },
            {
              "internalType": "address",
              "name": "owner",
              "type": "address"
            },
            {
              "internalType": "string",
              "name": "collectionURI",
              "type": "string"
            }
          ],
          "internalType": "struct EtherNFTPlace.Collection",
          "name": "",
          "type": "tuple"
        }
      ],
      "stateMutability": "view",
      "type": "function"
    },
    {
      "inputs": [],
      "name": "fetchMyCollections",
      "outputs": [
        {
          "components": [
            {
              "internalType": "uint256",
              "name": "collectionId",
              "type": "uint256"
            },
            {
              "internalType": "address",
              "name": "owner",
              "type": "address"
            },
            {
              "internalType": "string",
              "name": "collectionURI",
              "type": "string"
            }
          ],
          "internalType": "struct EtherNFTPlace.Collection[]",
          "name": "",
          "type": "tuple[]"
        }
      ],
      "stateMutability": "view",
      "type": "function"
    },
    {
      "inputs": [
        {
          "internalType": "uint256",
          "name": "collectionId",
          "type": "uint256"
        }
      ],
      "name": "fetchMyNFTsByCollection",
      "outputs": [
        {
          "components": [
            {
              "internalType": "uint256",
              "name": "tokenId",
              "type": "uint256"
            },
            {
              "internalType": "address",
              "name": "owner",
              "type": "address"
            },
            {
              "internalType": "uint256",
              "name": "collectionId",
              "type": "uint256"
            }
          ],
          "internalType": "struct EtherNFTPlace.NFT[]",
          "name": "",
          "type": "tuple[]"
        }
      ],
      "stateMutability": "view",
      "type": "function"
    },
    {
      "inputs": [
        {
          "internalType": "uint256",
          "name": "tokenId",
          "type": "uint256"
        }
      ],
      "name": "getApproved",
      "outputs": [
        {
          "internalType": "address",
          "name": "",
          "type": "address"
        }
      ],
      "stateMutability": "view",
      "type": "function"
    },
    {
      "inputs": [
        {
          "internalType": "address",
          "name": "owner",
          "type": "address"
        },
        {
          "internalType": "address",
          "name": "operator",
          "type": "address"
        }
      ],
      "name": "isApprovedForAll",
      "outputs": [
        {
          "internalType": "bool",
          "name": "",
          "type": "bool"
        }
      ],
      "stateMutability": "view",
      "type": "function"
    },
    {
      "inputs": [],
      "name": "name",
      "outputs": [
        {
          "internalType": "string",
          "name": "",
          "type": "string"
        }
      ],
      "stateMutability": "view",
      "type": "function"
    },
    {
      "inputs": [
        {
          "internalType": "uint256",
          "name": "tokenId",
          "type": "uint256"
        }
      ],
      "name": "ownerOf",
      "outputs": [
        {
          "internalType": "address",
          "name": "",
          "type": "address"
        }
      ],
      "stateMutability": "view",
      "type": "function"
    },
    {
      "inputs": [
        {
          "internalType": "address",
          "name": "from",
          "type": "address"
        },
        {
          "internalType": "address",
          "name": "to",
          "type": "address"
        },
        {
          "internalType": "uint256",
          "name": "tokenId",
          "type": "uint256"
        }
      ],
      "name": "safeTransferFrom",
      "outputs": [],
      "stateMutability": "nonpayable",
      "type": "function"
    },
    {
      "inputs": [
        {
          "internalType": "address",
          "name": "from",
          "type": "address"
        },
        {
          "internalType": "address",
          "name": "to",
          "type": "address"
        },
        {
          "internalType": "uint256",
          "name": "tokenId",
          "type": "uint256"
        },
        {
          "internalType": "bytes",
          "name": "data",
          "type": "bytes"
        }
      ],
      "name": "safeTransferFrom",
      "outputs": [],
      "stateMutability": "nonpayable",
      "type": "function"
    },
    {
      "inputs": [
        {
          "internalType": "address",
          "name": "operator",
          "type": "address"
        },
        {
          "internalType": "bool",
          "name": "approved",
          "type": "bool"
        }
      ],
      "name": "setApprovalForAll",
      "outputs": [],
      "stateMutability": "nonpayable",
      "type": "function"
    },
    {
      "inputs": [
        {
          "internalType": "bytes4",
          "name": "interfaceId",
          "type": "bytes4"
        }
      ],
      "name": "supportsInterface",
      "outputs": [
        {
          "internalType": "bool",
          "name": "",
          "type": "bool"
        }
      ],
      "stateMutability": "view",
      "type": "function"
    },
    {
      "inputs": [],
      "name": "symbol",
      "outputs": [
        {
          "internalType": "string",
          "name": "",
          "type": "string"
        }
      ],
      "stateMutability": "view",
      "type": "function"
    },
    {
      "inputs": [
        {
          "internalType": "uint256",
          "name": "tokenId",
          "type": "uint256"
        }
      ],
      "name": "tokenURI",
      "outputs": [
        {
          "internalType": "string",
          "name": "",
          "type": "string"
        }
      ],
      "stateMutability": "view",
      "type": "function"
    },
    {
      "inputs": [
        {
          "internalType": "address",
          "name": "from",
          "type": "address"
        },
        {
          "internalType": "address",
          "name": "to",
          "type": "address"
        },
        {
          "internalType": "uint256",
          "name": "tokenId",
          "type": "uint256"
        }
      ],
      "name": "transferFrom",
      "outputs": [],
      "stateMutability": "nonpayable",
      "type": "function"
    },
    {
      "inputs": [
        {
          "internalType": "uint256",
          "name": "collectionId",
          "type": "uint256"
        },
        {
          "internalType": "uint256[]",
          "name": "selectedNFTs",
          "type": "uint256[]"
        },
        {
          "internalType": "string",
          "name": "_newCollectionURI",
          "type": "string"
        }
      ],
      "name": "updateCollection",
      "outputs": [],
      "stateMutability": "nonpayable",
      "type": "function"
    }
  ],
  "bytecode": "0x60806040523480156200001157600080fd5b506040518060400160405280601081526020017f4d657461766572736520546f6b656e73000000000000000000000000000000008152506040518060400160405280600481526020017f4d4554540000000000000000000000000000000000000000000000000000000081525081600090816200008f919062000365565b508060019081620000a1919062000365565b50505033600960006101000a81548173ffffffffffffffffffffffffffffffffffffffff021916908373ffffffffffffffffffffffffffffffffffffffff1602179055506200044c565b600081519050919050565b7f4e487b7100000000000000000000000000000000000000000000000000000000600052604160045260246000fd5b7f4e487b7100000000000000000000000000000000000000000000000000000000600052602260045260246000fd5b600060028204905060018216806200016d57607f821691505b60208210810362000183576200018262000125565b5b50919050565b60008190508160005260206000209050919050565b60006020601f8301049050919050565b600082821b905092915050565b600060088302620001ed7fffffffffffffffffffffffffffffffffffffffffffffffffffffffffffffffff82620001ae565b620001f98683620001ae565b95508019841693508086168417925050509392505050565b6000819050919050565b6000819050919050565b600062000246620002406200023a8462000211565b6200021b565b62000211565b9050919050565b6000819050919050565b620002628362000225565b6200027a62000271826200024d565b848454620001bb565b825550505050565b600090565b6200029162000282565b6200029e81848462000257565b505050565b5b81811015620002c657620002ba60008262000287565b600181019050620002a4565b5050565b601f8211156200031557620002df8162000189565b620002ea846200019e565b81016020851015620002fa578190505b6200031262000309856200019e565b830182620002a3565b50505b505050565b600082821c905092915050565b60006200033a600019846008026200031a565b1980831691505092915050565b600062000355838362000327565b9150826002028217905092915050565b6200037082620000eb565b67ffffffffffffffff8111156200038c576200038b620000f6565b5b62000398825462000154565b620003a5828285620002ca565b600060209050601f831160018114620003dd5760008415620003c8578287015190505b620003d4858262000347565b86555062000444565b601f198416620003ed8662000189565b60005b828110156200041757848901518255600182019150602085019450602081019050620003f0565b8683101562000437578489015162000433601f89168262000327565b8355505b6001600288020188555050505b505050505050565b61438a806200045c6000396000f3fe6080604052600436106101145760003560e01c80636352211e116100a0578063a280d6c811610064578063a280d6c8146103da578063b88d4fde14610405578063c87b56dd1461042e578063e985e9c51461046b578063ed634358146104a857610114565b80636352211e146102dc57806370a082311461031957806372b3b6201461035657806395d89b4114610386578063a22cb465146103b157610114565b806323b872dd116100e757806323b872dd146101e75780632af505e2146102105780632b22a5091461024d5780633eb2a2051461027657806342842e0e146102b357610114565b806301ffc9a71461011957806306fdde0314610156578063081812fc14610181578063095ea7b3146101be575b600080fd5b34801561012557600080fd5b50610140600480360381019061013b9190612997565b6104d1565b60405161014d91906129df565b60405180910390f35b34801561016257600080fd5b5061016b610532565b6040516101789190612a8a565b60405180910390f35b34801561018d57600080fd5b506101a860048036038101906101a39190612ae2565b6105c4565b6040516101b59190612b50565b60405180910390f35b3480156101ca57600080fd5b506101e560048036038101906101e09190612b97565b61060a565b005b3480156101f357600080fd5b5061020e60048036038101906102099190612bd7565b610721565b005b34801561021c57600080fd5b5061023760048036038101906102329190612ae2565b610781565b6040516102449190612ce2565b60405180910390f35b34801561025957600080fd5b50610274600480360381019061026f9190612f01565b6108a0565b005b34801561028257600080fd5b5061029d60048036038101906102989190612ae2565b610b32565b6040516102aa919061306a565b60405180910390f35b3480156102bf57600080fd5b506102da60048036038101906102d59190612bd7565b610dc9565b005b3480156102e857600080fd5b5061030360048036038101906102fe9190612ae2565b610de9565b6040516103109190612b50565b60405180910390f35b34801561032557600080fd5b50610340600480360381019061033b919061308c565b610e6f565b60405161034d91906130c8565b60405180910390f35b610370600480360381019061036b91906130e3565b610f26565b60405161037d91906130c8565b60405180910390f35b34801561039257600080fd5b5061039b61103a565b6040516103a89190612a8a565b60405180910390f35b3480156103bd57600080fd5b506103d860048036038101906103d3919061316b565b6110cc565b005b3480156103e657600080fd5b506103ef6110e2565b6040516103fc91906132bd565b60405180910390f35b34801561041157600080fd5b5061042c60048036038101906104279190613380565b6113e5565b005b34801561043a57600080fd5b5061045560048036038101906104509190612ae2565b611447565b6040516104629190612a8a565b60405180910390f35b34801561047757600080fd5b50610492600480360381019061048d9190613403565b611559565b60405161049f91906129df565b60405180910390f35b3480156104b457600080fd5b506104cf60048036038101906104ca9190613443565b6115ed565b005b6000634906490660e01b7bffffffffffffffffffffffffffffffffffffffffffffffffffffffff1916827bffffffffffffffffffffffffffffffffffffffffffffffffffffffff1916148061052b575061052a82611956565b5b9050919050565b606060008054610541906134fd565b80601f016020809104026020016040519081016040528092919081815260200182805461056d906134fd565b80156105ba5780601f1061058f576101008083540402835291602001916105ba565b820191906000526020600020905b81548152906001019060200180831161059d57829003601f168201915b5050505050905090565b60006105cf82611a38565b6004600083815260200190815260200160002060009054906101000a900473ffffffffffffffffffffffffffffffffffffffff169050919050565b600061061582610de9565b90508073ffffffffffffffffffffffffffffffffffffffff168373ffffffffffffffffffffffffffffffffffffffff1603610685576040517f08c379a000000000000000000000000000000000000000000000000000000000815260040161067c906135a0565b60405180910390fd5b8073ffffffffffffffffffffffffffffffffffffffff166106a4611a83565b73ffffffffffffffffffffffffffffffffffffffff1614806106d357506106d2816106cd611a83565b611559565b5b610712576040517f08c379a000000000000000000000000000000000000000000000000000000000815260040161070990613632565b60405180910390fd5b61071c8383611a8b565b505050565b61073261072c611a83565b82611b44565b610771576040517f08c379a0000000000000000000000000000000000000000000000000000000008152600401610768906136c4565b60405180910390fd5b61077c838383611bd9565b505050565b6107896128bd565b600a6000838152602001908152602001600020604051806060016040529081600082015481526020016001820160009054906101000a900473ffffffffffffffffffffffffffffffffffffffff1673ffffffffffffffffffffffffffffffffffffffff1673ffffffffffffffffffffffffffffffffffffffff168152602001600282018054610817906134fd565b80601f0160208091040260200160405190810160405280929190818152602001828054610843906134fd565b80156108905780601f1061086557610100808354040283529160200191610890565b820191906000526020600020905b81548152906001019060200180831161087357829003601f168201915b5050505050815250509050919050565b6108aa6008611ed2565b60006108b66008611ee8565b905060405180606001604052808281526020013373ffffffffffffffffffffffffffffffffffffffff16815260200184815250600a60008381526020019081526020016000206000820151816000015560208201518160010160006101000a81548173ffffffffffffffffffffffffffffffffffffffff021916908373ffffffffffffffffffffffffffffffffffffffff16021790555060408201518160020190816109629190613890565b50905050807fb0b7b214963f2e16da9cf6ed5851757dfed306875edf1d59e030881102ef24ef3385604051610998929190613962565b60405180910390a2600082511115610b2d5760005b8251811015610af05760008382815181106109cb576109ca613992565b5b602002602001015190506109de81611ef6565b610a1d576040517f08c379a0000000000000000000000000000000000000000000000000000000008152600401610a1490613a0d565b60405180910390fd5b3373ffffffffffffffffffffffffffffffffffffffff16600b600083815260200190815260200160002060010160009054906101000a900473ffffffffffffffffffffffffffffffffffffffff1673ffffffffffffffffffffffffffffffffffffffff1614610ac1576040517f08c379a0000000000000000000000000000000000000000000000000000000008152600401610ab890613a79565b60405180910390fd5b82600b600083815260200190815260200160002060020181905550508080610ae890613ac8565b9150506109ad565b507fe40078c1a0c35f7a31b6bc2fffcb1efa8c74af25b8868f94619a0afa890b031b823383604051610b2493929190613bbf565b60405180910390a15b505050565b60606000610b406007611ee8565b905060008060005b838111610bfc5785600b600083815260200190815260200160002060020154148015610bd557503373ffffffffffffffffffffffffffffffffffffffff16600b600083815260200190815260200160002060010160009054906101000a900473ffffffffffffffffffffffffffffffffffffffff1673ffffffffffffffffffffffffffffffffffffffff16145b15610be9578280610be590613ac8565b9350505b8080610bf490613ac8565b915050610b48565b5060008267ffffffffffffffff811115610c1957610c18612d0e565b5b604051908082528060200260200182016040528015610c5257816020015b610c3f6128f4565b815260200190600190039081610c375790505b5090506000600190505b848111610dbc5786600b600083815260200190815260200160002060020154148015610ce957503373ffffffffffffffffffffffffffffffffffffffff16600b600083815260200190815260200160002060010160009054906101000a900473ffffffffffffffffffffffffffffffffffffffff1673ffffffffffffffffffffffffffffffffffffffff16145b15610da9576000600b6000838152602001908152602001600020905080604051806060016040529081600082015481526020016001820160009054906101000a900473ffffffffffffffffffffffffffffffffffffffff1673ffffffffffffffffffffffffffffffffffffffff1673ffffffffffffffffffffffffffffffffffffffff168152602001600282015481525050838581518110610d8e57610d8d613992565b5b60200260200101819052508380610da490613ac8565b945050505b8080610db490613ac8565b915050610c5c565b5080945050505050919050565b610de4838383604051806020016040528060008152506113e5565b505050565b600080610df583611f37565b9050600073ffffffffffffffffffffffffffffffffffffffff168173ffffffffffffffffffffffffffffffffffffffff1603610e66576040517f08c379a0000000000000000000000000000000000000000000000000000000008152600401610e5d90613c49565b60405180910390fd5b80915050919050565b60008073ffffffffffffffffffffffffffffffffffffffff168273ffffffffffffffffffffffffffffffffffffffff1603610edf576040517f08c379a0000000000000000000000000000000000000000000000000000000008152600401610ed690613cdb565b60405180910390fd5b600360008373ffffffffffffffffffffffffffffffffffffffff1673ffffffffffffffffffffffffffffffffffffffff168152602001908152602001600020549050919050565b6000610f326007611ed2565b6000610f3e6007611ee8565b9050610f4a3382611f74565b610f548185612191565b60405180606001604052808281526020013373ffffffffffffffffffffffffffffffffffffffff16815260200184815250600b60008381526020019081526020016000206000820151816000015560208201518160010160006101000a81548173ffffffffffffffffffffffffffffffffffffffff021916908373ffffffffffffffffffffffffffffffffffffffff16021790555060408201518160020155905050807f94619d2447a6efc7f1095856ea5af24ffa395982057fcd550cb7909aea537bbd3385604051611028929190613cfb565b60405180910390a28091505092915050565b606060018054611049906134fd565b80601f0160208091040260200160405190810160405280929190818152602001828054611075906134fd565b80156110c25780601f10611097576101008083540402835291602001916110c2565b820191906000526020600020905b8154815290600101906020018083116110a557829003601f168201915b5050505050905090565b6110de6110d7611a83565b8383612235565b5050565b606060006110f06008611ee8565b905060008060005b83811015611198573373ffffffffffffffffffffffffffffffffffffffff16600a60006001846111289190613d24565b815260200190815260200160002060010160009054906101000a900473ffffffffffffffffffffffffffffffffffffffff1673ffffffffffffffffffffffffffffffffffffffff1603611185576001836111829190613d24565b92505b808061119090613ac8565b9150506110f8565b5060008267ffffffffffffffff8111156111b5576111b4612d0e565b5b6040519080825280602002602001820160405280156111ee57816020015b6111db6128bd565b8152602001906001900390816111d35790505b50905060005b848110156113da573373ffffffffffffffffffffffffffffffffffffffff16600a60006001846112249190613d24565b815260200190815260200160002060010160009054906101000a900473ffffffffffffffffffffffffffffffffffffffff1673ffffffffffffffffffffffffffffffffffffffff16036113c75760006001826112809190613d24565b90506000600a6000838152602001908152602001600020604051806060016040529081600082015481526020016001820160009054906101000a900473ffffffffffffffffffffffffffffffffffffffff1673ffffffffffffffffffffffffffffffffffffffff1673ffffffffffffffffffffffffffffffffffffffff168152602001600282018054611312906134fd565b80601f016020809104026020016040519081016040528092919081815260200182805461133e906134fd565b801561138b5780601f106113605761010080835404028352916020019161138b565b820191906000526020600020905b81548152906001019060200180831161136e57829003601f168201915b5050505050815250509050808486815181106113aa576113a9613992565b5b60200260200101819052506001856113c29190613d24565b945050505b80806113d290613ac8565b9150506111f4565b508094505050505090565b6113f66113f0611a83565b83611b44565b611435576040517f08c379a000000000000000000000000000000000000000000000000000000000815260040161142c906136c4565b60405180910390fd5b611441848484846123a1565b50505050565b606061145282611a38565b6000600660008481526020019081526020016000208054611472906134fd565b80601f016020809104026020016040519081016040528092919081815260200182805461149e906134fd565b80156114eb5780601f106114c0576101008083540402835291602001916114eb565b820191906000526020600020905b8154815290600101906020018083116114ce57829003601f168201915b5050505050905060006114fc6123fd565b90506000815103611511578192505050611554565b60008251111561154657808260405160200161152e929190613d94565b60405160208183030381529060405292505050611554565b61154f84612414565b925050505b919050565b6000600560008473ffffffffffffffffffffffffffffffffffffffff1673ffffffffffffffffffffffffffffffffffffffff16815260200190815260200160002060008373ffffffffffffffffffffffffffffffffffffffff1673ffffffffffffffffffffffffffffffffffffffff16815260200190815260200160002060009054906101000a900460ff16905092915050565b3373ffffffffffffffffffffffffffffffffffffffff16600a600085815260200190815260200160002060010160009054906101000a900473ffffffffffffffffffffffffffffffffffffffff1673ffffffffffffffffffffffffffffffffffffffff1614611691576040517f08c379a000000000000000000000000000000000000000000000000000000000815260040161168890613e04565b60405180910390fd5b6000600c6000858152602001908152602001600020905081600a600086815260200190815260200160002060020190816116cb9190613890565b50837fc96b737485b93f5411fcc8444621944a2e03644f957e268c6affb0a2bd3b84bf33846040516116fe929190613962565b60405180910390a26000835111156119505760005b835181101561191357600084828151811061173157611730613992565b5b6020026020010151905061174481611ef6565b611783576040517f08c379a000000000000000000000000000000000000000000000000000000000815260040161177a90613a0d565b60405180910390fd5b3373ffffffffffffffffffffffffffffffffffffffff16600b600083815260200190815260200160002060010160009054906101000a900473ffffffffffffffffffffffffffffffffffffffff1673ffffffffffffffffffffffffffffffffffffffff1614611827576040517f08c379a000000000000000000000000000000000000000000000000000000000815260040161181e90613a79565b60405180910390fd5b85600b6000838152602001908152602001600020600201541461187f576040517f08c379a000000000000000000000000000000000000000000000000000000000815260040161187690613e96565b60405180910390fd5b6000805b84805490508110156118cf57828582815481106118a3576118a2613992565b5b9060005260206000200154036118bc57600191506118cf565b80806118c790613ac8565b915050611883565b50806118fe57838290806001815401808255809150506001900390600052602060002001600090919091909150555b5050808061190b90613ac8565b915050611713565b507fe40078c1a0c35f7a31b6bc2fffcb1efa8c74af25b8868f94619a0afa890b031b83338660405161194793929190613bbf565b60405180910390a15b50505050565b60007f80ac58cd000000000000000000000000000000000000000000000000000000007bffffffffffffffffffffffffffffffffffffffffffffffffffffffff1916827bffffffffffffffffffffffffffffffffffffffffffffffffffffffff19161480611a2157507f5b5e139f000000000000000000000000000000000000000000000000000000007bffffffffffffffffffffffffffffffffffffffffffffffffffffffff1916827bffffffffffffffffffffffffffffffffffffffffffffffffffffffff1916145b80611a315750611a308261247c565b5b9050919050565b611a4181611ef6565b611a80576040517f08c379a0000000000000000000000000000000000000000000000000000000008152600401611a7790613c49565b60405180910390fd5b50565b600033905090565b816004600083815260200190815260200160002060006101000a81548173ffffffffffffffffffffffffffffffffffffffff021916908373ffffffffffffffffffffffffffffffffffffffff160217905550808273ffffffffffffffffffffffffffffffffffffffff16611afe83610de9565b73ffffffffffffffffffffffffffffffffffffffff167f8c5be1e5ebec7d5bd14f71427d1e84f3dd0314c0f7b2291e5b200ac8c7c3b92560405160405180910390a45050565b600080611b5083610de9565b90508073ffffffffffffffffffffffffffffffffffffffff168473ffffffffffffffffffffffffffffffffffffffff161480611b925750611b918185611559565b5b80611bd057508373ffffffffffffffffffffffffffffffffffffffff16611bb8846105c4565b73ffffffffffffffffffffffffffffffffffffffff16145b91505092915050565b8273ffffffffffffffffffffffffffffffffffffffff16611bf982610de9565b73ffffffffffffffffffffffffffffffffffffffff1614611c4f576040517f08c379a0000000000000000000000000000000000000000000000000000000008152600401611c4690613f28565b60405180910390fd5b600073ffffffffffffffffffffffffffffffffffffffff168273ffffffffffffffffffffffffffffffffffffffff1603611cbe576040517f08c379a0000000000000000000000000000000000000000000000000000000008152600401611cb590613fba565b60405180910390fd5b611ccb83838360016124e6565b8273ffffffffffffffffffffffffffffffffffffffff16611ceb82610de9565b73ffffffffffffffffffffffffffffffffffffffff1614611d41576040517f08c379a0000000000000000000000000000000000000000000000000000000008152600401611d3890613f28565b60405180910390fd5b6004600082815260200190815260200160002060006101000a81549073ffffffffffffffffffffffffffffffffffffffff02191690556001600360008573ffffffffffffffffffffffffffffffffffffffff1673ffffffffffffffffffffffffffffffffffffffff168152602001908152602001600020600082825403925050819055506001600360008473ffffffffffffffffffffffffffffffffffffffff1673ffffffffffffffffffffffffffffffffffffffff16815260200190815260200160002060008282540192505081905550816002600083815260200190815260200160002060006101000a81548173ffffffffffffffffffffffffffffffffffffffff021916908373ffffffffffffffffffffffffffffffffffffffff160217905550808273ffffffffffffffffffffffffffffffffffffffff168473ffffffffffffffffffffffffffffffffffffffff167fddf252ad1be2c89b69c2b068fc378daa952ba7f163c4a11628f55a4df523b3ef60405160405180910390a4611ecd83838360016124ec565b505050565b6001816000016000828254019250508190555050565b600081600001549050919050565b60008073ffffffffffffffffffffffffffffffffffffffff16611f1883611f37565b73ffffffffffffffffffffffffffffffffffffffff1614159050919050565b60006002600083815260200190815260200160002060009054906101000a900473ffffffffffffffffffffffffffffffffffffffff169050919050565b600073ffffffffffffffffffffffffffffffffffffffff168273ffffffffffffffffffffffffffffffffffffffff1603611fe3576040517f08c379a0000000000000000000000000000000000000000000000000000000008152600401611fda90614026565b60405180910390fd5b611fec81611ef6565b1561202c576040517f08c379a000000000000000000000000000000000000000000000000000000000815260040161202390614092565b60405180910390fd5b61203a6000838360016124e6565b61204381611ef6565b15612083576040517f08c379a000000000000000000000000000000000000000000000000000000000815260040161207a90614092565b60405180910390fd5b6001600360008473ffffffffffffffffffffffffffffffffffffffff1673ffffffffffffffffffffffffffffffffffffffff16815260200190815260200160002060008282540192505081905550816002600083815260200190815260200160002060006101000a81548173ffffffffffffffffffffffffffffffffffffffff021916908373ffffffffffffffffffffffffffffffffffffffff160217905550808273ffffffffffffffffffffffffffffffffffffffff16600073ffffffffffffffffffffffffffffffffffffffff167fddf252ad1be2c89b69c2b068fc378daa952ba7f163c4a11628f55a4df523b3ef60405160405180910390a461218d6000838360016124ec565b5050565b61219a82611ef6565b6121d9576040517f08c379a00000000000000000000000000000000000000000000000000000000081526004016121d090614124565b60405180910390fd5b806006600084815260200190815260200160002090816121f99190613890565b507ff8e1a15aba9398e019f0b49df1a4fde98ee17ae345cb5f6b5e2c27f5033e8ce78260405161222991906130c8565b60405180910390a15050565b8173ffffffffffffffffffffffffffffffffffffffff168373ffffffffffffffffffffffffffffffffffffffff16036122a3576040517f08c379a000000000000000000000000000000000000000000000000000000000815260040161229a90614190565b60405180910390fd5b80600560008573ffffffffffffffffffffffffffffffffffffffff1673ffffffffffffffffffffffffffffffffffffffff16815260200190815260200160002060008473ffffffffffffffffffffffffffffffffffffffff1673ffffffffffffffffffffffffffffffffffffffff16815260200190815260200160002060006101000a81548160ff0219169083151502179055508173ffffffffffffffffffffffffffffffffffffffff168373ffffffffffffffffffffffffffffffffffffffff167f17307eab39ab6107e8899845ad3d59bd9653f200f220920489ca2b5937696c318360405161239491906129df565b60405180910390a3505050565b6123ac848484611bd9565b6123b8848484846124f2565b6123f7576040517f08c379a00000000000000000000000000000000000000000000000000000000081526004016123ee90614222565b60405180910390fd5b50505050565b606060405180602001604052806000815250905090565b606061241f82611a38565b60006124296123fd565b905060008151116124495760405180602001604052806000815250612474565b8061245384612679565b604051602001612464929190613d94565b6040516020818303038152906040525b915050919050565b60007f01ffc9a7000000000000000000000000000000000000000000000000000000007bffffffffffffffffffffffffffffffffffffffffffffffffffffffff1916827bffffffffffffffffffffffffffffffffffffffffffffffffffffffff1916149050919050565b50505050565b50505050565b60006125138473ffffffffffffffffffffffffffffffffffffffff16612747565b1561266c578373ffffffffffffffffffffffffffffffffffffffff1663150b7a0261253c611a83565b8786866040518563ffffffff1660e01b815260040161255e9493929190614297565b6020604051808303816000875af192505050801561259a57506040513d601f19601f8201168201806040525081019061259791906142f8565b60015b61261c573d80600081146125ca576040519150601f19603f3d011682016040523d82523d6000602084013e6125cf565b606091505b506000815103612614576040517f08c379a000000000000000000000000000000000000000000000000000000000815260040161260b90614222565b60405180910390fd5b805181602001fd5b63150b7a0260e01b7bffffffffffffffffffffffffffffffffffffffffffffffffffffffff1916817bffffffffffffffffffffffffffffffffffffffffffffffffffffffff191614915050612671565b600190505b949350505050565b6060600060016126888461276a565b01905060008167ffffffffffffffff8111156126a7576126a6612d0e565b5b6040519080825280601f01601f1916602001820160405280156126d95781602001600182028036833780820191505090505b509050600082602001820190505b60011561273c578080600190039150507f3031323334353637383961626364656600000000000000000000000000000000600a86061a8153600a85816127305761272f614325565b5b049450600085036126e7575b819350505050919050565b6000808273ffffffffffffffffffffffffffffffffffffffff163b119050919050565b600080600090507a184f03e93ff9f4daa797ed6e38ed64bf6a1f01000000000000000083106127c8577a184f03e93ff9f4daa797ed6e38ed64bf6a1f01000000000000000083816127be576127bd614325565b5b0492506040810190505b6d04ee2d6d415b85acef81000000008310612805576d04ee2d6d415b85acef810000000083816127fb576127fa614325565b5b0492506020810190505b662386f26fc10000831061283457662386f26fc10000838161282a57612829614325565b5b0492506010810190505b6305f5e100831061285d576305f5e100838161285357612852614325565b5b0492506008810190505b612710831061288257612710838161287857612877614325565b5b0492506004810190505b606483106128a5576064838161289b5761289a614325565b5b0492506002810190505b600a83106128b4576001810190505b80915050919050565b604051806060016040528060008152602001600073ffffffffffffffffffffffffffffffffffffffff168152602001606081525090565b604051806060016040528060008152602001600073ffffffffffffffffffffffffffffffffffffffff168152602001600081525090565b6000604051905090565b600080fd5b600080fd5b60007fffffffff0000000000000000000000000000000000000000000000000000000082169050919050565b6129748161293f565b811461297f57600080fd5b50565b6000813590506129918161296b565b92915050565b6000602082840312156129ad576129ac612935565b5b60006129bb84828501612982565b91505092915050565b60008115159050919050565b6129d9816129c4565b82525050565b60006020820190506129f460008301846129d0565b92915050565b600081519050919050565b600082825260208201905092915050565b60005b83811015612a34578082015181840152602081019050612a19565b60008484015250505050565b6000601f19601f8301169050919050565b6000612a5c826129fa565b612a668185612a05565b9350612a76818560208601612a16565b612a7f81612a40565b840191505092915050565b60006020820190508181036000830152612aa48184612a51565b905092915050565b6000819050919050565b612abf81612aac565b8114612aca57600080fd5b50565b600081359050612adc81612ab6565b92915050565b600060208284031215612af857612af7612935565b5b6000612b0684828501612acd565b91505092915050565b600073ffffffffffffffffffffffffffffffffffffffff82169050919050565b6000612b3a82612b0f565b9050919050565b612b4a81612b2f565b82525050565b6000602082019050612b656000830184612b41565b92915050565b612b7481612b2f565b8114612b7f57600080fd5b50565b600081359050612b9181612b6b565b92915050565b60008060408385031215612bae57612bad612935565b5b6000612bbc85828601612b82565b9250506020612bcd85828601612acd565b9150509250929050565b600080600060608486031215612bf057612bef612935565b5b6000612bfe86828701612b82565b9350506020612c0f86828701612b82565b9250506040612c2086828701612acd565b9150509250925092565b612c3381612aac565b82525050565b612c4281612b2f565b82525050565b600082825260208201905092915050565b6000612c64826129fa565b612c6e8185612c48565b9350612c7e818560208601612a16565b612c8781612a40565b840191505092915050565b6000606083016000830151612caa6000860182612c2a565b506020830151612cbd6020860182612c39565b5060408301518482036040860152612cd58282612c59565b9150508091505092915050565b60006020820190508181036000830152612cfc8184612c92565b905092915050565b600080fd5b600080fd5b7f4e487b7100000000000000000000000000000000000000000000000000000000600052604160045260246000fd5b612d4682612a40565b810181811067ffffffffffffffff82111715612d6557612d64612d0e565b5b80604052505050565b6000612d7861292b565b9050612d848282612d3d565b919050565b600067ffffffffffffffff821115612da457612da3612d0e565b5b612dad82612a40565b9050602081019050919050565b82818337600083830152505050565b6000612ddc612dd784612d89565b612d6e565b905082815260208101848484011115612df857612df7612d09565b5b612e03848285612dba565b509392505050565b600082601f830112612e2057612e1f612d04565b5b8135612e30848260208601612dc9565b91505092915050565b600067ffffffffffffffff821115612e5457612e53612d0e565b5b602082029050602081019050919050565b600080fd5b6000612e7d612e7884612e39565b612d6e565b90508083825260208201905060208402830185811115612ea057612e9f612e65565b5b835b81811015612ec95780612eb58882612acd565b845260208401935050602081019050612ea2565b5050509392505050565b600082601f830112612ee857612ee7612d04565b5b8135612ef8848260208601612e6a565b91505092915050565b60008060408385031215612f1857612f17612935565b5b600083013567ffffffffffffffff811115612f3657612f3561293a565b5b612f4285828601612e0b565b925050602083013567ffffffffffffffff811115612f6357612f6261293a565b5b612f6f85828601612ed3565b9150509250929050565b600081519050919050565b600082825260208201905092915050565b6000819050602082019050919050565b606082016000820151612fbb6000850182612c2a565b506020820151612fce6020850182612c39565b506040820151612fe16040850182612c2a565b50505050565b6000612ff38383612fa5565b60608301905092915050565b6000602082019050919050565b600061301782612f79565b6130218185612f84565b935061302c83612f95565b8060005b8381101561305d5781516130448882612fe7565b975061304f83612fff565b925050600181019050613030565b5085935050505092915050565b60006020820190508181036000830152613084818461300c565b905092915050565b6000602082840312156130a2576130a1612935565b5b60006130b084828501612b82565b91505092915050565b6130c281612aac565b82525050565b60006020820190506130dd60008301846130b9565b92915050565b600080604083850312156130fa576130f9612935565b5b600083013567ffffffffffffffff8111156131185761311761293a565b5b61312485828601612e0b565b925050602061313585828601612acd565b9150509250929050565b613148816129c4565b811461315357600080fd5b50565b6000813590506131658161313f565b92915050565b6000806040838503121561318257613181612935565b5b600061319085828601612b82565b92505060206131a185828601613156565b9150509250929050565b600081519050919050565b600082825260208201905092915050565b6000819050602082019050919050565b60006060830160008301516131ef6000860182612c2a565b5060208301516132026020860182612c39565b506040830151848203604086015261321a8282612c59565b9150508091505092915050565b600061323383836131d7565b905092915050565b6000602082019050919050565b6000613253826131ab565b61325d81856131b6565b93508360208202850161326f856131c7565b8060005b858110156132ab578484038952815161328c8582613227565b94506132978361323b565b925060208a01995050600181019050613273565b50829750879550505050505092915050565b600060208201905081810360008301526132d78184613248565b905092915050565b600067ffffffffffffffff8211156132fa576132f9612d0e565b5b61330382612a40565b9050602081019050919050565b600061332361331e846132df565b612d6e565b90508281526020810184848401111561333f5761333e612d09565b5b61334a848285612dba565b509392505050565b600082601f83011261336757613366612d04565b5b8135613377848260208601613310565b91505092915050565b6000806000806080858703121561339a57613399612935565b5b60006133a887828801612b82565b94505060206133b987828801612b82565b93505060406133ca87828801612acd565b925050606085013567ffffffffffffffff8111156133eb576133ea61293a565b5b6133f787828801613352565b91505092959194509250565b6000806040838503121561341a57613419612935565b5b600061342885828601612b82565b925050602061343985828601612b82565b9150509250929050565b60008060006060848603121561345c5761345b612935565b5b600061346a86828701612acd565b935050602084013567ffffffffffffffff81111561348b5761348a61293a565b5b61349786828701612ed3565b925050604084013567ffffffffffffffff8111156134b8576134b761293a565b5b6134c486828701612e0b565b9150509250925092565b7f4e487b7100000000000000000000000000000000000000000000000000000000600052602260045260246000fd5b6000600282049050600182168061351557607f821691505b602082108103613528576135276134ce565b5b50919050565b7f4552433732313a20617070726f76616c20746f2063757272656e74206f776e6560008201527f7200000000000000000000000000000000000000000000000000000000000000602082015250565b600061358a602183612a05565b91506135958261352e565b604082019050919050565b600060208201905081810360008301526135b98161357d565b9050919050565b7f4552433732313a20617070726f76652063616c6c6572206973206e6f7420746f60008201527f6b656e206f776e6572206f7220617070726f76656420666f7220616c6c000000602082015250565b600061361c603d83612a05565b9150613627826135c0565b604082019050919050565b6000602082019050818103600083015261364b8161360f565b9050919050565b7f4552433732313a2063616c6c6572206973206e6f7420746f6b656e206f776e6560008201527f72206f7220617070726f76656400000000000000000000000000000000000000602082015250565b60006136ae602d83612a05565b91506136b982613652565b604082019050919050565b600060208201905081810360008301526136dd816136a1565b9050919050565b60008190508160005260206000209050919050565b60006020601f8301049050919050565b600082821b905092915050565b6000600883026137467fffffffffffffffffffffffffffffffffffffffffffffffffffffffffffffffff82613709565b6137508683613709565b95508019841693508086168417925050509392505050565b6000819050919050565b600061378d61378861378384612aac565b613768565b612aac565b9050919050565b6000819050919050565b6137a783613772565b6137bb6137b382613794565b848454613716565b825550505050565b600090565b6137d06137c3565b6137db81848461379e565b505050565b5b818110156137ff576137f46000826137c8565b6001810190506137e1565b5050565b601f82111561384457613815816136e4565b61381e846136f9565b8101602085101561382d578190505b613841613839856136f9565b8301826137e0565b50505b505050565b600082821c905092915050565b600061386760001984600802613849565b1980831691505092915050565b60006138808383613856565b9150826002028217905092915050565b613899826129fa565b67ffffffffffffffff8111156138b2576138b1612d0e565b5b6138bc82546134fd565b6138c7828285613803565b600060209050601f8311600181146138fa57600084156138e8578287015190505b6138f28582613874565b86555061395a565b601f198416613908866136e4565b60005b828110156139305784890151825560018201915060208501945060208101905061390b565b8683101561394d5784890151613949601f891682613856565b8355505b6001600288020188555050505b505050505050565b60006040820190506139776000830185612b41565b81810360208301526139898184612a51565b90509392505050565b7f4e487b7100000000000000000000000000000000000000000000000000000000600052603260045260246000fd5b7f4e465420646f6573206e6f742065786973740000000000000000000000000000600082015250565b60006139f7601283612a05565b9150613a02826139c1565b602082019050919050565b60006020820190508181036000830152613a26816139ea565b9050919050565b7f4e6f7420746865206f776e6572206f6620746865204e46540000000000000000600082015250565b6000613a63601883612a05565b9150613a6e82613a2d565b602082019050919050565b60006020820190508181036000830152613a9281613a56565b9050919050565b7f4e487b7100000000000000000000000000000000000000000000000000000000600052601160045260246000fd5b6000613ad382612aac565b91507fffffffffffffffffffffffffffffffffffffffffffffffffffffffffffffffff8203613b0557613b04613a99565b5b600182019050919050565b600081519050919050565b600082825260208201905092915050565b6000819050602082019050919050565b6000613b488383612c2a565b60208301905092915050565b6000602082019050919050565b6000613b6c82613b10565b613b768185613b1b565b9350613b8183613b2c565b8060005b83811015613bb2578151613b998882613b3c565b9750613ba483613b54565b925050600181019050613b85565b5085935050505092915050565b60006060820190508181036000830152613bd98186613b61565b9050613be86020830185612b41565b613bf560408301846130b9565b949350505050565b7f4552433732313a20696e76616c696420746f6b656e2049440000000000000000600082015250565b6000613c33601883612a05565b9150613c3e82613bfd565b602082019050919050565b60006020820190508181036000830152613c6281613c26565b9050919050565b7f4552433732313a2061646472657373207a65726f206973206e6f74206120766160008201527f6c6964206f776e65720000000000000000000000000000000000000000000000602082015250565b6000613cc5602983612a05565b9150613cd082613c69565b604082019050919050565b60006020820190508181036000830152613cf481613cb8565b9050919050565b6000604082019050613d106000830185612b41565b613d1d60208301846130b9565b9392505050565b6000613d2f82612aac565b9150613d3a83612aac565b9250828201905080821115613d5257613d51613a99565b5b92915050565b600081905092915050565b6000613d6e826129fa565b613d788185613d58565b9350613d88818560208601612a16565b80840191505092915050565b6000613da08285613d63565b9150613dac8284613d63565b91508190509392505050565b7f4e6f7420746865206f776e6572206f662074686520636f6c6c656374696f6e00600082015250565b6000613dee601f83612a05565b9150613df982613db8565b602082019050919050565b60006020820190508181036000830152613e1d81613de1565b9050919050565b7f4e465420646f6573206e6f742062656c6f6e6720746f2074686520636f6c6c6560008201527f6374696f6e000000000000000000000000000000000000000000000000000000602082015250565b6000613e80602583612a05565b9150613e8b82613e24565b604082019050919050565b60006020820190508181036000830152613eaf81613e73565b9050919050565b7f4552433732313a207472616e736665722066726f6d20696e636f72726563742060008201527f6f776e6572000000000000000000000000000000000000000000000000000000602082015250565b6000613f12602583612a05565b9150613f1d82613eb6565b604082019050919050565b60006020820190508181036000830152613f4181613f05565b9050919050565b7f4552433732313a207472616e7366657220746f20746865207a65726f2061646460008201527f7265737300000000000000000000000000000000000000000000000000000000602082015250565b6000613fa4602483612a05565b9150613faf82613f48565b604082019050919050565b60006020820190508181036000830152613fd381613f97565b9050919050565b7f4552433732313a206d696e7420746f20746865207a65726f2061646472657373600082015250565b6000614010602083612a05565b915061401b82613fda565b602082019050919050565b6000602082019050818103600083015261403f81614003565b9050919050565b7f4552433732313a20746f6b656e20616c7265616479206d696e74656400000000600082015250565b600061407c601c83612a05565b915061408782614046565b602082019050919050565b600060208201905081810360008301526140ab8161406f565b9050919050565b7f45524337323155524953746f726167653a2055524920736574206f66206e6f6e60008201527f6578697374656e7420746f6b656e000000000000000000000000000000000000602082015250565b600061410e602e83612a05565b9150614119826140b2565b604082019050919050565b6000602082019050818103600083015261413d81614101565b9050919050565b7f4552433732313a20617070726f766520746f2063616c6c657200000000000000600082015250565b600061417a601983612a05565b915061418582614144565b602082019050919050565b600060208201905081810360008301526141a98161416d565b9050919050565b7f4552433732313a207472616e7366657220746f206e6f6e20455243373231526560008201527f63656976657220696d706c656d656e7465720000000000000000000000000000602082015250565b600061420c603283612a05565b9150614217826141b0565b604082019050919050565b6000602082019050818103600083015261423b816141ff565b9050919050565b600081519050919050565b600082825260208201905092915050565b600061426982614242565b614273818561424d565b9350614283818560208601612a16565b61428c81612a40565b840191505092915050565b60006080820190506142ac6000830187612b41565b6142b96020830186612b41565b6142c660408301856130b9565b81810360608301526142d8818461425e565b905095945050505050565b6000815190506142f28161296b565b92915050565b60006020828403121561430e5761430d612935565b5b600061431c848285016142e3565b91505092915050565b7f4e487b7100000000000000000000000000000000000000000000000000000000600052601260045260246000fdfea2646970667358221220604885ecca2baf06d58f418c086b5f01194b012f683b9090540d21070124c5a264736f6c63430008130033",
  "linkReferences": {},
  "deployedLinkReferences": {}
}