{
  "_format": "hh-sol-artifact-1",
  "contractName": "EtherNFTPlace",
  "sourceName": "contracts/EtherNFTPlace.sol",
  "abi": [
    {
      "inputs": [],
      "stateMutability": "nonpayable",
      "type": "constructor"
    },
    {
      "anonymous": false,
      "inputs": [
        {
          "indexed": true,
          "internalType": "address",
          "name": "owner",
          "type": "address"
        },
        {
          "indexed": true,
          "internalType": "address",
          "name": "approved",
          "type": "address"
        },
        {
          "indexed": true,
          "internalType": "uint256",
          "name": "tokenId",
          "type": "uint256"
        }
      ],
      "name": "Approval",
      "type": "event"
    },
    {
      "anonymous": false,
      "inputs": [
        {
          "indexed": true,
          "internalType": "address",
          "name": "owner",
          "type": "address"
        },
        {
          "indexed": true,
          "internalType": "address",
          "name": "operator",
          "type": "address"
        },
        {
          "indexed": false,
          "internalType": "bool",
          "name": "approved",
          "type": "bool"
        }
      ],
      "name": "ApprovalForAll",
      "type": "event"
    },
    {
      "anonymous": false,
      "inputs": [
        {
          "indexed": false,
          "internalType": "uint256",
          "name": "_fromTokenId",
          "type": "uint256"
        },
        {
          "indexed": false,
          "internalType": "uint256",
          "name": "_toTokenId",
          "type": "uint256"
        }
      ],
      "name": "BatchMetadataUpdate",
      "type": "event"
    },
    {
      "anonymous": false,
      "inputs": [
        {
          "indexed": true,
          "internalType": "uint256",
          "name": "collectionId",
          "type": "uint256"
        },
        {
          "indexed": false,
          "internalType": "address",
          "name": "owner",
          "type": "address"
        },
        {
          "indexed": false,
          "internalType": "string",
          "name": "collectionURI",
          "type": "string"
        }
      ],
      "name": "CollectionCreated",
      "type": "event"
    },
    {
      "anonymous": false,
      "inputs": [
        {
          "indexed": false,
          "internalType": "uint256",
          "name": "_tokenId",
          "type": "uint256"
        }
      ],
      "name": "MetadataUpdate",
      "type": "event"
    },
    {
      "anonymous": false,
      "inputs": [
        {
          "indexed": true,
          "internalType": "address",
          "name": "from",
          "type": "address"
        },
        {
          "indexed": true,
          "internalType": "address",
          "name": "to",
          "type": "address"
        },
        {
          "indexed": true,
          "internalType": "uint256",
          "name": "tokenId",
          "type": "uint256"
        }
      ],
      "name": "Transfer",
      "type": "event"
    },
    {
      "inputs": [
        {
          "internalType": "address",
          "name": "to",
          "type": "address"
        },
        {
          "internalType": "uint256",
          "name": "tokenId",
          "type": "uint256"
        }
      ],
      "name": "approve",
      "outputs": [],
      "stateMutability": "nonpayable",
      "type": "function"
    },
    {
      "inputs": [
        {
          "internalType": "address",
          "name": "owner",
          "type": "address"
        }
      ],
      "name": "balanceOf",
      "outputs": [
        {
          "internalType": "uint256",
          "name": "",
          "type": "uint256"
        }
      ],
      "stateMutability": "view",
      "type": "function"
    },
    {
      "inputs": [
        {
          "internalType": "string",
          "name": "_collectionURI",
          "type": "string"
        }
      ],
      "name": "createCollection",
      "outputs": [],
      "stateMutability": "nonpayable",
      "type": "function"
    },
    {
      "inputs": [],
      "name": "fetchMyCollections",
      "outputs": [
        {
          "components": [
            {
              "internalType": "uint256",
              "name": "collectionId",
              "type": "uint256"
            },
            {
              "internalType": "address",
              "name": "owner",
              "type": "address"
            },
            {
              "internalType": "string",
              "name": "collectionURI",
              "type": "string"
            },
            {
              "internalType": "uint256[]",
              "name": "nfts",
              "type": "uint256[]"
            }
          ],
          "internalType": "struct EtherNFTPlace.Collection[]",
          "name": "",
          "type": "tuple[]"
        }
      ],
      "stateMutability": "view",
      "type": "function"
    },
    {
      "inputs": [
        {
          "internalType": "uint256",
          "name": "tokenId",
          "type": "uint256"
        }
      ],
      "name": "getApproved",
      "outputs": [
        {
          "internalType": "address",
          "name": "",
          "type": "address"
        }
      ],
      "stateMutability": "view",
      "type": "function"
    },
    {
      "inputs": [
        {
          "internalType": "address",
          "name": "owner",
          "type": "address"
        },
        {
          "internalType": "address",
          "name": "operator",
          "type": "address"
        }
      ],
      "name": "isApprovedForAll",
      "outputs": [
        {
          "internalType": "bool",
          "name": "",
          "type": "bool"
        }
      ],
      "stateMutability": "view",
      "type": "function"
    },
    {
      "inputs": [],
      "name": "name",
      "outputs": [
        {
          "internalType": "string",
          "name": "",
          "type": "string"
        }
      ],
      "stateMutability": "view",
      "type": "function"
    },
    {
      "inputs": [
        {
          "internalType": "uint256",
          "name": "tokenId",
          "type": "uint256"
        }
      ],
      "name": "ownerOf",
      "outputs": [
        {
          "internalType": "address",
          "name": "",
          "type": "address"
        }
      ],
      "stateMutability": "view",
      "type": "function"
    },
    {
      "inputs": [
        {
          "internalType": "address",
          "name": "from",
          "type": "address"
        },
        {
          "internalType": "address",
          "name": "to",
          "type": "address"
        },
        {
          "internalType": "uint256",
          "name": "tokenId",
          "type": "uint256"
        }
      ],
      "name": "safeTransferFrom",
      "outputs": [],
      "stateMutability": "nonpayable",
      "type": "function"
    },
    {
      "inputs": [
        {
          "internalType": "address",
          "name": "from",
          "type": "address"
        },
        {
          "internalType": "address",
          "name": "to",
          "type": "address"
        },
        {
          "internalType": "uint256",
          "name": "tokenId",
          "type": "uint256"
        },
        {
          "internalType": "bytes",
          "name": "data",
          "type": "bytes"
        }
      ],
      "name": "safeTransferFrom",
      "outputs": [],
      "stateMutability": "nonpayable",
      "type": "function"
    },
    {
      "inputs": [
        {
          "internalType": "address",
          "name": "operator",
          "type": "address"
        },
        {
          "internalType": "bool",
          "name": "approved",
          "type": "bool"
        }
      ],
      "name": "setApprovalForAll",
      "outputs": [],
      "stateMutability": "nonpayable",
      "type": "function"
    },
    {
      "inputs": [
        {
          "internalType": "bytes4",
          "name": "interfaceId",
          "type": "bytes4"
        }
      ],
      "name": "supportsInterface",
      "outputs": [
        {
          "internalType": "bool",
          "name": "",
          "type": "bool"
        }
      ],
      "stateMutability": "view",
      "type": "function"
    },
    {
      "inputs": [],
      "name": "symbol",
      "outputs": [
        {
          "internalType": "string",
          "name": "",
          "type": "string"
        }
      ],
      "stateMutability": "view",
      "type": "function"
    },
    {
      "inputs": [
        {
          "internalType": "uint256",
          "name": "tokenId",
          "type": "uint256"
        }
      ],
      "name": "tokenURI",
      "outputs": [
        {
          "internalType": "string",
          "name": "",
          "type": "string"
        }
      ],
      "stateMutability": "view",
      "type": "function"
    },
    {
      "inputs": [
        {
          "internalType": "address",
          "name": "from",
          "type": "address"
        },
        {
          "internalType": "address",
          "name": "to",
          "type": "address"
        },
        {
          "internalType": "uint256",
          "name": "tokenId",
          "type": "uint256"
        }
      ],
      "name": "transferFrom",
      "outputs": [],
      "stateMutability": "nonpayable",
      "type": "function"
    }
  ],
  "bytecode": "0x60806040523480156200001157600080fd5b506040518060400160405280601081526020017f4d657461766572736520546f6b656e73000000000000000000000000000000008152506040518060400160405280600481526020017f4d4554540000000000000000000000000000000000000000000000000000000081525081600090816200008f919062000365565b508060019081620000a1919062000365565b50505033600860006101000a81548173ffffffffffffffffffffffffffffffffffffffff021916908373ffffffffffffffffffffffffffffffffffffffff1602179055506200044c565b600081519050919050565b7f4e487b7100000000000000000000000000000000000000000000000000000000600052604160045260246000fd5b7f4e487b7100000000000000000000000000000000000000000000000000000000600052602260045260246000fd5b600060028204905060018216806200016d57607f821691505b60208210810362000183576200018262000125565b5b50919050565b60008190508160005260206000209050919050565b60006020601f8301049050919050565b600082821b905092915050565b600060088302620001ed7fffffffffffffffffffffffffffffffffffffffffffffffffffffffffffffffff82620001ae565b620001f98683620001ae565b95508019841693508086168417925050509392505050565b6000819050919050565b6000819050919050565b600062000246620002406200023a8462000211565b6200021b565b62000211565b9050919050565b6000819050919050565b620002628362000225565b6200027a62000271826200024d565b848454620001bb565b825550505050565b600090565b6200029162000282565b6200029e81848462000257565b505050565b5b81811015620002c657620002ba60008262000287565b600181019050620002a4565b5050565b601f8211156200031557620002df8162000189565b620002ea846200019e565b81016020851015620002fa578190505b6200031262000309856200019e565b830182620002a3565b50505b505050565b600082821c905092915050565b60006200033a600019846008026200031a565b1980831691505092915050565b600062000355838362000327565b9150826002028217905092915050565b6200037082620000eb565b67ffffffffffffffff8111156200038c576200038b620000f6565b5b62000398825462000154565b620003a5828285620002ca565b600060209050601f831160018114620003dd5760008415620003c8578287015190505b620003d4858262000347565b86555062000444565b601f198416620003ed8662000189565b60005b828110156200041757848901518255600182019150602085019450602081019050620003f0565b8683101562000437578489015162000433601f89168262000327565b8355505b6001600288020188555050505b505050505050565b612f61806200045c6000396000f3fe608060405234801561001057600080fd5b50600436106100f55760003560e01c80636352211e11610097578063a280d6c811610066578063a280d6c814610282578063b88d4fde146102a0578063c87b56dd146102bc578063e985e9c5146102ec576100f5565b80636352211e146101e857806370a082311461021857806395d89b4114610248578063a22cb46514610266576100f5565b8063081812fc116100d3578063081812fc14610164578063095ea7b31461019457806323b872dd146101b057806342842e0e146101cc576100f5565b806301ffc9a7146100fa578063059dfe131461012a57806306fdde0314610146575b600080fd5b610114600480360381019061010f9190611c5e565b61031c565b6040516101219190611ca6565b60405180910390f35b610144600480360381019061013f9190611e07565b61037d565b005b61014e6104ed565b60405161015b9190611ecf565b60405180910390f35b61017e60048036038101906101799190611f27565b61057f565b60405161018b9190611f95565b60405180910390f35b6101ae60048036038101906101a99190611fdc565b6105c5565b005b6101ca60048036038101906101c5919061201c565b6106dc565b005b6101e660048036038101906101e1919061201c565b61073c565b005b61020260048036038101906101fd9190611f27565b61075c565b60405161020f9190611f95565b60405180910390f35b610232600480360381019061022d919061206f565b6107e2565b60405161023f91906120ab565b60405180910390f35b610250610899565b60405161025d9190611ecf565b60405180910390f35b610280600480360381019061027b91906120f2565b61092b565b005b61028a610941565b6040516102979190612375565b60405180910390f35b6102ba60048036038101906102b59190612438565b610c9c565b005b6102d660048036038101906102d19190611f27565b610cfe565b6040516102e39190611ecf565b60405180910390f35b610306600480360381019061030191906124bb565b610e10565b6040516103139190611ca6565b60405180910390f35b6000634906490660e01b7bffffffffffffffffffffffffffffffffffffffffffffffffffffffff1916827bffffffffffffffffffffffffffffffffffffffffffffffffffffffff19161480610376575061037582610ea4565b5b9050919050565b60006103896007610f86565b90506103956007610f94565b60405180608001604052808281526020013373ffffffffffffffffffffffffffffffffffffffff168152602001838152602001600067ffffffffffffffff8111156103e3576103e2611cdc565b5b6040519080825280602002602001820160405280156104115781602001602082028036833780820191505090505b50815250600a60008381526020019081526020016000206000820151816000015560208201518160010160006101000a81548173ffffffffffffffffffffffffffffffffffffffff021916908373ffffffffffffffffffffffffffffffffffffffff160217905550604082015181600201908161048e9190612707565b5060608201518160030190805190602001906104ab929190611b4a565b50905050807fb0b7b214963f2e16da9cf6ed5851757dfed306875edf1d59e030881102ef24ef33846040516104e19291906127d9565b60405180910390a25050565b6060600080546104fc9061252a565b80601f01602080910402602001604051908101604052809291908181526020018280546105289061252a565b80156105755780601f1061054a57610100808354040283529160200191610575565b820191906000526020600020905b81548152906001019060200180831161055857829003601f168201915b5050505050905090565b600061058a82610faa565b6004600083815260200190815260200160002060009054906101000a900473ffffffffffffffffffffffffffffffffffffffff169050919050565b60006105d08261075c565b90508073ffffffffffffffffffffffffffffffffffffffff168373ffffffffffffffffffffffffffffffffffffffff1603610640576040517f08c379a00000000000000000000000000000000000000000000000000000000081526004016106379061287b565b60405180910390fd5b8073ffffffffffffffffffffffffffffffffffffffff1661065f610ff5565b73ffffffffffffffffffffffffffffffffffffffff16148061068e575061068d81610688610ff5565b610e10565b5b6106cd576040517f08c379a00000000000000000000000000000000000000000000000000000000081526004016106c49061290d565b60405180910390fd5b6106d78383610ffd565b505050565b6106ed6106e7610ff5565b826110b6565b61072c576040517f08c379a00000000000000000000000000000000000000000000000000000000081526004016107239061299f565b60405180910390fd5b61073783838361114b565b505050565b61075783838360405180602001604052806000815250610c9c565b505050565b60008061076883611444565b9050600073ffffffffffffffffffffffffffffffffffffffff168173ffffffffffffffffffffffffffffffffffffffff16036107d9576040517f08c379a00000000000000000000000000000000000000000000000000000000081526004016107d090612a0b565b60405180910390fd5b80915050919050565b60008073ffffffffffffffffffffffffffffffffffffffff168273ffffffffffffffffffffffffffffffffffffffff1603610852576040517f08c379a000000000000000000000000000000000000000000000000000000000815260040161084990612a9d565b60405180910390fd5b600360008373ffffffffffffffffffffffffffffffffffffffff1673ffffffffffffffffffffffffffffffffffffffff168152602001908152602001600020549050919050565b6060600180546108a89061252a565b80601f01602080910402602001604051908101604052809291908181526020018280546108d49061252a565b80156109215780601f106108f657610100808354040283529160200191610921565b820191906000526020600020905b81548152906001019060200180831161090457829003601f168201915b5050505050905090565b61093d610936610ff5565b8383611481565b5050565b6060600061094f6007610f86565b905060008060005b838110156109f7573373ffffffffffffffffffffffffffffffffffffffff16600a60006001846109879190612aec565b815260200190815260200160002060010160009054906101000a900473ffffffffffffffffffffffffffffffffffffffff1673ffffffffffffffffffffffffffffffffffffffff16036109e4576001836109e19190612aec565b92505b80806109ef90612b20565b915050610957565b5060008267ffffffffffffffff811115610a1457610a13611cdc565b5b604051908082528060200260200182016040528015610a4d57816020015b610a3a611b97565b815260200190600190039081610a325790505b50905060005b84811015610c91573373ffffffffffffffffffffffffffffffffffffffff16600a6000600184610a839190612aec565b815260200190815260200160002060010160009054906101000a900473ffffffffffffffffffffffffffffffffffffffff1673ffffffffffffffffffffffffffffffffffffffff1603610c7e576000600182610adf9190612aec565b90506000600a6000838152602001908152602001600020905080604051806080016040529081600082015481526020016001820160009054906101000a900473ffffffffffffffffffffffffffffffffffffffff1673ffffffffffffffffffffffffffffffffffffffff1673ffffffffffffffffffffffffffffffffffffffff168152602001600282018054610b749061252a565b80601f0160208091040260200160405190810160405280929190818152602001828054610ba09061252a565b8015610bed5780601f10610bc257610100808354040283529160200191610bed565b820191906000526020600020905b815481529060010190602001808311610bd057829003601f168201915b5050505050815260200160038201805480602002602001604051908101604052809291908181526020018280548015610c4557602002820191906000526020600020905b815481526020019060010190808311610c31575b505050505081525050848681518110610c6157610c60612b68565b5b6020026020010181905250600185610c799190612aec565b945050505b8080610c8990612b20565b915050610a53565b508094505050505090565b610cad610ca7610ff5565b836110b6565b610cec576040517f08c379a0000000000000000000000000000000000000000000000000000000008152600401610ce39061299f565b60405180910390fd5b610cf8848484846115ed565b50505050565b6060610d0982610faa565b6000600660008481526020019081526020016000208054610d299061252a565b80601f0160208091040260200160405190810160405280929190818152602001828054610d559061252a565b8015610da25780601f10610d7757610100808354040283529160200191610da2565b820191906000526020600020905b815481529060010190602001808311610d8557829003601f168201915b505050505090506000610db3611649565b90506000815103610dc8578192505050610e0b565b600082511115610dfd578082604051602001610de5929190612bd3565b60405160208183030381529060405292505050610e0b565b610e0684611660565b925050505b919050565b6000600560008473ffffffffffffffffffffffffffffffffffffffff1673ffffffffffffffffffffffffffffffffffffffff16815260200190815260200160002060008373ffffffffffffffffffffffffffffffffffffffff1673ffffffffffffffffffffffffffffffffffffffff16815260200190815260200160002060009054906101000a900460ff16905092915050565b60007f80ac58cd000000000000000000000000000000000000000000000000000000007bffffffffffffffffffffffffffffffffffffffffffffffffffffffff1916827bffffffffffffffffffffffffffffffffffffffffffffffffffffffff19161480610f6f57507f5b5e139f000000000000000000000000000000000000000000000000000000007bffffffffffffffffffffffffffffffffffffffffffffffffffffffff1916827bffffffffffffffffffffffffffffffffffffffffffffffffffffffff1916145b80610f7f5750610f7e826116c8565b5b9050919050565b600081600001549050919050565b6001816000016000828254019250508190555050565b610fb381611732565b610ff2576040517f08c379a0000000000000000000000000000000000000000000000000000000008152600401610fe990612a0b565b60405180910390fd5b50565b600033905090565b816004600083815260200190815260200160002060006101000a81548173ffffffffffffffffffffffffffffffffffffffff021916908373ffffffffffffffffffffffffffffffffffffffff160217905550808273ffffffffffffffffffffffffffffffffffffffff166110708361075c565b73ffffffffffffffffffffffffffffffffffffffff167f8c5be1e5ebec7d5bd14f71427d1e84f3dd0314c0f7b2291e5b200ac8c7c3b92560405160405180910390a45050565b6000806110c28361075c565b90508073ffffffffffffffffffffffffffffffffffffffff168473ffffffffffffffffffffffffffffffffffffffff16148061110457506111038185610e10565b5b8061114257508373ffffffffffffffffffffffffffffffffffffffff1661112a8461057f565b73ffffffffffffffffffffffffffffffffffffffff16145b91505092915050565b8273ffffffffffffffffffffffffffffffffffffffff1661116b8261075c565b73ffffffffffffffffffffffffffffffffffffffff16146111c1576040517f08c379a00000000000000000000000000000000000000000000000000000000081526004016111b890612c69565b60405180910390fd5b600073ffffffffffffffffffffffffffffffffffffffff168273ffffffffffffffffffffffffffffffffffffffff1603611230576040517f08c379a000000000000000000000000000000000000000000000000000000000815260040161122790612cfb565b60405180910390fd5b61123d8383836001611773565b8273ffffffffffffffffffffffffffffffffffffffff1661125d8261075c565b73ffffffffffffffffffffffffffffffffffffffff16146112b3576040517f08c379a00000000000000000000000000000000000000000000000000000000081526004016112aa90612c69565b60405180910390fd5b6004600082815260200190815260200160002060006101000a81549073ffffffffffffffffffffffffffffffffffffffff02191690556001600360008573ffffffffffffffffffffffffffffffffffffffff1673ffffffffffffffffffffffffffffffffffffffff168152602001908152602001600020600082825403925050819055506001600360008473ffffffffffffffffffffffffffffffffffffffff1673ffffffffffffffffffffffffffffffffffffffff16815260200190815260200160002060008282540192505081905550816002600083815260200190815260200160002060006101000a81548173ffffffffffffffffffffffffffffffffffffffff021916908373ffffffffffffffffffffffffffffffffffffffff160217905550808273ffffffffffffffffffffffffffffffffffffffff168473ffffffffffffffffffffffffffffffffffffffff167fddf252ad1be2c89b69c2b068fc378daa952ba7f163c4a11628f55a4df523b3ef60405160405180910390a461143f8383836001611779565b505050565b60006002600083815260200190815260200160002060009054906101000a900473ffffffffffffffffffffffffffffffffffffffff169050919050565b8173ffffffffffffffffffffffffffffffffffffffff168373ffffffffffffffffffffffffffffffffffffffff16036114ef576040517f08c379a00000000000000000000000000000000000000000000000000000000081526004016114e690612d67565b60405180910390fd5b80600560008573ffffffffffffffffffffffffffffffffffffffff1673ffffffffffffffffffffffffffffffffffffffff16815260200190815260200160002060008473ffffffffffffffffffffffffffffffffffffffff1673ffffffffffffffffffffffffffffffffffffffff16815260200190815260200160002060006101000a81548160ff0219169083151502179055508173ffffffffffffffffffffffffffffffffffffffff168373ffffffffffffffffffffffffffffffffffffffff167f17307eab39ab6107e8899845ad3d59bd9653f200f220920489ca2b5937696c31836040516115e09190611ca6565b60405180910390a3505050565b6115f884848461114b565b6116048484848461177f565b611643576040517f08c379a000000000000000000000000000000000000000000000000000000000815260040161163a90612df9565b60405180910390fd5b50505050565b606060405180602001604052806000815250905090565b606061166b82610faa565b6000611675611649565b9050600081511161169557604051806020016040528060008152506116c0565b8061169f84611906565b6040516020016116b0929190612bd3565b6040516020818303038152906040525b915050919050565b60007f01ffc9a7000000000000000000000000000000000000000000000000000000007bffffffffffffffffffffffffffffffffffffffffffffffffffffffff1916827bffffffffffffffffffffffffffffffffffffffffffffffffffffffff1916149050919050565b60008073ffffffffffffffffffffffffffffffffffffffff1661175483611444565b73ffffffffffffffffffffffffffffffffffffffff1614159050919050565b50505050565b50505050565b60006117a08473ffffffffffffffffffffffffffffffffffffffff166119d4565b156118f9578373ffffffffffffffffffffffffffffffffffffffff1663150b7a026117c9610ff5565b8786866040518563ffffffff1660e01b81526004016117eb9493929190612e6e565b6020604051808303816000875af192505050801561182757506040513d601f19601f820116820180604052508101906118249190612ecf565b60015b6118a9573d8060008114611857576040519150601f19603f3d011682016040523d82523d6000602084013e61185c565b606091505b5060008151036118a1576040517f08c379a000000000000000000000000000000000000000000000000000000000815260040161189890612df9565b60405180910390fd5b805181602001fd5b63150b7a0260e01b7bffffffffffffffffffffffffffffffffffffffffffffffffffffffff1916817bffffffffffffffffffffffffffffffffffffffffffffffffffffffff1916149150506118fe565b600190505b949350505050565b606060006001611915846119f7565b01905060008167ffffffffffffffff81111561193457611933611cdc565b5b6040519080825280601f01601f1916602001820160405280156119665781602001600182028036833780820191505090505b509050600082602001820190505b6001156119c9578080600190039150507f3031323334353637383961626364656600000000000000000000000000000000600a86061a8153600a85816119bd576119bc612efc565b5b04945060008503611974575b819350505050919050565b6000808273ffffffffffffffffffffffffffffffffffffffff163b119050919050565b600080600090507a184f03e93ff9f4daa797ed6e38ed64bf6a1f0100000000000000008310611a55577a184f03e93ff9f4daa797ed6e38ed64bf6a1f0100000000000000008381611a4b57611a4a612efc565b5b0492506040810190505b6d04ee2d6d415b85acef81000000008310611a92576d04ee2d6d415b85acef81000000008381611a8857611a87612efc565b5b0492506020810190505b662386f26fc100008310611ac157662386f26fc100008381611ab757611ab6612efc565b5b0492506010810190505b6305f5e1008310611aea576305f5e1008381611ae057611adf612efc565b5b0492506008810190505b6127108310611b0f576127108381611b0557611b04612efc565b5b0492506004810190505b60648310611b325760648381611b2857611b27612efc565b5b0492506002810190505b600a8310611b41576001810190505b80915050919050565b828054828255906000526020600020908101928215611b86579160200282015b82811115611b85578251825591602001919060010190611b6a565b5b509050611b939190611bd5565b5090565b604051806080016040528060008152602001600073ffffffffffffffffffffffffffffffffffffffff16815260200160608152602001606081525090565b5b80821115611bee576000816000905550600101611bd6565b5090565b6000604051905090565b600080fd5b600080fd5b60007fffffffff0000000000000000000000000000000000000000000000000000000082169050919050565b611c3b81611c06565b8114611c4657600080fd5b50565b600081359050611c5881611c32565b92915050565b600060208284031215611c7457611c73611bfc565b5b6000611c8284828501611c49565b91505092915050565b60008115159050919050565b611ca081611c8b565b82525050565b6000602082019050611cbb6000830184611c97565b92915050565b600080fd5b600080fd5b6000601f19601f8301169050919050565b7f4e487b7100000000000000000000000000000000000000000000000000000000600052604160045260246000fd5b611d1482611ccb565b810181811067ffffffffffffffff82111715611d3357611d32611cdc565b5b80604052505050565b6000611d46611bf2565b9050611d528282611d0b565b919050565b600067ffffffffffffffff821115611d7257611d71611cdc565b5b611d7b82611ccb565b9050602081019050919050565b82818337600083830152505050565b6000611daa611da584611d57565b611d3c565b905082815260208101848484011115611dc657611dc5611cc6565b5b611dd1848285611d88565b509392505050565b600082601f830112611dee57611ded611cc1565b5b8135611dfe848260208601611d97565b91505092915050565b600060208284031215611e1d57611e1c611bfc565b5b600082013567ffffffffffffffff811115611e3b57611e3a611c01565b5b611e4784828501611dd9565b91505092915050565b600081519050919050565b600082825260208201905092915050565b60005b83811015611e8a578082015181840152602081019050611e6f565b60008484015250505050565b6000611ea182611e50565b611eab8185611e5b565b9350611ebb818560208601611e6c565b611ec481611ccb565b840191505092915050565b60006020820190508181036000830152611ee98184611e96565b905092915050565b6000819050919050565b611f0481611ef1565b8114611f0f57600080fd5b50565b600081359050611f2181611efb565b92915050565b600060208284031215611f3d57611f3c611bfc565b5b6000611f4b84828501611f12565b91505092915050565b600073ffffffffffffffffffffffffffffffffffffffff82169050919050565b6000611f7f82611f54565b9050919050565b611f8f81611f74565b82525050565b6000602082019050611faa6000830184611f86565b92915050565b611fb981611f74565b8114611fc457600080fd5b50565b600081359050611fd681611fb0565b92915050565b60008060408385031215611ff357611ff2611bfc565b5b600061200185828601611fc7565b925050602061201285828601611f12565b9150509250929050565b60008060006060848603121561203557612034611bfc565b5b600061204386828701611fc7565b935050602061205486828701611fc7565b925050604061206586828701611f12565b9150509250925092565b60006020828403121561208557612084611bfc565b5b600061209384828501611fc7565b91505092915050565b6120a581611ef1565b82525050565b60006020820190506120c0600083018461209c565b92915050565b6120cf81611c8b565b81146120da57600080fd5b50565b6000813590506120ec816120c6565b92915050565b6000806040838503121561210957612108611bfc565b5b600061211785828601611fc7565b9250506020612128858286016120dd565b9150509250929050565b600081519050919050565b600082825260208201905092915050565b6000819050602082019050919050565b61216781611ef1565b82525050565b61217681611f74565b82525050565b600082825260208201905092915050565b600061219882611e50565b6121a2818561217c565b93506121b2818560208601611e6c565b6121bb81611ccb565b840191505092915050565b600081519050919050565b600082825260208201905092915050565b6000819050602082019050919050565b60006121fe838361215e565b60208301905092915050565b6000602082019050919050565b6000612222826121c6565b61222c81856121d1565b9350612237836121e2565b8060005b8381101561226857815161224f88826121f2565b975061225a8361220a565b92505060018101905061223b565b5085935050505092915050565b600060808301600083015161228d600086018261215e565b5060208301516122a0602086018261216d565b50604083015184820360408601526122b8828261218d565b915050606083015184820360608601526122d28282612217565b9150508091505092915050565b60006122eb8383612275565b905092915050565b6000602082019050919050565b600061230b82612132565b612315818561213d565b9350836020820285016123278561214e565b8060005b85811015612363578484038952815161234485826122df565b945061234f836122f3565b925060208a0199505060018101905061232b565b50829750879550505050505092915050565b6000602082019050818103600083015261238f8184612300565b905092915050565b600067ffffffffffffffff8211156123b2576123b1611cdc565b5b6123bb82611ccb565b9050602081019050919050565b60006123db6123d684612397565b611d3c565b9050828152602081018484840111156123f7576123f6611cc6565b5b612402848285611d88565b509392505050565b600082601f83011261241f5761241e611cc1565b5b813561242f8482602086016123c8565b91505092915050565b6000806000806080858703121561245257612451611bfc565b5b600061246087828801611fc7565b945050602061247187828801611fc7565b935050604061248287828801611f12565b925050606085013567ffffffffffffffff8111156124a3576124a2611c01565b5b6124af8782880161240a565b91505092959194509250565b600080604083850312156124d2576124d1611bfc565b5b60006124e085828601611fc7565b92505060206124f185828601611fc7565b9150509250929050565b7f4e487b7100000000000000000000000000000000000000000000000000000000600052602260045260246000fd5b6000600282049050600182168061254257607f821691505b602082108103612555576125546124fb565b5b50919050565b60008190508160005260206000209050919050565b60006020601f8301049050919050565b600082821b905092915050565b6000600883026125bd7fffffffffffffffffffffffffffffffffffffffffffffffffffffffffffffffff82612580565b6125c78683612580565b95508019841693508086168417925050509392505050565b6000819050919050565b60006126046125ff6125fa84611ef1565b6125df565b611ef1565b9050919050565b6000819050919050565b61261e836125e9565b61263261262a8261260b565b84845461258d565b825550505050565b600090565b61264761263a565b612652818484612615565b505050565b5b818110156126765761266b60008261263f565b600181019050612658565b5050565b601f8211156126bb5761268c8161255b565b61269584612570565b810160208510156126a4578190505b6126b86126b085612570565b830182612657565b50505b505050565b600082821c905092915050565b60006126de600019846008026126c0565b1980831691505092915050565b60006126f783836126cd565b9150826002028217905092915050565b61271082611e50565b67ffffffffffffffff81111561272957612728611cdc565b5b612733825461252a565b61273e82828561267a565b600060209050601f831160018114612771576000841561275f578287015190505b61276985826126eb565b8655506127d1565b601f19841661277f8661255b565b60005b828110156127a757848901518255600182019150602085019450602081019050612782565b868310156127c457848901516127c0601f8916826126cd565b8355505b6001600288020188555050505b505050505050565b60006040820190506127ee6000830185611f86565b81810360208301526128008184611e96565b90509392505050565b7f4552433732313a20617070726f76616c20746f2063757272656e74206f776e6560008201527f7200000000000000000000000000000000000000000000000000000000000000602082015250565b6000612865602183611e5b565b915061287082612809565b604082019050919050565b6000602082019050818103600083015261289481612858565b9050919050565b7f4552433732313a20617070726f76652063616c6c6572206973206e6f7420746f60008201527f6b656e206f776e6572206f7220617070726f76656420666f7220616c6c000000602082015250565b60006128f7603d83611e5b565b91506129028261289b565b604082019050919050565b60006020820190508181036000830152612926816128ea565b9050919050565b7f4552433732313a2063616c6c6572206973206e6f7420746f6b656e206f776e6560008201527f72206f7220617070726f76656400000000000000000000000000000000000000602082015250565b6000612989602d83611e5b565b91506129948261292d565b604082019050919050565b600060208201905081810360008301526129b88161297c565b9050919050565b7f4552433732313a20696e76616c696420746f6b656e2049440000000000000000600082015250565b60006129f5601883611e5b565b9150612a00826129bf565b602082019050919050565b60006020820190508181036000830152612a24816129e8565b9050919050565b7f4552433732313a2061646472657373207a65726f206973206e6f74206120766160008201527f6c6964206f776e65720000000000000000000000000000000000000000000000602082015250565b6000612a87602983611e5b565b9150612a9282612a2b565b604082019050919050565b60006020820190508181036000830152612ab681612a7a565b9050919050565b7f4e487b7100000000000000000000000000000000000000000000000000000000600052601160045260246000fd5b6000612af782611ef1565b9150612b0283611ef1565b9250828201905080821115612b1a57612b19612abd565b5b92915050565b6000612b2b82611ef1565b91507fffffffffffffffffffffffffffffffffffffffffffffffffffffffffffffffff8203612b5d57612b5c612abd565b5b600182019050919050565b7f4e487b7100000000000000000000000000000000000000000000000000000000600052603260045260246000fd5b600081905092915050565b6000612bad82611e50565b612bb78185612b97565b9350612bc7818560208601611e6c565b80840191505092915050565b6000612bdf8285612ba2565b9150612beb8284612ba2565b91508190509392505050565b7f4552433732313a207472616e736665722066726f6d20696e636f72726563742060008201527f6f776e6572000000000000000000000000000000000000000000000000000000602082015250565b6000612c53602583611e5b565b9150612c5e82612bf7565b604082019050919050565b60006020820190508181036000830152612c8281612c46565b9050919050565b7f4552433732313a207472616e7366657220746f20746865207a65726f2061646460008201527f7265737300000000000000000000000000000000000000000000000000000000602082015250565b6000612ce5602483611e5b565b9150612cf082612c89565b604082019050919050565b60006020820190508181036000830152612d1481612cd8565b9050919050565b7f4552433732313a20617070726f766520746f2063616c6c657200000000000000600082015250565b6000612d51601983611e5b565b9150612d5c82612d1b565b602082019050919050565b60006020820190508181036000830152612d8081612d44565b9050919050565b7f4552433732313a207472616e7366657220746f206e6f6e20455243373231526560008201527f63656976657220696d706c656d656e7465720000000000000000000000000000602082015250565b6000612de3603283611e5b565b9150612dee82612d87565b604082019050919050565b60006020820190508181036000830152612e1281612dd6565b9050919050565b600081519050919050565b600082825260208201905092915050565b6000612e4082612e19565b612e4a8185612e24565b9350612e5a818560208601611e6c565b612e6381611ccb565b840191505092915050565b6000608082019050612e836000830187611f86565b612e906020830186611f86565b612e9d604083018561209c565b8181036060830152612eaf8184612e35565b905095945050505050565b600081519050612ec981611c32565b92915050565b600060208284031215612ee557612ee4611bfc565b5b6000612ef384828501612eba565b91505092915050565b7f4e487b7100000000000000000000000000000000000000000000000000000000600052601260045260246000fdfea2646970667358221220db8729b7ee8ebed217122cbe6e4d8d3a05571443d758abebdc90c48999c9466364736f6c63430008130033",
  "linkReferences": {},
  "deployedLinkReferences": {}
}